{
  "address": "0x2109c6E941d0FD88316c530b000dCB9A54062D82",
  "abi": [
    {
      "inputs": [],
      "name": "MG_ACCEPTANCE_PERIOD_EXPIRED",
      "type": "error"
    },
    {
      "inputs": [],
      "name": "MG_ADDRESS_ZERO",
      "type": "error"
    },
    {
      "inputs": [],
      "name": "MG_AGREEMENT_NOT_PENDING",
      "type": "error"
    },
    {
      "inputs": [],
      "name": "MG_AMOUNT_TOO_HIGH",
      "type": "error"
    },
    {
      "inputs": [],
      "name": "MG_CONTRACTOR_EQUALS_CONTRACTEE",
      "type": "error"
    },
    {
      "inputs": [],
      "name": "MG_FUNDS_ALREADY_SECURED",
      "type": "error"
    },
    {
      "inputs": [],
      "name": "MG_INVALID_MATURITY_DATE",
      "type": "error"
    },
    {
      "inputs": [],
      "name": "MG_INVALID_MIGRATION_PERIOD",
      "type": "error"
    },
    {
      "inputs": [],
      "name": "MG_INVALID_PERCENTAGES",
      "type": "error"
    },
    {
      "inputs": [],
      "name": "MG_INVALID_TOKEN",
      "type": "error"
    },
    {
      "inputs": [],
      "name": "MG_NOT_ONGOING",
      "type": "error"
    },
    {
      "inputs": [],
      "name": "MG_UNAUTHORIZED",
      "type": "error"
    },
    {
      "anonymous": false,
      "inputs": [
        {
          "indexed": false,
          "internalType": "uint256",
          "name": "agreementID",
          "type": "uint256"
        }
      ],
      "name": "AgreementActivated",
      "type": "event"
    },
    {
      "anonymous": false,
      "inputs": [
        {
          "indexed": false,
          "internalType": "uint256",
          "name": "agreementID",
          "type": "uint256"
        }
      ],
      "name": "AgreementCancelled",
      "type": "event"
    },
    {
      "anonymous": false,
      "inputs": [
        {
          "indexed": false,
          "internalType": "uint256",
          "name": "agreementID",
          "type": "uint256"
        }
      ],
      "name": "AgreementChallenged",
      "type": "event"
    },
    {
      "anonymous": false,
      "inputs": [
        {
          "indexed": false,
          "internalType": "uint256",
          "name": "agreementID",
          "type": "uint256"
        },
        {
          "indexed": false,
          "internalType": "address",
          "name": "contractor",
          "type": "address"
        },
        {
          "indexed": false,
          "internalType": "address",
          "name": "contractee",
          "type": "address"
        }
      ],
      "name": "AgreementCreated",
      "type": "event"
    },
    {
      "anonymous": false,
      "inputs": [
        {
          "indexed": false,
          "internalType": "uint256",
          "name": "agreement",
          "type": "uint256"
        },
        {
          "indexed": false,
          "internalType": "uint128",
          "name": "amount",
          "type": "uint128"
        }
      ],
      "name": "FundsDeposited",
      "type": "event"
    },
    {
      "anonymous": false,
      "inputs": [
        {
          "indexed": false,
          "internalType": "uint256",
          "name": "agreement",
          "type": "uint256"
        },
        {
          "indexed": false,
          "internalType": "uint128",
          "name": "amount",
          "type": "uint128"
        }
      ],
      "name": "FundsMigrated",
      "type": "event"
    },
    {
      "anonymous": false,
      "inputs": [
        {
          "indexed": false,
          "internalType": "uint256",
          "name": "agreementID",
          "type": "uint256"
        },
        {
          "indexed": false,
          "internalType": "uint128",
          "name": "contractorAmount",
          "type": "uint128"
        },
        {
          "indexed": false,
          "internalType": "uint128",
          "name": "contracteeAmount",
          "type": "uint128"
        }
      ],
      "name": "FundsSplitted",
      "type": "event"
    },
    {
      "anonymous": false,
      "inputs": [
        {
          "indexed": false,
          "internalType": "uint8",
          "name": "version",
          "type": "uint8"
        }
      ],
      "name": "Initialized",
      "type": "event"
    },
    {
      "anonymous": false,
      "inputs": [
        {
          "indexed": false,
          "internalType": "address",
          "name": "account",
          "type": "address"
        }
      ],
      "name": "Paused",
      "type": "event"
    },
    {
      "anonymous": false,
      "inputs": [
        {
          "indexed": true,
          "internalType": "bytes32",
          "name": "role",
          "type": "bytes32"
        },
        {
          "indexed": true,
          "internalType": "bytes32",
          "name": "previousAdminRole",
          "type": "bytes32"
        },
        {
          "indexed": true,
          "internalType": "bytes32",
          "name": "newAdminRole",
          "type": "bytes32"
        }
      ],
      "name": "RoleAdminChanged",
      "type": "event"
    },
    {
      "anonymous": false,
      "inputs": [
        {
          "indexed": true,
          "internalType": "bytes32",
          "name": "role",
          "type": "bytes32"
        },
        {
          "indexed": true,
          "internalType": "address",
          "name": "account",
          "type": "address"
        },
        {
          "indexed": true,
          "internalType": "address",
          "name": "sender",
          "type": "address"
        }
      ],
      "name": "RoleGranted",
      "type": "event"
    },
    {
      "anonymous": false,
      "inputs": [
        {
          "indexed": true,
          "internalType": "bytes32",
          "name": "role",
          "type": "bytes32"
        },
        {
          "indexed": true,
          "internalType": "address",
          "name": "account",
          "type": "address"
        },
        {
          "indexed": true,
          "internalType": "address",
          "name": "sender",
          "type": "address"
        }
      ],
      "name": "RoleRevoked",
      "type": "event"
    },
    {
      "anonymous": false,
      "inputs": [
        {
          "indexed": false,
          "internalType": "address",
          "name": "account",
          "type": "address"
        }
      ],
      "name": "Unpaused",
      "type": "event"
    },
    {
      "inputs": [],
      "name": "DEFAULT_ADMIN_ROLE",
      "outputs": [
        {
          "internalType": "bytes32",
          "name": "",
          "type": "bytes32"
        }
      ],
      "stateMutability": "view",
      "type": "function"
    },
    {
      "inputs": [],
      "name": "DOMAIN_SEPARATOR",
      "outputs": [
        {
          "internalType": "bytes32",
          "name": "",
          "type": "bytes32"
        }
      ],
      "stateMutability": "view",
      "type": "function"
    },
    {
      "inputs": [
        {
          "internalType": "uint256",
          "name": "agreementID",
          "type": "uint256"
        }
      ],
      "name": "activateAgreement",
      "outputs": [],
      "stateMutability": "nonpayable",
      "type": "function"
    },
    {
      "inputs": [],
      "name": "agreementNonce",
      "outputs": [
        {
          "internalType": "uint256",
          "name": "",
          "type": "uint256"
        }
      ],
      "stateMutability": "view",
      "type": "function"
    },
    {
      "inputs": [
        {
          "internalType": "uint256",
          "name": "",
          "type": "uint256"
        }
      ],
      "name": "agreements",
      "outputs": [
        {
          "components": [
            {
              "internalType": "uint256",
              "name": "AGREEMENT_ID",
              "type": "uint256"
            },
            {
              "internalType": "uint128",
              "name": "BEGINNING_DATE",
              "type": "uint128"
            },
            {
              "internalType": "uint128",
              "name": "ACCEPTANCE_DEADLINE",
              "type": "uint128"
            },
            {
              "internalType": "uint128",
              "name": "MATURITY_DATE",
              "type": "uint128"
            },
            {
              "internalType": "uint128",
              "name": "PAYMENT_CYCLE_DURATION",
              "type": "uint128"
            },
            {
              "internalType": "uint128",
              "name": "PAYMENT_CYCLE_AMOUNT",
              "type": "uint128"
            },
            {
              "internalType": "uint128",
              "name": "ESTABLISHMENT_FEE_RATE",
              "type": "uint128"
            },
            {
              "internalType": "uint128",
              "name": "PENALIZATION_AMOUNT",
              "type": "uint128"
            },
            {
              "internalType": "address",
              "name": "UNDERLAYING_TOKEN",
              "type": "address"
            },
            {
              "internalType": "address",
              "name": "CONTRACTOR",
              "type": "address"
            },
            {
              "internalType": "address",
              "name": "CONTRACTEE",
              "type": "address"
            },
            {
              "internalType": "string",
              "name": "DESCRIPTION_URI",
              "type": "string"
            }
          ],
          "internalType": "struct Types.AgreementParameters",
          "name": "parameters",
          "type": "tuple"
        },
        {
          "components": [
            {
              "internalType": "uint128",
              "name": "escrowedFunds",
              "type": "uint128"
            },
            {
              "internalType": "bool",
              "name": "closed",
              "type": "bool"
            },
            {
              "internalType": "bool",
              "name": "challenged",
              "type": "bool"
            },
            {
              "internalType": "bool",
              "name": "active",
              "type": "bool"
            }
          ],
          "internalType": "struct Types.AgreementState",
          "name": "state",
          "type": "tuple"
        }
      ],
      "stateMutability": "view",
      "type": "function"
    },
    {
      "inputs": [
        {
          "internalType": "uint256",
          "name": "agreementID",
          "type": "uint256"
        }
      ],
      "name": "cancelAgreement",
      "outputs": [],
      "stateMutability": "nonpayable",
      "type": "function"
    },
    {
      "inputs": [
        {
          "internalType": "uint256",
          "name": "agreementID",
          "type": "uint256"
        }
      ],
      "name": "challengeAgreement",
      "outputs": [],
      "stateMutability": "nonpayable",
      "type": "function"
    },
    {
      "inputs": [],
      "name": "challengeDuration",
      "outputs": [
        {
          "internalType": "uint128",
          "name": "",
          "type": "uint128"
        }
      ],
      "stateMutability": "view",
      "type": "function"
    },
    {
      "inputs": [
        {
          "internalType": "uint256",
          "name": "agreementID",
          "type": "uint256"
        },
        {
          "internalType": "uint128",
          "name": "amount",
          "type": "uint128"
        },
        {
          "internalType": "address",
          "name": "to",
          "type": "address"
        }
      ],
      "name": "claimProtocolFees",
      "outputs": [],
      "stateMutability": "nonpayable",
      "type": "function"
    },
    {
      "inputs": [
        {
          "components": [
            {
              "internalType": "uint128",
              "name": "beginningDate",
              "type": "uint128"
            },
            {
              "internalType": "uint128",
              "name": "acceptanceDeadline",
              "type": "uint128"
            },
            {
              "internalType": "uint128",
              "name": "maturityDate",
              "type": "uint128"
            },
            {
              "internalType": "uint128",
              "name": "paymentCycleDuration",
              "type": "uint128"
            },
            {
              "internalType": "uint128",
              "name": "paymentCycleAmount",
              "type": "uint128"
            },
            {
              "internalType": "address",
              "name": "underlayingToken",
              "type": "address"
            },
            {
              "internalType": "address",
              "name": "contractor",
              "type": "address"
            },
            {
              "internalType": "string",
              "name": "descriptionURI",
              "type": "string"
            }
          ],
          "internalType": "struct IManager.AgreementCreationParams",
          "name": "params",
          "type": "tuple"
        }
      ],
      "name": "createAgreement",
      "outputs": [],
      "stateMutability": "nonpayable",
      "type": "function"
    },
    {
      "inputs": [
        {
          "internalType": "uint256",
          "name": "agreementID",
          "type": "uint256"
        }
      ],
      "name": "depositFundsForNextCycle",
      "outputs": [],
      "stateMutability": "nonpayable",
      "type": "function"
    },
    {
      "inputs": [],
      "name": "establishmentFeeRate",
      "outputs": [
        {
          "internalType": "uint128",
          "name": "",
          "type": "uint128"
        }
      ],
      "stateMutability": "view",
      "type": "function"
    },
    {
      "inputs": [],
      "name": "freezeAgreements",
      "outputs": [],
      "stateMutability": "nonpayable",
      "type": "function"
    },
    {
      "inputs": [
        {
          "internalType": "uint256",
          "name": "agreementID",
          "type": "uint256"
        }
      ],
      "name": "getAgreementParameters",
      "outputs": [
        {
          "internalType": "uint128",
          "name": "beginningDate",
          "type": "uint128"
        },
        {
          "internalType": "uint128",
          "name": "acceptanceDeadline",
          "type": "uint128"
        },
        {
          "internalType": "uint128",
          "name": "maturityDate",
          "type": "uint128"
        },
        {
          "internalType": "uint128",
          "name": "paymentCycleDuration",
          "type": "uint128"
        },
        {
          "internalType": "uint128",
          "name": "paymentCycleAmount",
          "type": "uint128"
        },
        {
          "internalType": "uint128",
          "name": "establishmentFeeRate_",
          "type": "uint128"
        },
        {
          "internalType": "uint128",
          "name": "penalizationAmount_",
          "type": "uint128"
        },
        {
          "internalType": "address",
          "name": "underlayingToken",
          "type": "address"
        },
        {
          "internalType": "address",
          "name": "contractor",
          "type": "address"
        },
        {
          "internalType": "address",
          "name": "contractee",
          "type": "address"
        },
        {
          "internalType": "string",
          "name": "descriptionURI",
          "type": "string"
        }
      ],
      "stateMutability": "view",
      "type": "function"
    },
    {
      "inputs": [
        {
          "internalType": "uint256",
          "name": "agreementID",
          "type": "uint256"
        }
      ],
      "name": "getAgreementState",
      "outputs": [
        {
          "internalType": "uint128",
          "name": "escrowedFunds",
          "type": "uint128"
        },
        {
          "internalType": "bool",
          "name": "closed",
          "type": "bool"
        },
        {
          "internalType": "bool",
          "name": "challenged",
          "type": "bool"
        },
        {
          "internalType": "bool",
          "name": "active",
          "type": "bool"
        }
      ],
      "stateMutability": "view",
      "type": "function"
    },
    {
      "inputs": [
        {
          "internalType": "bytes32",
          "name": "role",
          "type": "bytes32"
        }
      ],
      "name": "getRoleAdmin",
      "outputs": [
        {
          "internalType": "bytes32",
          "name": "",
          "type": "bytes32"
        }
      ],
      "stateMutability": "view",
      "type": "function"
    },
    {
      "inputs": [
        {
          "internalType": "address",
          "name": "user",
          "type": "address"
        }
      ],
      "name": "getUserAgreements",
      "outputs": [
        {
          "internalType": "uint256[]",
          "name": "",
          "type": "uint256[]"
        }
      ],
      "stateMutability": "view",
      "type": "function"
    },
    {
      "inputs": [
        {
          "internalType": "bytes32",
          "name": "role",
          "type": "bytes32"
        },
        {
          "internalType": "address",
          "name": "account",
          "type": "address"
        }
      ],
      "name": "grantRole",
      "outputs": [],
      "stateMutability": "nonpayable",
      "type": "function"
    },
    {
      "inputs": [
        {
          "internalType": "bytes32",
          "name": "role",
          "type": "bytes32"
        },
        {
          "internalType": "address",
          "name": "account",
          "type": "address"
        }
      ],
      "name": "hasRole",
      "outputs": [
        {
          "internalType": "bool",
          "name": "",
          "type": "bool"
        }
      ],
      "stateMutability": "view",
      "type": "function"
    },
    {
      "inputs": [
        {
          "internalType": "uint128",
          "name": "challengeDuration_",
          "type": "uint128"
        },
        {
          "internalType": "address",
          "name": "governance_",
          "type": "address"
        }
      ],
      "name": "initialize",
      "outputs": [],
      "stateMutability": "nonpayable",
      "type": "function"
    },
    {
      "inputs": [],
      "name": "initialize_",
      "outputs": [],
      "stateMutability": "nonpayable",
      "type": "function"
    },
    {
      "inputs": [
        {
          "internalType": "uint256",
          "name": "agreementID",
          "type": "uint256"
        }
      ],
      "name": "migrateFunds",
      "outputs": [],
      "stateMutability": "nonpayable",
      "type": "function"
    },
    {
      "inputs": [],
      "name": "name",
      "outputs": [
        {
          "internalType": "string",
          "name": "",
          "type": "string"
        }
      ],
      "stateMutability": "view",
      "type": "function"
    },
    {
      "inputs": [],
      "name": "paused",
      "outputs": [
        {
          "internalType": "bool",
          "name": "",
          "type": "bool"
        }
      ],
      "stateMutability": "view",
      "type": "function"
    },
    {
      "inputs": [],
      "name": "penalizationAmount",
      "outputs": [
        {
          "internalType": "uint128",
          "name": "",
          "type": "uint128"
        }
      ],
      "stateMutability": "view",
      "type": "function"
    },
    {
      "inputs": [
        {
          "internalType": "bytes32",
          "name": "role",
          "type": "bytes32"
        },
        {
          "internalType": "address",
          "name": "account",
          "type": "address"
        }
      ],
      "name": "renounceRole",
      "outputs": [],
      "stateMutability": "nonpayable",
      "type": "function"
    },
    {
      "inputs": [
        {
          "internalType": "bytes32",
          "name": "role",
          "type": "bytes32"
        },
        {
          "internalType": "address",
          "name": "account",
          "type": "address"
        }
      ],
      "name": "revokeRole",
      "outputs": [],
      "stateMutability": "nonpayable",
      "type": "function"
    },
    {
      "inputs": [
        {
          "internalType": "uint128",
          "name": "challengeDuration_",
          "type": "uint128"
        }
      ],
      "name": "setChallengeDuration",
      "outputs": [],
      "stateMutability": "nonpayable",
      "type": "function"
    },
    {
      "inputs": [
        {
          "internalType": "uint128",
          "name": "establishmentFeeRate_",
          "type": "uint128"
        }
      ],
      "name": "setEstablishmentFeeRate",
      "outputs": [],
      "stateMutability": "nonpayable",
      "type": "function"
    },
    {
      "inputs": [
        {
          "internalType": "uint128",
          "name": "penalizationAmount_",
          "type": "uint128"
        }
      ],
      "name": "setPenalizationAmount",
      "outputs": [],
      "stateMutability": "nonpayable",
      "type": "function"
    },
    {
      "inputs": [
        {
          "internalType": "uint256",
          "name": "agreementID",
          "type": "uint256"
        },
        {
          "internalType": "uint128",
          "name": "contractorPercentage",
          "type": "uint128"
        },
        {
          "internalType": "uint128",
          "name": "contracteePercentage",
          "type": "uint128"
        }
      ],
      "name": "splitFunds",
      "outputs": [],
      "stateMutability": "nonpayable",
      "type": "function"
    },
    {
      "inputs": [
        {
          "internalType": "bytes4",
          "name": "interfaceId",
          "type": "bytes4"
        }
      ],
      "name": "supportsInterface",
      "outputs": [
        {
          "internalType": "bool",
          "name": "",
          "type": "bool"
        }
      ],
      "stateMutability": "view",
      "type": "function"
    },
    {
      "inputs": [],
      "name": "unfreezeAgreements",
      "outputs": [],
      "stateMutability": "nonpayable",
      "type": "function"
    },
    {
      "inputs": [
        {
          "internalType": "uint256",
          "name": "",
          "type": "uint256"
        }
      ],
      "name": "usedNonces",
      "outputs": [
        {
          "internalType": "bool",
          "name": "",
          "type": "bool"
        }
      ],
      "stateMutability": "view",
      "type": "function"
    },
    {
      "inputs": [
        {
          "internalType": "address",
          "name": "",
          "type": "address"
        },
        {
          "internalType": "uint256",
          "name": "",
          "type": "uint256"
        }
      ],
      "name": "userAgreements",
      "outputs": [
        {
          "internalType": "uint256",
          "name": "",
          "type": "uint256"
        }
      ],
      "stateMutability": "view",
      "type": "function"
    },
    {
      "inputs": [
        {
          "internalType": "address",
          "name": "signer",
          "type": "address"
        },
        {
          "internalType": "uint8",
          "name": "v",
          "type": "uint8"
        },
        {
          "internalType": "bytes32",
          "name": "r",
          "type": "bytes32"
        },
        {
          "internalType": "bytes32",
          "name": "s",
          "type": "bytes32"
        },
        {
          "internalType": "string",
          "name": "description",
          "type": "string"
        },
        {
          "internalType": "uint256",
          "name": "nonce",
          "type": "uint256"
        }
      ],
      "name": "validateDescription",
      "outputs": [
        {
          "internalType": "bool",
          "name": "",
          "type": "bool"
        }
      ],
      "stateMutability": "nonpayable",
      "type": "function"
    }
  ],
  "transactionHash": "0xb8e7aae31ab762a8b0b9370ba73d99b48c96c2970e006ad6a1e2e573efdacc21",
  "args": [],
  "numDeployments": 2,
  "solcInputHash": "647bb1a408ec726e5e3da91d88e983df",
  "bytecode": "0x6080604052600060cd55600160ce5534801561001a57600080fd5b506134c38061002a6000396000f3fe608060405234801561001057600080fd5b506004361061021c5760003560e01c806362e414a4116101255780639eb6156c116100ad578063adb9cae61161007c578063adb9cae614610509578063bd14de9614610529578063d547741f1461054a578063de6403901461055d578063e86295141461057057600080fd5b80639eb6156c146104d2578063a0cc8d2c146104e5578063a217fddf146104ee578063a63197d2146104f657600080fd5b80636726e867116100f45780636726e8671461047e5780636944560c146104915780638aa6ded5146104a457806391d14854146104b757806392d5b544146104ca57600080fd5b806362e414a4146103b457806363f749f5146103c7578063658280f4146104485780636717e41c1461045b57600080fd5b80633644e515116101a8578063419ffe2c11610177578063419ffe2c14610370578063429fba4a146102d65780634c27984e146103835780635686b54b146103965780635c975abb146103a957600080fd5b80633644e5151461032e57806336568abe146103375780633a67c2f81461034a5780633bc528661461035d57600080fd5b80631c8abcec116101ef5780631c8abcec1461029d578063248a9ca3146102a5578063291420b3146102d6578063292f2e0e146102e95780632f2ff15d1461031b57600080fd5b806301ffc9a71461022157806306fdde03146102495780630bd30c12146102805780631333f2b71461028a575b600080fd5b61023461022f366004612a9d565b61059a565b60405190151581526020015b60405180910390f35b6102736040518060400160405280600b81526020016a10dbdb9d1c9858dd199d5b60aa1b81525081565b6040516102409190612b17565b6102886105d1565b005b610288610298366004612b46565b6105f4565b61028861062c565b6102c86102b3366004612b61565b60009081526065602052604090206001015490565b604051908152602001610240565b6102886102e4366004612b46565b610730565b60cb5461030390600160801b90046001600160801b031681565b6040516001600160801b039091168152602001610240565b610288610329366004612b91565b61076b565b6102c860ca5481565b610288610345366004612b91565b610795565b610288610358366004612bbd565b610813565b61028861036b366004612b61565b6109bd565b60cb54610303906001600160801b031681565b6102c8610391366004612be7565b610db0565b6102886103a4366004612b61565b610de1565b60975460ff16610234565b6102886103c2366004612c11565b611281565b6104166103d5366004612b61565b600090815260d060205260409020600901546001600160801b0381169160ff600160801b8304811692600160881b8104821692600160901b90910490911690565b604080516001600160801b03909516855292151560208501529015159183019190915215156060820152608001610240565b610288610456366004612c4d565b6112fc565b610234610469366004612b61565b60c96020526000908152604090205460ff1681565b61028861048c366004612c89565b611794565b61023461049f366004612cbc565b6119cf565b60cc54610303906001600160801b031681565b6102346104c5366004612b91565b611b2f565b610288611b5a565b6102886104e0366004612b61565b611b7a565b6102c860ce5481565b6102c8600081565b610288610504366004612b61565b611c40565b61051c610517366004612d75565b611e3b565b6040516102409190612d90565b61053c610537366004612b61565b611ea7565b604051610240929190612dd4565b610288610558366004612b91565b61204a565b61028861056b366004612b61565b61206f565b61058361057e366004612b61565b61219d565b6040516102409b9a99989796959493929190612f2f565b60006001600160e01b03198216637965db0b60e01b14806105cb57506301ffc9a760e01b6001600160e01b03198316145b92915050565b60008051602061346e8339815191526105e9816122df565b6105f16122e9565b50565b60008051602061346e83398151915261060c816122df565b5060cb80546001600160801b03928316600160801b029216919091179055565b600054610100900460ff1661065c5760405162461bcd60e51b815260040161065390612fb8565b60405180910390fd5b604080518082018252600b81526a10dbdb9d1c9858dd199d5b60aa1b6020918201528151808301835260018152603160f81b9082015281517f8b73c3c69bb8fe3d512ecc4cf759cc79239f7b179b0ffacaa9a75d522b39400f818301527f4489533f11b9cc5c3a483b23f3634cc7d8cb2e3435fc90a29c7903cb1dd23ce8818401527fc89efdaa54c0f20c7adf612882df0950f5a951637e0307cdcb4c672f298b8bc660608201524660808201523060a0808301919091528351808303909101815260c0909101909252815191012060ca55565b60008051602061346e833981519152610748816122df565b5060cc80546001600160801b0319166001600160801b0392909216919091179055565b600082815260656020526040902060010154610786816122df565b610790838361233b565b505050565b6001600160a01b03811633146108055760405162461bcd60e51b815260206004820152602f60248201527f416363657373436f6e74726f6c3a2063616e206f6e6c792072656e6f756e636560448201526e103937b632b9903337b91039b2b63360891b6064820152608401610653565b61080f82826123c1565b5050565b600054610100900460ff16158080156108335750600054600160ff909116105b8061084d5750303b15801561084d575060005460ff166001145b6108b05760405162461bcd60e51b815260206004820152602e60248201527f496e697469616c697a61626c653a20636f6e747261637420697320616c72656160448201526d191e481a5b9a5d1a585b1a5e995960921b6064820152608401610653565b6000805460ff1916600117905580156108d3576000805461ff0019166101001790555b6108db61062c565b6108e3612428565b6108eb612451565b60cb80546001600160801b03808616600160801b0291161790556001600160a01b038216610917573391505b61092260008361233b565b61093a60008051602061346e8339815191528361233b565b6109727ffc8737ab85eb45125971625a9ebdb75cc78e01d5c1fa80c4c6e5203f47bc4fab60008051602061346e833981519152612484565b8015610790576000805461ff0019169055604051600181527f7f26b83ff96e1f2b6a682f133852f6798a09c465da95921460cefb3847402498906020015b60405180910390a1505050565b6109c56124cf565b600081815260d0602052604090206009810154600160901b900460ff1615806109f957506009810154600160801b900460ff165b80610a0f57506009810154600160881b900460ff165b15610a2d5760405163c9c2be6d60e01b815260040160405180910390fd5b600082815260d06020526040902060078101546001600160a01b03163314801590610a7f5750610a7d7ffc8737ab85eb45125971625a9ebdb75cc78e01d5c1fa80c4c6e5203f47bc4fab33611b2f565b155b8015610aa05750610a9e60008051602061346e83398151915233611b2f565b155b15610abe576040516303135bad60e61b815260040160405180910390fd5b600083815260d06020526040812060018101546002820154919291610aef916001600160801b039081169116613019565b6002830154909150600090610b1490600160801b90046001600160801b031683613056565b60028401549091506000908190610b3b90600160801b90046001600160801b03168561307c565b6001600160801b03161515905060005b836001600160801b0316816001600160801b03161015610c0f576000610b728260016130a2565b6002880154610b919190600160801b90046001600160801b03166130c2565b6001880154610ba991906001600160801b03166130a2565b9050806001600160801b03164210610bf65760cb54610bd890600160801b90046001600160801b0316826130a2565b6001600160801b03164211610bf1576001935050610c0f565b610bfc565b50610c0f565b5080610c07816130ed565b915050610b4b565b5081610c6f578015610c6f5760028501546001600160801b03164210801590610c65575060cb546002860154610c58916001600160801b03600160801b909104811691166130a2565b6001600160801b03164211155b15610c6f57600191505b81610c8d576040516381c4a38760e01b815260040160405180910390fd5b60038501546009860180546001600160801b0392831692600091610cb391859116613019565b82546101009290920a6001600160801b0381810219909316918316021790915560cc54600388015460009350606492610cef92811691166130c2565b610cf99190613056565b6003870154909150610d159082906001600160801b0316613019565b6001600160801b031660cd6000828254610d2f9190613113565b909155505060058601546006870154610d5e916001600160a01b0390811691166001600160801b038416612515565b6003860154604080518b81526001600160801b0390921660208301527f101b32dc248c08277c4e9a662cd218570f12dccd5a0166380a12991934175f15910160405180910390a1505050505050505050565b60cf6020528160005260406000208181548110610dcc57600080fd5b90600052602060002001600091509150505481565b610de96124cf565b600081815260d06020526040902060078101546001600160a01b03163314610e24576040516303135bad60e61b815260040160405180910390fd5b60098101805460ff60801b1916600160801b1790819055600160901b900460ff16610edb5760058101546007820154600983015460405163a9059cbb60e01b81526001600160a01b039384169363a9059cbb93610e92939116916001600160801b0390911690600401613126565b6020604051808303816000875af1158015610eb1573d6000803e3d6000fd5b505050506040513d601f19601f82011682018060405250810190610ed59190613148565b5061124a565b60018101546002820154600091610efe916001600160801b039182169116613019565b6002830154909150600090610f2390600160801b90046001600160801b031683613056565b6002840154909150600090610f4890600160801b90046001600160801b03168461307c565b600285015460038601546001600160801b0392831615159350600092610f7892600160801b900481169116613056565b905060005b836001600160801b0316816001600160801b03161015611107576000610fa48260016130a2565b6002880154610fc39190600160801b90046001600160801b03166130c2565b6001880154610fdb91906001600160801b03166130a2565b9050806001600160801b0316421015801561101d5750600287015461101090600160801b90046001600160801b0316826130a2565b6001600160801b03164211155b156110f4576005870154600688015460048901546001600160a01b039283169263a9059cbb9216906001600160801b039081169061105d9086164261316a565b611070906001600160801b03891661317d565b61107a9190613113565b6040516001600160e01b031960e085901b1681526001600160a01b03909216600483015260248201526044016020604051808303816000875af11580156110c5573d6000803e3d6000fd5b505050506040513d601f19601f820116820180604052508101906110e99190613148565b505050505050505050565b50806110ff816130ed565b915050610f7d565b50811561124557600285015461112e908490600160801b90046001600160801b03166130c2565b600186015461114691906001600160801b03166130a2565b6001600160801b0316421015801561116b575060028501546001600160801b03164211155b156112455760058501546006860154600487015460028801546001600160a01b039384169363a9059cbb9316916001600160801b03908116916111b09142911661316a565b6111c3906001600160801b03871661317d565b6111cd9190613113565b6040516001600160e01b031960e085901b1681526001600160a01b03909216600483015260248201526044016020604051808303816000875af1158015611218573d6000803e3d6000fd5b505050506040513d601f19601f8201168201806040525081019061123c9190613148565b50505050505050565b505050505b6040518281527f0cae0523c4d6568388c55dcaeb921d927527a60000ca46adffedddf87225f0ec9060200160405180910390a15050565b60008051602061346e833981519152611299816122df565b60cd54836001600160801b031611156112c557604051630c7c9a7f60e11b815260040160405180910390fd5b600084815260d06020526040902060058101546112f5906001600160a01b0316846001600160801b038716612515565b5050505050565b6113046124cf565b60ce54600090815260d060205260409020541561132357611323613194565b600061133560e0830160c08401612d75565b6001600160a01b03160361135c576040516305bf1d9d60e21b815260040160405180910390fd5b3361136d60e0830160c08401612d75565b6001600160a01b031603611394576040516346a4b5e960e01b815260040160405180910390fd5b60006113a660c0830160a08401612d75565b6001600160a01b0316036113cd57604051639b84273b60e01b815260040160405180910390fd5b426113de6060830160408401612b46565b6001600160801b03161161140557604051630dcde81360e11b815260040160405180910390fd5b61143861141860c0830160a08401612d75565b333061142a60a0860160808701612b46565b6001600160801b0316612578565b61144860a0820160808301612b46565b60ce8054600090815260d0602090815260409182902060090180546001600160801b0319166001600160801b0395909516949094179093558051610180810190915290548152908181019061149f90840184612b46565b6001600160801b031681526020018260200160208101906114c09190612b46565b6001600160801b031681526020016114de6060840160408501612b46565b6001600160801b031681526020016114fc6080840160608501612b46565b6001600160801b0316815260200161151a60a0840160808501612b46565b6001600160801b03908116825260cc548116602083015260cb5416604082015260600161154d60c0840160a08501612d75565b6001600160a01b0316815260200161156b60e0840160c08501612d75565b6001600160a01b0316815233602082015260400161158c60e08401846131aa565b8080601f016020809104026020016040519081016040528093929190818152602001838380828437600092018290525093909452505060ce54815260d060209081526040918290208451815590840151918401516001600160801b03928316600160801b918416820217600183015560608501516080860151908416908416820217600283015560a085015160c086015190841690841690910217600382015560e08401516004820180546001600160801b03191691909316179091556101008301516005820180546001600160a01b03199081166001600160a01b03938416179091556101208501516006840180548316918416919091179055610140850151600784018054909216921691909117905561016083015190915060088201906116b69082613296565b505033600090815260cf60208181526040832060ce548154600181018355918552918420015591506116ee60e0840160c08501612d75565b6001600160a01b03168152602080820192909252604001600090812060ce80548254600181018455928452939092200191909155547fe037ec30313eecdd927ffae3beed86a87b82f7bb794966ec08d75cf1a6e826869061175560e0840160c08501612d75565b604080519283526001600160a01b039091166020830152339082015260600160405180910390a160ce805490600061178c83613356565b919050555050565b61179c6124cf565b60008051602061346e8339815191526117b4816122df565b600084815260d060205260408120600981015490916001600160801b0390911690036117e2576117e2613194565b60098101805460ff60801b1916600160801b17905561180183856130a2565b6001600160801b031660641461182a57604051630ab76a2560e41b815260040160405180910390fd5b60098101546000906064906118499087906001600160801b03166130c2565b6118539190613056565b60098301549091506000906064906118759087906001600160801b03166130c2565b61187f9190613056565b6005840154600685015460405163a9059cbb60e01b81529293506001600160a01b039182169263a9059cbb926118bb9216908690600401613126565b6020604051808303816000875af11580156118da573d6000803e3d6000fd5b505050506040513d601f19601f820116820180604052508101906118fe9190613148565b506005830154600784015460405163a9059cbb60e01b81526001600160a01b039283169263a9059cbb92611939929116908590600401613126565b6020604051808303816000875af1158015611958573d6000803e3d6000fd5b505050506040513d601f19601f8201168201806040525081019061197c9190613148565b50604080518881526001600160801b03848116602083015283168183015290517fcc66abc0fd6a7a2cd2810119d6bcbcbeba5a22f087936e5105ac81e84563393c9181900360600190a150505050505050565b600081815260c9602052604081205460ff16156119eb57600080fd5b600082815260c960209081526040808320805460ff1916600117905551611a3a917f9b5039e58350b398e1e74d78733f690324b2aafee15033156b0ba14d88464610918891889188910161336f565b604051602081830303815290604052805190602001209050600060ca5482604051602001611a7f92919061190160f01b81526002810192909252602282015260420190565b60408051601f198184030181528282528051602091820120600080855291840180845281905260ff8d1692840192909252606083018b9052608083018a90529092509060019060a0016020604051602081039080840390855afa158015611aea573d6000803e3d6000fd5b5050604051601f1901519150506001600160a01b038b1615801590611b205750806001600160a01b03168b6001600160a01b0316145b9b9a5050505050505050505050565b60009182526065602090815260408084206001600160a01b0393909316845291905290205460ff1690565b60008051602061346e833981519152611b72816122df565b6105f16125b6565b611b826124cf565b600081815260d0602052604090206009810154600160901b900460ff161580611bb657506009810154600160801b900460ff165b80611bcc57506009810154600160881b900460ff165b15611bea5760405163c9c2be6d60e01b815260040160405180910390fd5b600082815260d060205260409081902060098101805460ff60881b1916600160881b17905590517fa34da6d2673f1264c5d1d4d7d5edaa12c53e8615fa6183cc1cfe6b6510637fce906109b09085815260200190565b611c486124cf565b600081815260d0602052604090206009810154600160901b900460ff161580611c7c57506009810154600160801b900460ff165b80611c9257506009810154600160881b900460ff165b15611cb05760405163c9c2be6d60e01b815260040160405180910390fd5b600082815260d06020526040902060078101546001600160a01b03163314801590611d025750611d007ffc8737ab85eb45125971625a9ebdb75cc78e01d5c1fa80c4c6e5203f47bc4fab33611b2f565b155b8015611d235750611d2160008051602061346e83398151915233611b2f565b155b15611d41576040516303135bad60e61b815260040160405180910390fd5b600083815260d06020526040902060098101546001600160801b031615611d7b576040516351f16c9360e11b815260040160405180910390fd5b60038101546009820180546001600160801b0392831692600091611da1918591166130a2565b82546101009290920a6001600160801b03818102199093169183160217909155600583015460078401546003850154611dee94506001600160a01b03928316939290911691309116612578565b6003810154604080518681526001600160801b0390921660208301527fd91647d68fadbc904f923d642788552eca006a63f0a8e08d123f6c901d963051910160405180910390a150505050565b6001600160a01b038116600090815260cf6020908152604091829020805483518184028101840190945280845260609392830182828015611e9b57602002820191906000526020600020905b815481526020019060010190808311611e87575b50505050509050919050565b60d0602090815260009182526040918290208251610180810184528154815260018201546001600160801b0380821694830194909452600160801b908190048416948201949094526002820154808416606083015284900483166080820152600382015480841660a083015293909304821660c0840152600481015490911660e083015260058101546001600160a01b03908116610100840152600682015481166101208401526007820154166101408301526008810180549192918391610160840191611f749061320e565b80601f0160208091040260200160405190810160405280929190818152602001828054611fa09061320e565b8015611fed5780601f10611fc257610100808354040283529160200191611fed565b820191906000526020600020905b815481529060010190602001808311611fd057829003601f168201915b505050919092525050604080516080810182526009909401546001600160801b038116855260ff600160801b8204811615156020870152600160881b82048116151592860192909252600160901b90041615156060840152509082565b600082815260656020526040902060010154612065816122df565b61079083836123c1565b600081815260d0602052604090206009810154600160801b900460ff16806120a257506009810154600160901b900460ff165b156120c057604051638549e3e360e01b815260040160405180910390fd5b600082815260d06020526040902060068101546001600160a01b031633146120fb576040516303135bad60e61b815260040160405180910390fd5b6001810154600160801b90046001600160801b0316421115612130576040516327d8e54760e01b815260040160405180910390fd5b60098101805460ff60901b1916600160901b17905533600090815260cf6020908152604080832060ce5481546001810183559185529290932090920155517fea49e8aa1bbaa9a7b16632ed4aba908b3c702861a23436c8356e296c228cc278906109b09085815260200190565b600081815260d06020526040812060018101546002820154600383015460048401546005850154600686015460078701546008880180548a998a998a998a998a998a998a998a998a996060996001600160801b03808a1699600160801b90819004821699808316999082900483169881841698929091048316969216946001600160a01b0391821694928216939116919081906122399061320e565b80601f01602080910402602001604051908101604052809291908181526020018280546122659061320e565b80156122b25780601f10612287576101008083540402835291602001916122b2565b820191906000526020600020905b81548152906001019060200180831161229557829003601f168201915b505050505090509b509b509b509b509b509b509b509b509b509b509b505091939597999b90929496989a50565b6105f181336125f3565b6122f161264c565b6097805460ff191690557f5db9ee0a495bf2e6ff9c91a7834c1ba4fdd244a5e8aa4e537bd38aeae4b073aa335b6040516001600160a01b03909116815260200160405180910390a1565b6123458282611b2f565b61080f5760008281526065602090815260408083206001600160a01b03851684529091529020805460ff1916600117905561237d3390565b6001600160a01b0316816001600160a01b0316837f2f8788117e7eff1d82e926ec794901d17c78024a50270940304540a733656f0d60405160405180910390a45050565b6123cb8282611b2f565b1561080f5760008281526065602090815260408083206001600160a01b0385168085529252808320805460ff1916905551339285917ff6391f5c32d9c69d2a47ea670b442974b53935d1edc7fd64eb21e047a839171b9190a45050565b600054610100900460ff1661244f5760405162461bcd60e51b815260040161065390612fb8565b565b600054610100900460ff166124785760405162461bcd60e51b815260040161065390612fb8565b6097805460ff19169055565b600082815260656020526040808220600101805490849055905190918391839186917fbd79b86ffe0ab8e8776151514217cd7cacd52c909f66475c3af44e129f0b00ff9190a4505050565b60975460ff161561244f5760405162461bcd60e51b815260206004820152601060248201526f14185d5cd8589b194e881c185d5cd95960821b6044820152606401610653565b6040516001600160a01b03831660248201526044810182905261079090849063a9059cbb60e01b906064015b60408051601f198184030181529190526020810180516001600160e01b03166001600160e01b031990931692909217909152612695565b6040516001600160a01b03808516602483015283166044820152606481018290526125b09085906323b872dd60e01b90608401612541565b50505050565b6125be6124cf565b6097805460ff191660011790557f62e78cea01bee320cd4e420270b5ea74000d11b0c9f74754ebdbfc544b05a25861231e3390565b6125fd8282611b2f565b61080f5761260a81612767565b612615836020612779565b6040516020016126269291906133af565b60408051601f198184030181529082905262461bcd60e51b825261065391600401612b17565b60975460ff1661244f5760405162461bcd60e51b815260206004820152601460248201527314185d5cd8589b194e881b9bdd081c185d5cd95960621b6044820152606401610653565b60006126ea826040518060400160405280602081526020017f5361666545524332303a206c6f772d6c6576656c2063616c6c206661696c6564815250856001600160a01b031661291c9092919063ffffffff16565b80519091501561079057808060200190518101906127089190613148565b6107905760405162461bcd60e51b815260206004820152602a60248201527f5361666545524332303a204552433230206f7065726174696f6e20646964206e6044820152691bdd081cdd58d8d9595960b21b6064820152608401610653565b60606105cb6001600160a01b03831660145b6060600061278883600261317d565b612793906002613113565b67ffffffffffffffff8111156127ab576127ab6131f8565b6040519080825280601f01601f1916602001820160405280156127d5576020820181803683370190505b509050600360fc1b816000815181106127f0576127f0613424565b60200101906001600160f81b031916908160001a905350600f60fb1b8160018151811061281f5761281f613424565b60200101906001600160f81b031916908160001a905350600061284384600261317d565b61284e906001613113565b90505b60018111156128c6576f181899199a1a9b1b9c1cb0b131b232b360811b85600f166010811061288257612882613424565b1a60f81b82828151811061289857612898613424565b60200101906001600160f81b031916908160001a90535060049490941c936128bf8161343a565b9050612851565b5083156129155760405162461bcd60e51b815260206004820181905260248201527f537472696e67733a20686578206c656e67746820696e73756666696369656e746044820152606401610653565b9392505050565b606061292b8484600085612933565b949350505050565b6060824710156129945760405162461bcd60e51b815260206004820152602660248201527f416464726573733a20696e73756666696369656e742062616c616e636520666f6044820152651c8818d85b1b60d21b6064820152608401610653565b6001600160a01b0385163b6129eb5760405162461bcd60e51b815260206004820152601d60248201527f416464726573733a2063616c6c20746f206e6f6e2d636f6e74726163740000006044820152606401610653565b600080866001600160a01b03168587604051612a079190613451565b60006040518083038185875af1925050503d8060008114612a44576040519150601f19603f3d011682016040523d82523d6000602084013e612a49565b606091505b5091509150612a59828286612a64565b979650505050505050565b60608315612a73575081612915565b825115612a835782518084602001fd5b8160405162461bcd60e51b81526004016106539190612b17565b600060208284031215612aaf57600080fd5b81356001600160e01b03198116811461291557600080fd5b60005b83811015612ae2578181015183820152602001612aca565b50506000910152565b60008151808452612b03816020860160208601612ac7565b601f01601f19169290920160200192915050565b6020815260006129156020830184612aeb565b80356001600160801b0381168114612b4157600080fd5b919050565b600060208284031215612b5857600080fd5b61291582612b2a565b600060208284031215612b7357600080fd5b5035919050565b80356001600160a01b0381168114612b4157600080fd5b60008060408385031215612ba457600080fd5b82359150612bb460208401612b7a565b90509250929050565b60008060408385031215612bd057600080fd5b612bd983612b2a565b9150612bb460208401612b7a565b60008060408385031215612bfa57600080fd5b612c0383612b7a565b946020939093013593505050565b600080600060608486031215612c2657600080fd5b83359250612c3660208501612b2a565b9150612c4460408501612b7a565b90509250925092565b600060208284031215612c5f57600080fd5b813567ffffffffffffffff811115612c7657600080fd5b8201610100818503121561291557600080fd5b600080600060608486031215612c9e57600080fd5b83359250612cae60208501612b2a565b9150612c4460408501612b2a565b600080600080600080600060c0888a031215612cd757600080fd5b612ce088612b7a565b9650602088013560ff81168114612cf657600080fd5b95506040880135945060608801359350608088013567ffffffffffffffff80821115612d2157600080fd5b818a0191508a601f830112612d3557600080fd5b813581811115612d4457600080fd5b8b6020828501011115612d5657600080fd5b60208301955080945050505060a0880135905092959891949750929550565b600060208284031215612d8757600080fd5b61291582612b7a565b6020808252825182820181905260009190848201906040850190845b81811015612dc857835183529284019291840191600101612dac565b50909695505050505050565b60a08152825160a082015260006020840151612dfb60c08401826001600160801b03169052565b5060408401516001600160801b03811660e0840152506060840151610100612e2d818501836001600160801b03169052565b60808601519150610120612e4b818601846001600160801b03169052565b60a08701519250610140612e69818701856001600160801b03169052565b60c08801519350610160612e87818801866001600160801b03169052565b60e08901519450610180612ea5818901876001600160801b03169052565b938901516001600160a01b039081166101a08901529289015183166101c0880152908801519091166101e08601528601516102008501919091529050612eef610220840182612aeb565b91505061291560208301846001600160801b0381511682526020810151151560208301526040810151151560408301526060810151151560608301525050565b6001600160801b038c811682528b811660208301528a811660408301528981166060830152888116608083015287811660a0830152861660c08201526001600160a01b0385811660e083015284811661010083015283166101208201526101606101408201819052600090612fa683820185612aeb565b9e9d5050505050505050505050505050565b6020808252602b908201527f496e697469616c697a61626c653a20636f6e7472616374206973206e6f74206960408201526a6e697469616c697a696e6760a81b606082015260800190565b634e487b7160e01b600052601160045260246000fd5b6001600160801b0382811682821603908082111561303957613039613003565b5092915050565b634e487b7160e01b600052601260045260246000fd5b60006001600160801b038084168061307057613070613040565b92169190910492915050565b60006001600160801b038084168061309657613096613040565b92169190910692915050565b6001600160801b0381811683821601908082111561303957613039613003565b6001600160801b038181168382160280821691908281146130e5576130e5613003565b505092915050565b60006001600160801b0380831681810361310957613109613003565b6001019392505050565b808201808211156105cb576105cb613003565b6001600160a01b039290921682526001600160801b0316602082015260400190565b60006020828403121561315a57600080fd5b8151801515811461291557600080fd5b818103818111156105cb576105cb613003565b80820281158282048414176105cb576105cb613003565b634e487b7160e01b600052600160045260246000fd5b6000808335601e198436030181126131c157600080fd5b83018035915067ffffffffffffffff8211156131dc57600080fd5b6020019150368190038213156131f157600080fd5b9250929050565b634e487b7160e01b600052604160045260246000fd5b600181811c9082168061322257607f821691505b60208210810361324257634e487b7160e01b600052602260045260246000fd5b50919050565b601f82111561079057600081815260208120601f850160051c8101602086101561326f5750805b601f850160051c820191505b8181101561328e5782815560010161327b565b505050505050565b815167ffffffffffffffff8111156132b0576132b06131f8565b6132c4816132be845461320e565b84613248565b602080601f8311600181146132f957600084156132e15750858301515b600019600386901b1c1916600185901b17855561328e565b600085815260208120601f198616915b8281101561332857888601518255948401946001909101908401613309565b50858210156133465787850151600019600388901b60f8161c191681555b5050505050600190811b01905550565b60006001820161336857613368613003565b5060010190565b848152606060208201528260608201528284608083013760006080848301015260006080601f19601f860116830101905082604083015295945050505050565b7f416363657373436f6e74726f6c3a206163636f756e74200000000000000000008152600083516133e7816017850160208801612ac7565b7001034b99036b4b9b9b4b733903937b6329607d1b6017918401918201528351613418816028840160208801612ac7565b01602801949350505050565b634e487b7160e01b600052603260045260246000fd5b60008161344957613449613003565b506000190190565b60008251613463818460208701612ac7565b919091019291505056fe71840dc4906352362b0cdaf79870196c8e42acafade72d5d5a6d59291253ceb1a2646970667358221220caa98cc04c50d0a9c9584e46e3e9d35e7c25844cd194e67133cb787b0ae10f8b64736f6c63430008110033",
  "devdoc": {
    "kind": "dev",
    "methods": {
      "activateAgreement(uint256)": {
        "details": "The agreement needs to be created, inactive and the funds for the first cycle set",
        "params": {
          "agreementID": "The ID of the agreement to activate"
        }
      },
      "cancelAgreement(uint256)": {
        "details": "only callable by the contractee",
        "params": {
          "agreementID": "The ID of the agreement"
        }
      },
      "challengeAgreement(uint256)": {
        "params": {
          "agreementID": "The ID of the agreement"
        }
      },
      "claimProtocolFees(uint256,uint128,address)": {
        "params": {
          "agreementID": "The identifier of the agreement",
          "amount": "The amount of tokens claimed",
          "to": "The address receiving the fees*"
        }
      },
      "createAgreement((uint128,uint128,uint128,uint128,uint128,address,address,string))": {
        "details": "The agreement default state is inactive, it needs to be activated by the contractor",
        "params": {
          "params": "The parameters of the agreement"
        }
      },
      "getAgreementParameters(uint256)": {
        "details": "an agreement can be not active because it has not been activated or because it is closed",
        "params": {
          "agreementID": "The ID of the agreement"
        },
        "returns": {
          "acceptanceDeadline": "The timestamp the contractor can no longer accept the agreement",
          "beginningDate": "The beginning date of the agreement",
          "contractee": "The address of the contractee",
          "contractor": "The address of the contractor",
          "descriptionURI": "The URI of the agreement description",
          "establishmentFeeRate_": "The rate of the establishment fee",
          "maturityDate": "The date when the agreement expires",
          "paymentCycleAmount": "The amount of tokens to be released per payment cycle",
          "paymentCycleDuration": "The duration of a payment cycle",
          "penalizationAmount_": "The amount of tokens that will be kept in case of a penalization",
          "underlayingToken": "The address of the token used for the agreement"
        }
      },
      "getAgreementState(uint256)": {
        "params": {
          "active": "Whether the agreement is active",
          "agreementID": "The ID of the agreement",
          "challenged": "Whether the agreement is challenged",
          "closed": "Whether the agreement is closed",
          "escrowedFunds": "The amount of funds escrowed in the agreement"
        }
      },
      "getRoleAdmin(bytes32)": {
        "details": "Returns the admin role that controls `role`. See {grantRole} and {revokeRole}. To change a role's admin, use {_setRoleAdmin}."
      },
      "getUserAgreements(address)": {
        "params": {
          "user": "The address of the user"
        },
        "returns": {
          "_0": "agreementIDs The IDs of the agreements"
        }
      },
      "grantRole(bytes32,address)": {
        "details": "Grants `role` to `account`. If `account` had not been already granted `role`, emits a {RoleGranted} event. Requirements: - the caller must have ``role``'s admin role. May emit a {RoleGranted} event."
      },
      "hasRole(bytes32,address)": {
        "details": "Returns `true` if `account` has been granted `role`."
      },
      "migrateFunds(uint256)": {
        "details": "Only the keeper or contractee can call this functionA for loop is used to calculate the migration periods instead of storing them on chain to reduce gas costsIf there is a remainder, the last migration period will be shorter than the others and fall on the maturity date",
        "params": {
          "agreementID": "The ID of the agreement to release the funds for"
        }
      },
      "paused()": {
        "details": "Returns true if the contract is paused, and false otherwise."
      },
      "renounceRole(bytes32,address)": {
        "details": "Revokes `role` from the calling account. Roles are often managed via {grantRole} and {revokeRole}: this function's purpose is to provide a mechanism for accounts to lose their privileges if they are compromised (such as when a trusted device is misplaced). If the calling account had been revoked `role`, emits a {RoleRevoked} event. Requirements: - the caller must be `account`. May emit a {RoleRevoked} event."
      },
      "revokeRole(bytes32,address)": {
        "details": "Revokes `role` from `account`. If `account` had been granted `role`, emits a {RoleRevoked} event. Requirements: - the caller must have ``role``'s admin role. May emit a {RoleRevoked} event."
      },
      "setChallengeDuration(uint128)": {
        "params": {
          "challengeDuration_": "The new challenge duration"
        }
      },
      "setEstablishmentFeeRate(uint128)": {
        "params": {
          "establishmentFeeRate_": "The new establishment fee rate"
        }
      },
      "setPenalizationAmount(uint128)": {
        "params": {
          "penalizationAmount_": "The new penalization amount"
        }
      },
      "splitFunds(uint256,uint128,uint128)": {
        "details": "Only integers can be passed as pecentages. The function does't calculate for decimal points",
        "params": {
          "agreementID": "The ID of the agreement",
          "contracteePercentage": "The percentage of the escrowed funds to be released to the contractee",
          "contractorPercentage": "The percentage of the escrowed funds to be released to the contractor"
        }
      },
      "supportsInterface(bytes4)": {
        "details": "See {IERC165-supportsInterface}."
      }
    },
    "version": 1
  },
  "userdoc": {
    "events": {
      "AgreementActivated(uint256)": {
        "notice": "Emitted after a agreement was activated"
      },
      "AgreementCancelled(uint256)": {
        "notice": "Emitted after a agreement was cancelled"
      },
      "AgreementChallenged(uint256)": {
        "notice": "Emitted after an agreement was challenged"
      },
      "AgreementCreated(uint256,address,address)": {
        "notice": "Emitted after a event was creted"
      },
      "FundsDeposited(uint256,uint128)": {
        "notice": "Emitted after funds are deposited for the upcoming cycle"
      },
      "FundsMigrated(uint256,uint128)": {
        "notice": "Emitted after funds were migrated"
      },
      "FundsSplitted(uint256,uint128,uint128)": {
        "notice": "Emitted after the escrowd funds for an agreement were splitted"
      }
    },
    "kind": "user",
    "methods": {
      "activateAgreement(uint256)": {
        "notice": "Activates an agreement"
      },
      "cancelAgreement(uint256)": {
        "notice": "Closes an agreement and releases the escrowed funds accordingly to the agreement state"
      },
      "challengeAgreement(uint256)": {
        "notice": "Sets the agreement state to challenged and emmits an event that will be captured by the Contractful DAO( currently a multisig)"
      },
      "claimProtocolFees(uint256,uint128,address)": {
        "notice": "Withdraws protocol fees to a target address"
      },
      "createAgreement((uint128,uint128,uint128,uint128,uint128,address,address,string))": {
        "notice": "Creates a new agreement"
      },
      "freezeAgreements()": {
        "notice": "Stops all actions on all agreements*"
      },
      "getAgreementParameters(uint256)": {
        "notice": "Returns the parameters of an agreement"
      },
      "getAgreementState(uint256)": {
        "notice": "Returns the state of an agreement"
      },
      "getUserAgreements(address)": {
        "notice": "Returns the user agreements"
      },
      "migrateFunds(uint256)": {
        "notice": "Releases the funds for the current payment cycle"
      },
      "setChallengeDuration(uint128)": {
        "notice": "Sets the challenge duration for all agreements"
      },
      "setEstablishmentFeeRate(uint128)": {
        "notice": "Set the establishment protocol fee rate"
      },
      "setPenalizationAmount(uint128)": {
        "notice": "Set the penalization amount for the protocol"
      },
      "splitFunds(uint256,uint128,uint128)": {
        "notice": "Releases the escrowed funds accordingly to the percentages passed as parametersFor the moment the function is only callable by governance wich is a multisig wallet. However in the future it will only be callable by the Contractful DAO"
      },
      "unfreezeAgreements()": {
        "notice": "Cancel a freeze, makes actions available again on all agreements*"
      },
      "validateDescription(address,uint8,bytes32,bytes32,string,uint256)": {
        "notice": "checks whether the signer signed the description"
      }
    },
    "version": 1
  },
  "storageLayout": {
    "storage": [
      {
        "astId": 415,
        "contract": "src/Manager.sol:Manager",
        "label": "_initialized",
        "offset": 0,
        "slot": "0",
        "type": "t_uint8"
      },
      {
        "astId": 418,
        "contract": "src/Manager.sol:Manager",
        "label": "_initializing",
        "offset": 1,
        "slot": "0",
        "type": "t_bool"
      },
      {
        "astId": 1029,
        "contract": "src/Manager.sol:Manager",
        "label": "__gap",
        "offset": 0,
        "slot": "1",
        "type": "t_array(t_uint256)50_storage"
      },
      {
        "astId": 1248,
        "contract": "src/Manager.sol:Manager",
        "label": "__gap",
        "offset": 0,
        "slot": "51",
        "type": "t_array(t_uint256)50_storage"
      },
      {
        "astId": 39,
        "contract": "src/Manager.sol:Manager",
        "label": "_roles",
        "offset": 0,
        "slot": "101",
        "type": "t_mapping(t_bytes32,t_struct(RoleData)34_storage)"
      },
      {
        "astId": 334,
        "contract": "src/Manager.sol:Manager",
        "label": "__gap",
        "offset": 0,
        "slot": "102",
        "type": "t_array(t_uint256)49_storage"
      },
      {
        "astId": 598,
        "contract": "src/Manager.sol:Manager",
        "label": "_paused",
        "offset": 0,
        "slot": "151",
        "type": "t_bool"
      },
      {
        "astId": 703,
        "contract": "src/Manager.sol:Manager",
        "label": "__gap",
        "offset": 0,
        "slot": "152",
        "type": "t_array(t_uint256)49_storage"
      },
      {
        "astId": 12796,
        "contract": "src/Manager.sol:Manager",
        "label": "usedNonces",
        "offset": 0,
        "slot": "201",
        "type": "t_mapping(t_uint256,t_bool)"
      },
      {
        "astId": 12798,
        "contract": "src/Manager.sol:Manager",
        "label": "DOMAIN_SEPARATOR",
        "offset": 0,
        "slot": "202",
        "type": "t_bytes32"
      },
      {
        "astId": 11528,
        "contract": "src/Manager.sol:Manager",
        "label": "penalizationAmount",
        "offset": 0,
        "slot": "203",
        "type": "t_uint128"
      },
      {
        "astId": 11530,
        "contract": "src/Manager.sol:Manager",
        "label": "challengeDuration",
        "offset": 16,
        "slot": "203",
        "type": "t_uint128"
      },
      {
        "astId": 11532,
        "contract": "src/Manager.sol:Manager",
        "label": "establishmentFeeRate",
        "offset": 0,
        "slot": "204",
        "type": "t_uint128"
      },
      {
        "astId": 11535,
        "contract": "src/Manager.sol:Manager",
        "label": "accruedEstablishmentFee",
        "offset": 0,
        "slot": "205",
        "type": "t_uint256"
      },
      {
        "astId": 11538,
        "contract": "src/Manager.sol:Manager",
        "label": "agreementNonce",
        "offset": 0,
        "slot": "206",
        "type": "t_uint256"
      },
      {
        "astId": 11543,
        "contract": "src/Manager.sol:Manager",
        "label": "userAgreements",
        "offset": 0,
        "slot": "207",
        "type": "t_mapping(t_address,t_array(t_uint256)dyn_storage)"
      },
      {
        "astId": 11548,
        "contract": "src/Manager.sol:Manager",
        "label": "agreements",
        "offset": 0,
        "slot": "208",
        "type": "t_mapping(t_uint256,t_struct(Agreement)13173_storage)"
      }
    ],
    "types": {
      "t_address": {
        "encoding": "inplace",
        "label": "address",
        "numberOfBytes": "20"
      },
      "t_array(t_uint256)49_storage": {
        "base": "t_uint256",
        "encoding": "inplace",
        "label": "uint256[49]",
        "numberOfBytes": "1568"
      },
      "t_array(t_uint256)50_storage": {
        "base": "t_uint256",
        "encoding": "inplace",
        "label": "uint256[50]",
        "numberOfBytes": "1600"
      },
      "t_array(t_uint256)dyn_storage": {
        "base": "t_uint256",
        "encoding": "dynamic_array",
        "label": "uint256[]",
        "numberOfBytes": "32"
      },
      "t_bool": {
        "encoding": "inplace",
        "label": "bool",
        "numberOfBytes": "1"
      },
      "t_bytes32": {
        "encoding": "inplace",
        "label": "bytes32",
        "numberOfBytes": "32"
      },
      "t_mapping(t_address,t_array(t_uint256)dyn_storage)": {
        "encoding": "mapping",
        "key": "t_address",
        "label": "mapping(address => uint256[])",
        "numberOfBytes": "32",
        "value": "t_array(t_uint256)dyn_storage"
      },
      "t_mapping(t_address,t_bool)": {
        "encoding": "mapping",
        "key": "t_address",
        "label": "mapping(address => bool)",
        "numberOfBytes": "32",
        "value": "t_bool"
      },
      "t_mapping(t_bytes32,t_struct(RoleData)34_storage)": {
        "encoding": "mapping",
        "key": "t_bytes32",
        "label": "mapping(bytes32 => struct AccessControlUpgradeable.RoleData)",
        "numberOfBytes": "32",
        "value": "t_struct(RoleData)34_storage"
      },
      "t_mapping(t_uint256,t_bool)": {
        "encoding": "mapping",
        "key": "t_uint256",
        "label": "mapping(uint256 => bool)",
        "numberOfBytes": "32",
        "value": "t_bool"
      },
      "t_mapping(t_uint256,t_struct(Agreement)13173_storage)": {
        "encoding": "mapping",
        "key": "t_uint256",
        "label": "mapping(uint256 => struct Types.Agreement)",
        "numberOfBytes": "32",
        "value": "t_struct(Agreement)13173_storage"
      },
      "t_string_storage": {
        "encoding": "bytes",
        "label": "string",
        "numberOfBytes": "32"
      },
      "t_struct(Agreement)13173_storage": {
        "encoding": "inplace",
        "label": "struct Types.Agreement",
        "members": [
          {
            "astId": 13169,
            "contract": "src/Manager.sol:Manager",
            "label": "parameters",
            "offset": 0,
            "slot": "0",
            "type": "t_struct(AgreementParameters)13157_storage"
          },
          {
            "astId": 13172,
            "contract": "src/Manager.sol:Manager",
            "label": "state",
            "offset": 0,
            "slot": "9",
            "type": "t_struct(AgreementState)13166_storage"
          }
        ],
        "numberOfBytes": "320"
      },
      "t_struct(AgreementParameters)13157_storage": {
        "encoding": "inplace",
        "label": "struct Types.AgreementParameters",
        "members": [
          {
            "astId": 13134,
            "contract": "src/Manager.sol:Manager",
            "label": "AGREEMENT_ID",
            "offset": 0,
            "slot": "0",
            "type": "t_uint256"
          },
          {
            "astId": 13136,
            "contract": "src/Manager.sol:Manager",
            "label": "BEGINNING_DATE",
            "offset": 0,
            "slot": "1",
            "type": "t_uint128"
          },
          {
            "astId": 13138,
            "contract": "src/Manager.sol:Manager",
            "label": "ACCEPTANCE_DEADLINE",
            "offset": 16,
            "slot": "1",
            "type": "t_uint128"
          },
          {
            "astId": 13140,
            "contract": "src/Manager.sol:Manager",
            "label": "MATURITY_DATE",
            "offset": 0,
            "slot": "2",
            "type": "t_uint128"
          },
          {
            "astId": 13142,
            "contract": "src/Manager.sol:Manager",
            "label": "PAYMENT_CYCLE_DURATION",
            "offset": 16,
            "slot": "2",
            "type": "t_uint128"
          },
          {
            "astId": 13144,
            "contract": "src/Manager.sol:Manager",
            "label": "PAYMENT_CYCLE_AMOUNT",
            "offset": 0,
            "slot": "3",
            "type": "t_uint128"
          },
          {
            "astId": 13146,
            "contract": "src/Manager.sol:Manager",
            "label": "ESTABLISHMENT_FEE_RATE",
            "offset": 16,
            "slot": "3",
            "type": "t_uint128"
          },
          {
            "astId": 13148,
            "contract": "src/Manager.sol:Manager",
            "label": "PENALIZATION_AMOUNT",
            "offset": 0,
            "slot": "4",
            "type": "t_uint128"
          },
          {
            "astId": 13150,
            "contract": "src/Manager.sol:Manager",
            "label": "UNDERLAYING_TOKEN",
            "offset": 0,
            "slot": "5",
            "type": "t_address"
          },
          {
            "astId": 13152,
            "contract": "src/Manager.sol:Manager",
            "label": "CONTRACTOR",
            "offset": 0,
            "slot": "6",
            "type": "t_address"
          },
          {
            "astId": 13154,
            "contract": "src/Manager.sol:Manager",
            "label": "CONTRACTEE",
            "offset": 0,
            "slot": "7",
            "type": "t_address"
          },
          {
            "astId": 13156,
            "contract": "src/Manager.sol:Manager",
            "label": "DESCRIPTION_URI",
            "offset": 0,
            "slot": "8",
            "type": "t_string_storage"
          }
        ],
        "numberOfBytes": "288"
      },
      "t_struct(AgreementState)13166_storage": {
        "encoding": "inplace",
        "label": "struct Types.AgreementState",
        "members": [
          {
            "astId": 13159,
            "contract": "src/Manager.sol:Manager",
            "label": "escrowedFunds",
            "offset": 0,
            "slot": "0",
            "type": "t_uint128"
          },
          {
            "astId": 13161,
            "contract": "src/Manager.sol:Manager",
            "label": "closed",
            "offset": 16,
            "slot": "0",
            "type": "t_bool"
          },
          {
            "astId": 13163,
            "contract": "src/Manager.sol:Manager",
            "label": "challenged",
            "offset": 17,
            "slot": "0",
            "type": "t_bool"
          },
          {
            "astId": 13165,
            "contract": "src/Manager.sol:Manager",
            "label": "active",
            "offset": 18,
            "slot": "0",
            "type": "t_bool"
          }
        ],
        "numberOfBytes": "32"
      },
      "t_struct(RoleData)34_storage": {
        "encoding": "inplace",
        "label": "struct AccessControlUpgradeable.RoleData",
        "members": [
          {
            "astId": 31,
            "contract": "src/Manager.sol:Manager",
            "label": "members",
            "offset": 0,
            "slot": "0",
            "type": "t_mapping(t_address,t_bool)"
          },
          {
            "astId": 33,
            "contract": "src/Manager.sol:Manager",
            "label": "adminRole",
            "offset": 0,
            "slot": "1",
            "type": "t_bytes32"
          }
        ],
        "numberOfBytes": "64"
      },
      "t_uint128": {
        "encoding": "inplace",
        "label": "uint128",
        "numberOfBytes": "16"
      },
      "t_uint256": {
        "encoding": "inplace",
        "label": "uint256",
        "numberOfBytes": "32"
      },
      "t_uint8": {
        "encoding": "inplace",
        "label": "uint8",
        "numberOfBytes": "1"
      }
    }
  }
}