{
  "address": "0xbf33Cf785a4517b556705626705c04611364C98E",
  "abi": [
    {
      "inputs": [],
      "name": "MG_ADDRESS_ZERO",
      "type": "error"
    },
    {
      "inputs": [],
      "name": "MG_AGREEMENT_NOT_PENDING",
      "type": "error"
    },
    {
      "inputs": [],
      "name": "MG_AMOUNT_TOO_HIGH",
      "type": "error"
    },
    {
      "inputs": [],
      "name": "MG_CONTRACTOR_EQUALS_CONTRACTEE",
      "type": "error"
    },
    {
      "inputs": [],
      "name": "MG_FUNDS_ALREADY_SECURED",
      "type": "error"
    },
    {
      "inputs": [],
      "name": "MG_INVALID_MATURITY_DATE",
      "type": "error"
    },
    {
      "inputs": [],
      "name": "MG_INVALID_MIGRATION_PERIOD",
      "type": "error"
    },
    {
      "inputs": [],
      "name": "MG_INVALID_PERCENTAGES",
      "type": "error"
    },
    {
      "inputs": [],
      "name": "MG_INVALID_TOKEN",
      "type": "error"
    },
    {
      "inputs": [],
      "name": "MG_NOT_ONGOING",
      "type": "error"
    },
    {
      "inputs": [],
      "name": "MG_PAST_BEGINNING_DATE",
      "type": "error"
    },
    {
      "inputs": [],
      "name": "MG_UNAUTHORIZED",
      "type": "error"
    },
    {
      "anonymous": false,
      "inputs": [
        {
          "indexed": false,
          "internalType": "uint256",
          "name": "agreementID",
          "type": "uint256"
        }
      ],
      "name": "AgreementActivated",
      "type": "event"
    },
    {
      "anonymous": false,
      "inputs": [
        {
          "indexed": false,
          "internalType": "uint256",
          "name": "agreementID",
          "type": "uint256"
        }
      ],
      "name": "AgreementCancelled",
      "type": "event"
    },
    {
      "anonymous": false,
      "inputs": [
        {
          "indexed": false,
          "internalType": "uint256",
          "name": "agreementID",
          "type": "uint256"
        }
      ],
      "name": "AgreementChallenged",
      "type": "event"
    },
    {
      "anonymous": false,
      "inputs": [
        {
          "indexed": false,
          "internalType": "uint256",
          "name": "agreementID",
          "type": "uint256"
        },
        {
          "indexed": false,
          "internalType": "address",
          "name": "contractor",
          "type": "address"
        },
        {
          "indexed": false,
          "internalType": "address",
          "name": "contractee",
          "type": "address"
        }
      ],
      "name": "AgreementCreated",
      "type": "event"
    },
    {
      "anonymous": false,
      "inputs": [
        {
          "indexed": false,
          "internalType": "uint256",
          "name": "agreement",
          "type": "uint256"
        },
        {
          "indexed": false,
          "internalType": "uint128",
          "name": "amount",
          "type": "uint128"
        }
      ],
      "name": "FundsDeposited",
      "type": "event"
    },
    {
      "anonymous": false,
      "inputs": [
        {
          "indexed": false,
          "internalType": "uint256",
          "name": "agreement",
          "type": "uint256"
        },
        {
          "indexed": false,
          "internalType": "uint128",
          "name": "amount",
          "type": "uint128"
        }
      ],
      "name": "FundsMigrated",
      "type": "event"
    },
    {
      "anonymous": false,
      "inputs": [
        {
          "indexed": false,
          "internalType": "uint256",
          "name": "agreementID",
          "type": "uint256"
        },
        {
          "indexed": false,
          "internalType": "uint128",
          "name": "contractorAmount",
          "type": "uint128"
        },
        {
          "indexed": false,
          "internalType": "uint128",
          "name": "contracteeAmount",
          "type": "uint128"
        }
      ],
      "name": "FundsSplitted",
      "type": "event"
    },
    {
      "anonymous": false,
      "inputs": [
        {
          "indexed": false,
          "internalType": "uint8",
          "name": "version",
          "type": "uint8"
        }
      ],
      "name": "Initialized",
      "type": "event"
    },
    {
      "anonymous": false,
      "inputs": [
        {
          "indexed": false,
          "internalType": "address",
          "name": "account",
          "type": "address"
        }
      ],
      "name": "Paused",
      "type": "event"
    },
    {
      "anonymous": false,
      "inputs": [
        {
          "indexed": true,
          "internalType": "bytes32",
          "name": "role",
          "type": "bytes32"
        },
        {
          "indexed": true,
          "internalType": "bytes32",
          "name": "previousAdminRole",
          "type": "bytes32"
        },
        {
          "indexed": true,
          "internalType": "bytes32",
          "name": "newAdminRole",
          "type": "bytes32"
        }
      ],
      "name": "RoleAdminChanged",
      "type": "event"
    },
    {
      "anonymous": false,
      "inputs": [
        {
          "indexed": true,
          "internalType": "bytes32",
          "name": "role",
          "type": "bytes32"
        },
        {
          "indexed": true,
          "internalType": "address",
          "name": "account",
          "type": "address"
        },
        {
          "indexed": true,
          "internalType": "address",
          "name": "sender",
          "type": "address"
        }
      ],
      "name": "RoleGranted",
      "type": "event"
    },
    {
      "anonymous": false,
      "inputs": [
        {
          "indexed": true,
          "internalType": "bytes32",
          "name": "role",
          "type": "bytes32"
        },
        {
          "indexed": true,
          "internalType": "address",
          "name": "account",
          "type": "address"
        },
        {
          "indexed": true,
          "internalType": "address",
          "name": "sender",
          "type": "address"
        }
      ],
      "name": "RoleRevoked",
      "type": "event"
    },
    {
      "anonymous": false,
      "inputs": [
        {
          "indexed": false,
          "internalType": "address",
          "name": "account",
          "type": "address"
        }
      ],
      "name": "Unpaused",
      "type": "event"
    },
    {
      "inputs": [],
      "name": "DEFAULT_ADMIN_ROLE",
      "outputs": [
        {
          "internalType": "bytes32",
          "name": "",
          "type": "bytes32"
        }
      ],
      "stateMutability": "view",
      "type": "function"
    },
    {
      "inputs": [],
      "name": "DOMAIN_SEPARATOR",
      "outputs": [
        {
          "internalType": "bytes32",
          "name": "",
          "type": "bytes32"
        }
      ],
      "stateMutability": "view",
      "type": "function"
    },
    {
      "inputs": [
        {
          "internalType": "uint256",
          "name": "agreementID",
          "type": "uint256"
        }
      ],
      "name": "activateAgreement",
      "outputs": [],
      "stateMutability": "nonpayable",
      "type": "function"
    },
    {
      "inputs": [],
      "name": "agreementNonce",
      "outputs": [
        {
          "internalType": "uint256",
          "name": "",
          "type": "uint256"
        }
      ],
      "stateMutability": "view",
      "type": "function"
    },
    {
      "inputs": [
        {
          "internalType": "uint256",
          "name": "",
          "type": "uint256"
        }
      ],
      "name": "agreements",
      "outputs": [
        {
          "components": [
            {
              "internalType": "uint256",
              "name": "AGREEMENT_ID",
              "type": "uint256"
            },
            {
              "internalType": "uint128",
              "name": "BEGINNING_DATE",
              "type": "uint128"
            },
            {
              "internalType": "uint128",
              "name": "MATURITY_DATE",
              "type": "uint128"
            },
            {
              "internalType": "uint128",
              "name": "PAYMENT_CYCLE_DURATION",
              "type": "uint128"
            },
            {
              "internalType": "uint128",
              "name": "PAYMENT_CYCLE_AMOUNT",
              "type": "uint128"
            },
            {
              "internalType": "uint128",
              "name": "ESTABLISHMENT_FEE_RATE",
              "type": "uint128"
            },
            {
              "internalType": "uint128",
              "name": "PENALIZATION_AMOUNT",
              "type": "uint128"
            },
            {
              "internalType": "address",
              "name": "UNDERLAYING_TOKEN",
              "type": "address"
            },
            {
              "internalType": "address",
              "name": "CONTRACTOR",
              "type": "address"
            },
            {
              "internalType": "address",
              "name": "CONTRACTEE",
              "type": "address"
            },
            {
              "internalType": "string",
              "name": "DESCRIPTION_URI",
              "type": "string"
            }
          ],
          "internalType": "struct Types.AgreementParameters",
          "name": "parameters",
          "type": "tuple"
        },
        {
          "components": [
            {
              "internalType": "uint128",
              "name": "escrowedFunds",
              "type": "uint128"
            },
            {
              "internalType": "bool",
              "name": "closed",
              "type": "bool"
            },
            {
              "internalType": "bool",
              "name": "challenged",
              "type": "bool"
            },
            {
              "internalType": "bool",
              "name": "active",
              "type": "bool"
            }
          ],
          "internalType": "struct Types.AgreementState",
          "name": "state",
          "type": "tuple"
        }
      ],
      "stateMutability": "view",
      "type": "function"
    },
    {
      "inputs": [
        {
          "internalType": "uint256",
          "name": "agreementID",
          "type": "uint256"
        }
      ],
      "name": "cancelAgreement",
      "outputs": [],
      "stateMutability": "nonpayable",
      "type": "function"
    },
    {
      "inputs": [
        {
          "internalType": "uint256",
          "name": "agreementID",
          "type": "uint256"
        }
      ],
      "name": "challengeAgreement",
      "outputs": [],
      "stateMutability": "nonpayable",
      "type": "function"
    },
    {
      "inputs": [],
      "name": "challengeDuration",
      "outputs": [
        {
          "internalType": "uint128",
          "name": "",
          "type": "uint128"
        }
      ],
      "stateMutability": "view",
      "type": "function"
    },
    {
      "inputs": [
        {
          "internalType": "uint256",
          "name": "agreementID",
          "type": "uint256"
        },
        {
          "internalType": "uint128",
          "name": "amount",
          "type": "uint128"
        },
        {
          "internalType": "address",
          "name": "to",
          "type": "address"
        }
      ],
      "name": "claimProtocolFees",
      "outputs": [],
      "stateMutability": "nonpayable",
      "type": "function"
    },
    {
      "inputs": [
        {
          "components": [
            {
              "internalType": "uint128",
              "name": "beginningDate",
              "type": "uint128"
            },
            {
              "internalType": "uint128",
              "name": "maturityDate",
              "type": "uint128"
            },
            {
              "internalType": "uint128",
              "name": "paymentCycleDuration",
              "type": "uint128"
            },
            {
              "internalType": "uint128",
              "name": "paymentCycleAmount",
              "type": "uint128"
            },
            {
              "internalType": "address",
              "name": "underlayingToken",
              "type": "address"
            },
            {
              "internalType": "address",
              "name": "contractor",
              "type": "address"
            },
            {
              "internalType": "string",
              "name": "descriptionURI",
              "type": "string"
            }
          ],
          "internalType": "struct IManager.AgreementCreationParams",
          "name": "params",
          "type": "tuple"
        }
      ],
      "name": "createAgreement",
      "outputs": [],
      "stateMutability": "nonpayable",
      "type": "function"
    },
    {
      "inputs": [
        {
          "internalType": "uint256",
          "name": "agreementID",
          "type": "uint256"
        }
      ],
      "name": "depositFundsForNextCycle",
      "outputs": [],
      "stateMutability": "nonpayable",
      "type": "function"
    },
    {
      "inputs": [],
      "name": "establishmentFeeRate",
      "outputs": [
        {
          "internalType": "uint128",
          "name": "",
          "type": "uint128"
        }
      ],
      "stateMutability": "view",
      "type": "function"
    },
    {
      "inputs": [],
      "name": "freezeAgreements",
      "outputs": [],
      "stateMutability": "nonpayable",
      "type": "function"
    },
    {
      "inputs": [
        {
          "internalType": "uint256",
          "name": "agreementID",
          "type": "uint256"
        }
      ],
      "name": "getAgreementParameters",
      "outputs": [
        {
          "internalType": "uint128",
          "name": "beginningDate",
          "type": "uint128"
        },
        {
          "internalType": "uint128",
          "name": "maturityDate",
          "type": "uint128"
        },
        {
          "internalType": "uint128",
          "name": "paymentCycleDuration",
          "type": "uint128"
        },
        {
          "internalType": "uint128",
          "name": "paymentCycleAmount",
          "type": "uint128"
        },
        {
          "internalType": "uint128",
          "name": "establishmentFeeRate_",
          "type": "uint128"
        },
        {
          "internalType": "uint128",
          "name": "penalizationAmount_",
          "type": "uint128"
        },
        {
          "internalType": "address",
          "name": "underlayingToken",
          "type": "address"
        },
        {
          "internalType": "address",
          "name": "contractor",
          "type": "address"
        },
        {
          "internalType": "address",
          "name": "contractee",
          "type": "address"
        },
        {
          "internalType": "string",
          "name": "descriptionURI",
          "type": "string"
        }
      ],
      "stateMutability": "view",
      "type": "function"
    },
    {
      "inputs": [
        {
          "internalType": "uint256",
          "name": "agreementID",
          "type": "uint256"
        }
      ],
      "name": "getAgreementState",
      "outputs": [
        {
          "internalType": "uint128",
          "name": "escrowedFunds",
          "type": "uint128"
        },
        {
          "internalType": "bool",
          "name": "closed",
          "type": "bool"
        },
        {
          "internalType": "bool",
          "name": "challenged",
          "type": "bool"
        },
        {
          "internalType": "bool",
          "name": "active",
          "type": "bool"
        }
      ],
      "stateMutability": "view",
      "type": "function"
    },
    {
      "inputs": [
        {
          "internalType": "bytes32",
          "name": "role",
          "type": "bytes32"
        }
      ],
      "name": "getRoleAdmin",
      "outputs": [
        {
          "internalType": "bytes32",
          "name": "",
          "type": "bytes32"
        }
      ],
      "stateMutability": "view",
      "type": "function"
    },
    {
      "inputs": [
        {
          "internalType": "address",
          "name": "user",
          "type": "address"
        }
      ],
      "name": "getUserAgreements",
      "outputs": [
        {
          "internalType": "uint256[]",
          "name": "",
          "type": "uint256[]"
        }
      ],
      "stateMutability": "view",
      "type": "function"
    },
    {
      "inputs": [
        {
          "internalType": "bytes32",
          "name": "role",
          "type": "bytes32"
        },
        {
          "internalType": "address",
          "name": "account",
          "type": "address"
        }
      ],
      "name": "grantRole",
      "outputs": [],
      "stateMutability": "nonpayable",
      "type": "function"
    },
    {
      "inputs": [
        {
          "internalType": "bytes32",
          "name": "role",
          "type": "bytes32"
        },
        {
          "internalType": "address",
          "name": "account",
          "type": "address"
        }
      ],
      "name": "hasRole",
      "outputs": [
        {
          "internalType": "bool",
          "name": "",
          "type": "bool"
        }
      ],
      "stateMutability": "view",
      "type": "function"
    },
    {
      "inputs": [
        {
          "internalType": "uint128",
          "name": "challengeDuration_",
          "type": "uint128"
        },
        {
          "internalType": "address",
          "name": "governance_",
          "type": "address"
        }
      ],
      "name": "initialize",
      "outputs": [],
      "stateMutability": "nonpayable",
      "type": "function"
    },
    {
      "inputs": [],
      "name": "initialize_",
      "outputs": [],
      "stateMutability": "nonpayable",
      "type": "function"
    },
    {
      "inputs": [
        {
          "internalType": "uint256",
          "name": "agreementID",
          "type": "uint256"
        }
      ],
      "name": "migrateFunds",
      "outputs": [],
      "stateMutability": "nonpayable",
      "type": "function"
    },
    {
      "inputs": [],
      "name": "name",
      "outputs": [
        {
          "internalType": "string",
          "name": "",
          "type": "string"
        }
      ],
      "stateMutability": "view",
      "type": "function"
    },
    {
      "inputs": [],
      "name": "paused",
      "outputs": [
        {
          "internalType": "bool",
          "name": "",
          "type": "bool"
        }
      ],
      "stateMutability": "view",
      "type": "function"
    },
    {
      "inputs": [],
      "name": "penalizationAmount",
      "outputs": [
        {
          "internalType": "uint128",
          "name": "",
          "type": "uint128"
        }
      ],
      "stateMutability": "view",
      "type": "function"
    },
    {
      "inputs": [
        {
          "internalType": "bytes32",
          "name": "role",
          "type": "bytes32"
        },
        {
          "internalType": "address",
          "name": "account",
          "type": "address"
        }
      ],
      "name": "renounceRole",
      "outputs": [],
      "stateMutability": "nonpayable",
      "type": "function"
    },
    {
      "inputs": [
        {
          "internalType": "bytes32",
          "name": "role",
          "type": "bytes32"
        },
        {
          "internalType": "address",
          "name": "account",
          "type": "address"
        }
      ],
      "name": "revokeRole",
      "outputs": [],
      "stateMutability": "nonpayable",
      "type": "function"
    },
    {
      "inputs": [
        {
          "internalType": "uint128",
          "name": "challengeDuration_",
          "type": "uint128"
        }
      ],
      "name": "setChallengeDuration",
      "outputs": [],
      "stateMutability": "nonpayable",
      "type": "function"
    },
    {
      "inputs": [
        {
          "internalType": "uint128",
          "name": "establishmentFeeRate_",
          "type": "uint128"
        }
      ],
      "name": "setEstablishmentFeeRate",
      "outputs": [],
      "stateMutability": "nonpayable",
      "type": "function"
    },
    {
      "inputs": [
        {
          "internalType": "uint128",
          "name": "penalizationAmount_",
          "type": "uint128"
        }
      ],
      "name": "setPenalizationAmount",
      "outputs": [],
      "stateMutability": "nonpayable",
      "type": "function"
    },
    {
      "inputs": [
        {
          "internalType": "uint256",
          "name": "agreementID",
          "type": "uint256"
        },
        {
          "internalType": "uint128",
          "name": "contractorPercentage",
          "type": "uint128"
        },
        {
          "internalType": "uint128",
          "name": "contracteePercentage",
          "type": "uint128"
        }
      ],
      "name": "splitFunds",
      "outputs": [],
      "stateMutability": "nonpayable",
      "type": "function"
    },
    {
      "inputs": [
        {
          "internalType": "bytes4",
          "name": "interfaceId",
          "type": "bytes4"
        }
      ],
      "name": "supportsInterface",
      "outputs": [
        {
          "internalType": "bool",
          "name": "",
          "type": "bool"
        }
      ],
      "stateMutability": "view",
      "type": "function"
    },
    {
      "inputs": [],
      "name": "unfreezeAgreements",
      "outputs": [],
      "stateMutability": "nonpayable",
      "type": "function"
    },
    {
      "inputs": [
        {
          "internalType": "uint256",
          "name": "",
          "type": "uint256"
        }
      ],
      "name": "usedNonces",
      "outputs": [
        {
          "internalType": "bool",
          "name": "",
          "type": "bool"
        }
      ],
      "stateMutability": "view",
      "type": "function"
    },
    {
      "inputs": [
        {
          "internalType": "address",
          "name": "",
          "type": "address"
        },
        {
          "internalType": "uint256",
          "name": "",
          "type": "uint256"
        }
      ],
      "name": "userAgreements",
      "outputs": [
        {
          "internalType": "uint256",
          "name": "",
          "type": "uint256"
        }
      ],
      "stateMutability": "view",
      "type": "function"
    },
    {
      "inputs": [
        {
          "internalType": "address",
          "name": "signer",
          "type": "address"
        },
        {
          "internalType": "uint8",
          "name": "v",
          "type": "uint8"
        },
        {
          "internalType": "bytes32",
          "name": "r",
          "type": "bytes32"
        },
        {
          "internalType": "bytes32",
          "name": "s",
          "type": "bytes32"
        },
        {
          "internalType": "string",
          "name": "description",
          "type": "string"
        },
        {
          "internalType": "uint256",
          "name": "nonce",
          "type": "uint256"
        }
      ],
      "name": "validateDescription",
      "outputs": [
        {
          "internalType": "bool",
          "name": "",
          "type": "bool"
        }
      ],
      "stateMutability": "nonpayable",
      "type": "function"
    }
  ],
  "transactionHash": "0x3e6e9a9a7ae8b8dfdf538182485993734f916118573d36735fc51f57bd6679ad",
  "args": [],
  "numDeployments": 3,
  "solcInputHash": "b03618998267da766ced8a433a67e94d",
  "bytecode": "0x6080604052600060cd55600160ce5534801561001a57600080fd5b5061344f8061002a6000396000f3fe608060405234801561001057600080fd5b506004361061021c5760003560e01c80635c975abb116101255780639eb6156c116100ad578063adb9cae61161007c578063adb9cae614610509578063bd14de9614610529578063d547741f1461054a578063de6403901461055d578063e86295141461057057600080fd5b80639eb6156c146104d2578063a0cc8d2c146104e5578063a217fddf146104ee578063a63197d2146104f657600080fd5b80636726e867116100f45780636726e8671461047e5780636944560c146104915780638aa6ded5146104a457806391d14854146104b757806392d5b544146104ca57600080fd5b80635c975abb146103bc57806362e414a4146103c757806363f749f5146103da5780636717e41c1461045b57600080fd5b80632f2ff15d116101a85780633bc52866116101775780633bc5286614610370578063419ffe2c14610383578063429fba4a146102e95780634c27984e146103965780635686b54b146103a957600080fd5b80632f2ff15d1461032e5780633644e5151461034157806336568abe1461034a5780633a67c2f81461035d57600080fd5b80631333f2b7116101ef5780631333f2b71461029d5780631c8abcec146102b0578063248a9ca3146102b8578063291420b3146102e9578063292f2e0e146102fc57600080fd5b806301ffc9a71461022157806306fdde03146102495780630b2655d9146102805780630bd30c1214610295575b600080fd5b61023461022f366004612a50565b610599565b60405190151581526020015b60405180910390f35b6102736040518060400160405280600b81526020016a10dbdb9d1c9858dd199d5b60aa1b81525081565b6040516102409190612aca565b61029361028e366004612add565b6105d0565b005b610293610a2c565b6102936102ab366004612b34565b610a4f565b610293610a87565b6102db6102c6366004612b4f565b60009081526065602052604090206001015490565b604051908152602001610240565b6102936102f7366004612b34565b610b8b565b60cb5461031690600160801b90046001600160801b031681565b6040516001600160801b039091168152602001610240565b61029361033c366004612b7f565b610bc6565b6102db60ca5481565b610293610358366004612b7f565b610bf0565b61029361036b366004612bab565b610c6e565b61029361037e366004612b4f565b610e18565b60cb54610316906001600160801b031681565b6102db6103a4366004612bd5565b61121f565b6102936103b7366004612b4f565b611250565b60975460ff16610234565b6102936103d5366004612bff565b6116e0565b6104296103e8366004612b4f565b600090815260d060205260409020600801546001600160801b0381169160ff600160801b8304811692600160881b8104821692600160901b90910490911690565b604080516001600160801b03909516855292151560208501529015159183019190915215156060820152608001610240565b610234610469366004612b4f565b60c96020526000908152604090205460ff1681565b61029361048c366004612c3b565b61175b565b61023461049f366004612c6e565b611995565b60cc54610316906001600160801b031681565b6102346104c5366004612b7f565b611af5565b610293611b20565b6102936104e0366004612b4f565b611b40565b6102db60ce5481565b6102db600081565b610293610504366004612b4f565b611c06565b61051c610517366004612d27565b611e15565b6040516102409190612d42565b61053c610537366004612b4f565b611e81565b604051610240929190612d86565b610293610558366004612b7f565b612017565b61029361056b366004612b4f565b61203c565b61058361057e366004612b4f565b612163565b6040516102409a99989796959493929190612ec5565b60006001600160e01b03198216637965db0b60e01b14806105ca57506301ffc9a760e01b6001600160e01b03198316145b92915050565b6105d8612297565b60ce54600090815260d06020526040902054156105f7576105f7612f44565b600061060960c0830160a08401612d27565b6001600160a01b031603610630576040516305bf1d9d60e21b815260040160405180910390fd5b3361064160c0830160a08401612d27565b6001600160a01b031603610668576040516346a4b5e960e01b815260040160405180910390fd5b600061067a60a0830160808401612d27565b6001600160a01b0316036106a157604051639b84273b60e01b815260040160405180910390fd5b426106b26040830160208401612b34565b6001600160801b0316116106d957604051630dcde81360e11b815260040160405180910390fd5b61070c6106ec60a0830160808401612d27565b33306106fe6080860160608701612b34565b6001600160801b03166122df565b61071c6080820160608301612b34565b60ce8054600090815260d0602090815260409182902060080180546001600160801b0319166001600160801b0395909516949094179093558051610160810190915290548152908181019061077390840184612b34565b6001600160801b031681526020018260200160208101906107949190612b34565b6001600160801b031681526020016107b26060840160408501612b34565b6001600160801b031681526020016107d06080840160608501612b34565b6001600160801b03908116825260cc548116602083015260cb5416604082015260600161080360a0840160808501612d27565b6001600160a01b0316815260200161082160c0840160a08501612d27565b6001600160a01b0316815233602082015260400161084260c0840184612f5a565b8080601f016020809104026020016040519081016040528093929190818152602001838380828437600092018290525093909452505060ce54815260d060209081526040918290208451815590840151918401516001600160801b03928316600160801b918416820217600183015560608501516080860151908416908416820217600283015560a085015160c086015190841693160291909117600382015560e08301516004820180546001600160a01b03199081166001600160a01b039384161790915561010085015160058401805483169184169190911790556101208501516006840180549092169216919091179055610140830151909150600782019061094e9082613046565b505033600090815260cf60208181526040832060ce5481546001810183559185529184200155915061098660c0840160a08501612d27565b6001600160a01b03168152602080820192909252604001600090812060ce80548254600181018455928452939092200191909155547fe037ec30313eecdd927ffae3beed86a87b82f7bb794966ec08d75cf1a6e82686906109ed60c0840160a08501612d27565b604080519283526001600160a01b039091166020830152339082015260600160405180910390a160ce8054906000610a248361311c565b919050555050565b6000805160206133fa833981519152610a4481612350565b610a4c61235a565b50565b6000805160206133fa833981519152610a6781612350565b5060cb80546001600160801b03928316600160801b029216919091179055565b600054610100900460ff16610ab75760405162461bcd60e51b8152600401610aae90613135565b60405180910390fd5b604080518082018252600b81526a10dbdb9d1c9858dd199d5b60aa1b6020918201528151808301835260018152603160f81b9082015281517f8b73c3c69bb8fe3d512ecc4cf759cc79239f7b179b0ffacaa9a75d522b39400f818301527f4489533f11b9cc5c3a483b23f3634cc7d8cb2e3435fc90a29c7903cb1dd23ce8818401527fc89efdaa54c0f20c7adf612882df0950f5a951637e0307cdcb4c672f298b8bc660608201524660808201523060a0808301919091528351808303909101815260c0909101909252815191012060ca55565b6000805160206133fa833981519152610ba381612350565b5060cc80546001600160801b0319166001600160801b0392909216919091179055565b600082815260656020526040902060010154610be181612350565b610beb83836123ac565b505050565b6001600160a01b0381163314610c605760405162461bcd60e51b815260206004820152602f60248201527f416363657373436f6e74726f6c3a2063616e206f6e6c792072656e6f756e636560448201526e103937b632b9903337b91039b2b63360891b6064820152608401610aae565b610c6a8282612432565b5050565b600054610100900460ff1615808015610c8e5750600054600160ff909116105b80610ca85750303b158015610ca8575060005460ff166001145b610d0b5760405162461bcd60e51b815260206004820152602e60248201527f496e697469616c697a61626c653a20636f6e747261637420697320616c72656160448201526d191e481a5b9a5d1a585b1a5e995960921b6064820152608401610aae565b6000805460ff191660011790558015610d2e576000805461ff0019166101001790555b610d36610a87565b610d3e612499565b610d466124c0565b60cb80546001600160801b03808616600160801b0291161790556001600160a01b038216610d72573391505b610d7d6000836123ac565b610d956000805160206133fa833981519152836123ac565b610dcd7ffc8737ab85eb45125971625a9ebdb75cc78e01d5c1fa80c4c6e5203f47bc4fab6000805160206133fa8339815191526124f3565b8015610beb576000805461ff0019169055604051600181527f7f26b83ff96e1f2b6a682f133852f6798a09c465da95921460cefb3847402498906020015b60405180910390a1505050565b610e20612297565b600081815260d0602052604090206008810154600160901b900460ff161580610e5457506008810154600160801b900460ff165b80610e6a57506008810154600160881b900460ff165b15610e885760405163c9c2be6d60e01b815260040160405180910390fd5b600082815260d06020526040902060068101546001600160a01b03163314801590610eda5750610ed87ffc8737ab85eb45125971625a9ebdb75cc78e01d5c1fa80c4c6e5203f47bc4fab33611af5565b155b8015610efb5750610ef96000805160206133fa83398151915233611af5565b155b15610f19576040516303135bad60e61b815260040160405180910390fd5b600083815260d0602052604081206001810154909190610f4c906001600160801b0380821691600160801b900416613180565b6002830154909150600090610f6a906001600160801b0316836131bd565b60028401549091506000908190610f8a906001600160801b0316856131e3565b6001600160801b03161515905060005b836001600160801b0316816001600160801b03161015611057576000610fc1826001613209565b6002880154610fd991906001600160801b0316613229565b6001880154610ff191906001600160801b0316613209565b9050806001600160801b0316421061103e5760cb5461102090600160801b90046001600160801b031682613209565b6001600160801b03164211611039576001935050611057565b611044565b50611057565b508061104f81613254565b915050610f9a565b50816110c35780156110c3576001850154600160801b90046001600160801b031642108015906110b9575060cb5460018601546110ac916001600160801b03600160801b918290048116929190910416613209565b6001600160801b03164211155b156110c357600191505b816110e1576040516381c4a38760e01b815260040160405180910390fd5b60028501546008860180546001600160801b03600160801b90930483169260009161110e91859116613180565b82546101009290920a6001600160801b0381810219909316918316021790915560cc5460028801546000935060649261115192811691600160801b900416613229565b61115b91906131bd565b600287015490915061117e908290600160801b90046001600160801b0316613180565b6001600160801b031660cd6000828254611198919061327a565b9091555050600486015460058701546111c7916001600160a01b0390811691166001600160801b03841661253e565b6002860154604080518b8152600160801b9092046001600160801b031660208301527f101b32dc248c08277c4e9a662cd218570f12dccd5a0166380a12991934175f15910160405180910390a1505050505050505050565b60cf602052816000526040600020818154811061123b57600080fd5b90600052602060002001600091509150505481565b611258612297565b600081815260d06020526040902060068101546001600160a01b03163314611293576040516303135bad60e61b815260040160405180910390fd5b60088101805460ff60801b1916600160801b1790819055600160901b900460ff16611346576004808201546006830154600884015460405163a9059cbb60e01b81526001600160a01b039384169463a9059cbb946112fd9416926001600160801b0316910161328d565b6020604051808303816000875af115801561131c573d6000803e3d6000fd5b505050506040513d601f19601f8201168201806040525081019061134091906132af565b506116a9565b600181015460009061136b906001600160801b0380821691600160801b900416613180565b6002830154909150600090611389906001600160801b0316836131bd565b60028401549091506000906113a7906001600160801b0316846131e3565b60028501546001600160801b03918216151592506000916113d49180821691600160801b909104166131bd565b905060005b836001600160801b0316816001600160801b0316101561155c576000611400826001613209565b600288015461141891906001600160801b0316613229565b600188015461143091906001600160801b0316613209565b9050806001600160801b0316421015801561146b5750600287015461145e906001600160801b031682613209565b6001600160801b03164211155b15611549576004870154600588015460038901546001600160a01b039283169263a9059cbb9216906001600160801b03600160801b9091048116906114b2908616426132d1565b6114c5906001600160801b0389166132e4565b6114cf919061327a565b6040516001600160e01b031960e085901b1681526001600160a01b03909216600483015260248201526044016020604051808303816000875af115801561151a573d6000803e3d6000fd5b505050506040513d601f19601f8201168201806040525081019061153e91906132af565b505050505050505050565b508061155481613254565b9150506113d9565b5081156116a457600285015461157c9084906001600160801b0316613229565b600186015461159491906001600160801b0316613209565b6001600160801b031642101580156115c057506001850154600160801b90046001600160801b03164211155b156116a45760048501546005860154600387015460018801546001600160a01b039384169363a9059cbb9316916001600160801b03600160801b9182900481169261160f9242929104166132d1565b611622906001600160801b0387166132e4565b61162c919061327a565b6040516001600160e01b031960e085901b1681526001600160a01b03909216600483015260248201526044016020604051808303816000875af1158015611677573d6000803e3d6000fd5b505050506040513d601f19601f8201168201806040525081019061169b91906132af565b50505050505050565b505050505b6040518281527f0cae0523c4d6568388c55dcaeb921d927527a60000ca46adffedddf87225f0ec9060200160405180910390a15050565b6000805160206133fa8339815191526116f881612350565b60cd54836001600160801b0316111561172457604051630c7c9a7f60e11b815260040160405180910390fd5b600084815260d0602052604090206004810154611754906001600160a01b0316846001600160801b03871661253e565b5050505050565b611763612297565b6000805160206133fa83398151915261177b81612350565b600084815260d060205260408120600881015490916001600160801b0390911690036117a9576117a9612f44565b60088101805460ff60801b1916600160801b1790556117c88385613209565b6001600160801b03166064146117f157604051630ab76a2560e41b815260040160405180910390fd5b60088101546000906064906118109087906001600160801b0316613229565b61181a91906131bd565b600883015490915060009060649061183c9087906001600160801b0316613229565b61184691906131bd565b600484810154600586015460405163a9059cbb60e01b81529394506001600160a01b039182169363a9059cbb93611883939092169187910161328d565b6020604051808303816000875af11580156118a2573d6000803e3d6000fd5b505050506040513d601f19601f820116820180604052508101906118c691906132af565b50600480840154600685015460405163a9059cbb60e01b81526001600160a01b039283169363a9059cbb936118ff93169186910161328d565b6020604051808303816000875af115801561191e573d6000803e3d6000fd5b505050506040513d601f19601f8201168201806040525081019061194291906132af565b50604080518881526001600160801b03848116602083015283168183015290517fcc66abc0fd6a7a2cd2810119d6bcbcbeba5a22f087936e5105ac81e84563393c9181900360600190a150505050505050565b600081815260c9602052604081205460ff16156119b157600080fd5b600082815260c960209081526040808320805460ff1916600117905551611a00917f9b5039e58350b398e1e74d78733f690324b2aafee15033156b0ba14d8846461091889188918891016132fb565b604051602081830303815290604052805190602001209050600060ca5482604051602001611a4592919061190160f01b81526002810192909252602282015260420190565b60408051601f198184030181528282528051602091820120600080855291840180845281905260ff8d1692840192909252606083018b9052608083018a90529092509060019060a0016020604051602081039080840390855afa158015611ab0573d6000803e3d6000fd5b5050604051601f1901519150506001600160a01b038b1615801590611ae65750806001600160a01b03168b6001600160a01b0316145b9b9a5050505050505050505050565b60009182526065602090815260408084206001600160a01b0393909316845291905290205460ff1690565b6000805160206133fa833981519152611b3881612350565b610a4c61256e565b611b48612297565b600081815260d0602052604090206008810154600160901b900460ff161580611b7c57506008810154600160801b900460ff165b80611b9257506008810154600160881b900460ff165b15611bb05760405163c9c2be6d60e01b815260040160405180910390fd5b600082815260d060205260409081902060088101805460ff60881b1916600160881b17905590517fa34da6d2673f1264c5d1d4d7d5edaa12c53e8615fa6183cc1cfe6b6510637fce90610e0b9085815260200190565b611c0e612297565b600081815260d0602052604090206008810154600160901b900460ff161580611c4257506008810154600160801b900460ff165b80611c5857506008810154600160881b900460ff165b15611c765760405163c9c2be6d60e01b815260040160405180910390fd5b600082815260d06020526040902060068101546001600160a01b03163314801590611cc85750611cc67ffc8737ab85eb45125971625a9ebdb75cc78e01d5c1fa80c4c6e5203f47bc4fab33611af5565b155b8015611ce95750611ce76000805160206133fa83398151915233611af5565b155b15611d07576040516303135bad60e61b815260040160405180910390fd5b600083815260d06020526040902060088101546001600160801b031615611d41576040516351f16c9360e11b815260040160405180910390fd5b60028101546008820180546001600160801b03600160801b909304831692600091611d6e91859116613209565b82546101009290920a6001600160801b03818102199093169183160217909155600483015460068401546002850154611dc294506001600160a01b039283169392909116913091600160801b9004166122df565b600281015460408051868152600160801b9092046001600160801b031660208301527fd91647d68fadbc904f923d642788552eca006a63f0a8e08d123f6c901d963051910160405180910390a150505050565b6001600160a01b038116600090815260cf6020908152604091829020805483518184028101840190945280845260609392830182828015611e7557602002820191906000526020600020905b815481526020019060010190808311611e61575b50505050509050919050565b60d0602090815260009182526040918290208251610160810184528154815260018201546001600160801b0380821694830194909452600160801b908190048416948201949094526002820154808416606083015284900483166080820152600382015480841660a08301529390930490911660c083015260048101546001600160a01b0390811660e0840152600582015481166101008401526006820154166101208301526007810180549192918391610140840191611f4190612fbe565b80601f0160208091040260200160405190810160405280929190818152602001828054611f6d90612fbe565b8015611fba5780601f10611f8f57610100808354040283529160200191611fba565b820191906000526020600020905b815481529060010190602001808311611f9d57829003601f168201915b505050919092525050604080516080810182526008909401546001600160801b038116855260ff600160801b8204811615156020870152600160881b82048116151592860192909252600160901b90041615156060840152509082565b60008281526065602052604090206001015461203281612350565b610beb8383612432565b600081815260d0602052604090206008810154600160801b900460ff168061206f57506008810154600160901b900460ff165b1561208d57604051638549e3e360e01b815260040160405180910390fd5b600082815260d06020526040902060058101546001600160a01b031633146120c8576040516303135bad60e61b815260040160405180910390fd5b60018101546001600160801b03164211156120f657604051636b506e1760e01b815260040160405180910390fd5b60088101805460ff60901b1916600160901b17905533600090815260cf6020908152604080832060ce5481546001810183559185529290932090920155517fea49e8aa1bbaa9a7b16632ed4aba908b3c702861a23436c8356e296c228cc27890610e0b9085815260200190565b600081815260d060205260408120600181015460028201546003830154600484015460058501546006860154600787018054899889988998899889988998899889986060986001600160801b0380891698600160801b9081900482169880831698908290048316978184169792909104909216946001600160a01b03928316949183169392169181906121f590612fbe565b80601f016020809104026020016040519081016040528092919081815260200182805461222190612fbe565b801561226e5780601f106122435761010080835404028352916020019161226e565b820191906000526020600020905b81548152906001019060200180831161225157829003601f168201915b505050505090509a509a509a509a509a509a509a509a509a509a50509193959799509193959799565b60975460ff16156122dd5760405162461bcd60e51b815260206004820152601060248201526f14185d5cd8589b194e881c185d5cd95960821b6044820152606401610aae565b565b6040516001600160a01b038085166024830152831660448201526064810182905261234a9085906323b872dd60e01b906084015b60408051601f198184030181529190526020810180516001600160e01b03166001600160e01b0319909316929092179091526125ab565b50505050565b610a4c813361267d565b6123626126d6565b6097805460ff191690557f5db9ee0a495bf2e6ff9c91a7834c1ba4fdd244a5e8aa4e537bd38aeae4b073aa335b6040516001600160a01b03909116815260200160405180910390a1565b6123b68282611af5565b610c6a5760008281526065602090815260408083206001600160a01b03851684529091529020805460ff191660011790556123ee3390565b6001600160a01b0316816001600160a01b0316837f2f8788117e7eff1d82e926ec794901d17c78024a50270940304540a733656f0d60405160405180910390a45050565b61243c8282611af5565b15610c6a5760008281526065602090815260408083206001600160a01b0385168085529252808320805460ff1916905551339285917ff6391f5c32d9c69d2a47ea670b442974b53935d1edc7fd64eb21e047a839171b9190a45050565b600054610100900460ff166122dd5760405162461bcd60e51b8152600401610aae90613135565b600054610100900460ff166124e75760405162461bcd60e51b8152600401610aae90613135565b6097805460ff19169055565b600082815260656020526040808220600101805490849055905190918391839186917fbd79b86ffe0ab8e8776151514217cd7cacd52c909f66475c3af44e129f0b00ff9190a4505050565b6040516001600160a01b038316602482015260448101829052610beb90849063a9059cbb60e01b90606401612313565b612576612297565b6097805460ff191660011790557f62e78cea01bee320cd4e420270b5ea74000d11b0c9f74754ebdbfc544b05a25861238f3390565b6000612600826040518060400160405280602081526020017f5361666545524332303a206c6f772d6c6576656c2063616c6c206661696c6564815250856001600160a01b031661271f9092919063ffffffff16565b805190915015610beb578080602001905181019061261e91906132af565b610beb5760405162461bcd60e51b815260206004820152602a60248201527f5361666545524332303a204552433230206f7065726174696f6e20646964206e6044820152691bdd081cdd58d8d9595960b21b6064820152608401610aae565b6126878282611af5565b610c6a5761269481612738565b61269f83602061274a565b6040516020016126b092919061333b565b60408051601f198184030181529082905262461bcd60e51b8252610aae91600401612aca565b60975460ff166122dd5760405162461bcd60e51b815260206004820152601460248201527314185d5cd8589b194e881b9bdd081c185d5cd95960621b6044820152606401610aae565b606061272e84846000856128e6565b90505b9392505050565b60606105ca6001600160a01b03831660145b606060006127598360026132e4565b61276490600261327a565b67ffffffffffffffff81111561277c5761277c612fa8565b6040519080825280601f01601f1916602001820160405280156127a6576020820181803683370190505b509050600360fc1b816000815181106127c1576127c16133b0565b60200101906001600160f81b031916908160001a905350600f60fb1b816001815181106127f0576127f06133b0565b60200101906001600160f81b031916908160001a90535060006128148460026132e4565b61281f90600161327a565b90505b6001811115612897576f181899199a1a9b1b9c1cb0b131b232b360811b85600f1660108110612853576128536133b0565b1a60f81b828281518110612869576128696133b0565b60200101906001600160f81b031916908160001a90535060049490941c93612890816133c6565b9050612822565b5083156127315760405162461bcd60e51b815260206004820181905260248201527f537472696e67733a20686578206c656e67746820696e73756666696369656e746044820152606401610aae565b6060824710156129475760405162461bcd60e51b815260206004820152602660248201527f416464726573733a20696e73756666696369656e742062616c616e636520666f6044820152651c8818d85b1b60d21b6064820152608401610aae565b6001600160a01b0385163b61299e5760405162461bcd60e51b815260206004820152601d60248201527f416464726573733a2063616c6c20746f206e6f6e2d636f6e74726163740000006044820152606401610aae565b600080866001600160a01b031685876040516129ba91906133dd565b60006040518083038185875af1925050503d80600081146129f7576040519150601f19603f3d011682016040523d82523d6000602084013e6129fc565b606091505b5091509150612a0c828286612a17565b979650505050505050565b60608315612a26575081612731565b825115612a365782518084602001fd5b8160405162461bcd60e51b8152600401610aae9190612aca565b600060208284031215612a6257600080fd5b81356001600160e01b03198116811461273157600080fd5b60005b83811015612a95578181015183820152602001612a7d565b50506000910152565b60008151808452612ab6816020860160208601612a7a565b601f01601f19169290920160200192915050565b6020815260006127316020830184612a9e565b600060208284031215612aef57600080fd5b813567ffffffffffffffff811115612b0657600080fd5b820160e0818503121561273157600080fd5b80356001600160801b0381168114612b2f57600080fd5b919050565b600060208284031215612b4657600080fd5b61273182612b18565b600060208284031215612b6157600080fd5b5035919050565b80356001600160a01b0381168114612b2f57600080fd5b60008060408385031215612b9257600080fd5b82359150612ba260208401612b68565b90509250929050565b60008060408385031215612bbe57600080fd5b612bc783612b18565b9150612ba260208401612b68565b60008060408385031215612be857600080fd5b612bf183612b68565b946020939093013593505050565b600080600060608486031215612c1457600080fd5b83359250612c2460208501612b18565b9150612c3260408501612b68565b90509250925092565b600080600060608486031215612c5057600080fd5b83359250612c6060208501612b18565b9150612c3260408501612b18565b600080600080600080600060c0888a031215612c8957600080fd5b612c9288612b68565b9650602088013560ff81168114612ca857600080fd5b95506040880135945060608801359350608088013567ffffffffffffffff80821115612cd357600080fd5b818a0191508a601f830112612ce757600080fd5b813581811115612cf657600080fd5b8b6020828501011115612d0857600080fd5b60208301955080945050505060a0880135905092959891949750929550565b600060208284031215612d3957600080fd5b61273182612b68565b6020808252825182820181905260009190848201906040850190845b81811015612d7a57835183529284019291840191600101612d5e565b50909695505050505050565b60a08152825160a082015260006020840151612dad60c08401826001600160801b03169052565b5060408401516001600160801b03811660e0840152506060840151610100612ddf818501836001600160801b03169052565b60808601519150610120612dfd818601846001600160801b03169052565b60a08701519250610140612e1b818701856001600160801b03169052565b60c08801519350610160612e39818801866001600160801b03169052565b60e08901516001600160a01b039081166101808901529389015184166101a0880152918801519092166101c0860152908601516101e08501919091529050612e85610200840182612a9e565b91505061273160208301846001600160801b0381511682526020810151151560208301526040810151151560408301526060810151151560608301525050565b6001600160801b038b811682528a81166020830152898116604083015288811660608301528781166080830152861660a08201526001600160a01b0385811660c083015284811660e083015283166101008201526101406101208201819052600090612f3383820185612a9e565b9d9c50505050505050505050505050565b634e487b7160e01b600052600160045260246000fd5b6000808335601e19843603018112612f7157600080fd5b83018035915067ffffffffffffffff821115612f8c57600080fd5b602001915036819003821315612fa157600080fd5b9250929050565b634e487b7160e01b600052604160045260246000fd5b600181811c90821680612fd257607f821691505b602082108103612ff257634e487b7160e01b600052602260045260246000fd5b50919050565b601f821115610beb57600081815260208120601f850160051c8101602086101561301f5750805b601f850160051c820191505b8181101561303e5782815560010161302b565b505050505050565b815167ffffffffffffffff81111561306057613060612fa8565b6130748161306e8454612fbe565b84612ff8565b602080601f8311600181146130a957600084156130915750858301515b600019600386901b1c1916600185901b17855561303e565b600085815260208120601f198616915b828110156130d8578886015182559484019460019091019084016130b9565b50858210156130f65787850151600019600388901b60f8161c191681555b5050505050600190811b01905550565b634e487b7160e01b600052601160045260246000fd5b60006001820161312e5761312e613106565b5060010190565b6020808252602b908201527f496e697469616c697a61626c653a20636f6e7472616374206973206e6f74206960408201526a6e697469616c697a696e6760a81b606082015260800190565b6001600160801b038281168282160390808211156131a0576131a0613106565b5092915050565b634e487b7160e01b600052601260045260246000fd5b60006001600160801b03808416806131d7576131d76131a7565b92169190910492915050565b60006001600160801b03808416806131fd576131fd6131a7565b92169190910692915050565b6001600160801b038181168382160190808211156131a0576131a0613106565b6001600160801b0381811683821602808216919082811461324c5761324c613106565b505092915050565b60006001600160801b0380831681810361327057613270613106565b6001019392505050565b808201808211156105ca576105ca613106565b6001600160a01b039290921682526001600160801b0316602082015260400190565b6000602082840312156132c157600080fd5b8151801515811461273157600080fd5b818103818111156105ca576105ca613106565b80820281158282048414176105ca576105ca613106565b848152606060208201528260608201528284608083013760006080848301015260006080601f19601f860116830101905082604083015295945050505050565b7f416363657373436f6e74726f6c3a206163636f756e7420000000000000000000815260008351613373816017850160208801612a7a565b7001034b99036b4b9b9b4b733903937b6329607d1b60179184019182015283516133a4816028840160208801612a7a565b01602801949350505050565b634e487b7160e01b600052603260045260246000fd5b6000816133d5576133d5613106565b506000190190565b600082516133ef818460208701612a7a565b919091019291505056fe71840dc4906352362b0cdaf79870196c8e42acafade72d5d5a6d59291253ceb1a2646970667358221220d6caf68c44b31b87bbab4ac45d4bb75fef2d244ed5e989a00cfe160c5f18006a64736f6c63430008110033",
  "devdoc": {
    "kind": "dev",
    "methods": {
      "activateAgreement(uint256)": {
        "details": "The agreement needs to be created, inactive and the funds for the first cycle set",
        "params": {
          "agreementID": "The ID of the agreement to activate"
        }
      },
      "cancelAgreement(uint256)": {
        "details": "only callable by the contractee",
        "params": {
          "agreementID": "The ID of the agreement"
        }
      },
      "challengeAgreement(uint256)": {
        "params": {
          "agreementID": "The ID of the agreement"
        }
      },
      "claimProtocolFees(uint256,uint128,address)": {
        "params": {
          "agreementID": "The identifier of the agreement",
          "amount": "The amount of tokens claimed",
          "to": "The address receiving the fees*"
        }
      },
      "createAgreement((uint128,uint128,uint128,uint128,address,address,string))": {
        "details": "The agreement default state is inactive, it needs to be activated by the contractor",
        "params": {
          "params": "The parameters of the agreement"
        }
      },
      "getAgreementParameters(uint256)": {
        "details": "an agreement can be not active because it has not been activated or because it is closed",
        "params": {
          "agreementID": "The ID of the agreement"
        },
        "returns": {
          "beginningDate": "The beginning date of the agreement",
          "contractee": "The address of the contractee",
          "contractor": "The address of the contractor",
          "descriptionURI": "The URI of the agreement description",
          "establishmentFeeRate_": "The rate of the establishment fee",
          "maturityDate": "The date when the agreement expires",
          "paymentCycleAmount": "The amount of tokens to be released per payment cycle",
          "paymentCycleDuration": "The duration of a payment cycle",
          "penalizationAmount_": "The amount of tokens that will be kept in case of a penalization",
          "underlayingToken": "The address of the token used for the agreement"
        }
      },
      "getAgreementState(uint256)": {
        "params": {
          "active": "Whether the agreement is active",
          "agreementID": "The ID of the agreement",
          "challenged": "Whether the agreement is challenged",
          "closed": "Whether the agreement is closed",
          "escrowedFunds": "The amount of funds escrowed in the agreement"
        }
      },
      "getRoleAdmin(bytes32)": {
        "details": "Returns the admin role that controls `role`. See {grantRole} and {revokeRole}. To change a role's admin, use {_setRoleAdmin}."
      },
      "getUserAgreements(address)": {
        "params": {
          "user": "The address of the user"
        },
        "returns": {
          "_0": "agreementIDs The IDs of the agreements"
        }
      },
      "grantRole(bytes32,address)": {
        "details": "Grants `role` to `account`. If `account` had not been already granted `role`, emits a {RoleGranted} event. Requirements: - the caller must have ``role``'s admin role. May emit a {RoleGranted} event."
      },
      "hasRole(bytes32,address)": {
        "details": "Returns `true` if `account` has been granted `role`."
      },
      "migrateFunds(uint256)": {
        "details": "Only the keeper or contractee can call this functionA for loop is used to calculate the migration periods instead of storing them on chain to reduce gas costsIf there is a remainder, the last migration period will be shorter than the others and fall on the maturity date",
        "params": {
          "agreementID": "The ID of the agreement to release the funds for"
        }
      },
      "paused()": {
        "details": "Returns true if the contract is paused, and false otherwise."
      },
      "renounceRole(bytes32,address)": {
        "details": "Revokes `role` from the calling account. Roles are often managed via {grantRole} and {revokeRole}: this function's purpose is to provide a mechanism for accounts to lose their privileges if they are compromised (such as when a trusted device is misplaced). If the calling account had been revoked `role`, emits a {RoleRevoked} event. Requirements: - the caller must be `account`. May emit a {RoleRevoked} event."
      },
      "revokeRole(bytes32,address)": {
        "details": "Revokes `role` from `account`. If `account` had been granted `role`, emits a {RoleRevoked} event. Requirements: - the caller must have ``role``'s admin role. May emit a {RoleRevoked} event."
      },
      "setChallengeDuration(uint128)": {
        "params": {
          "challengeDuration_": "The new challenge duration"
        }
      },
      "setEstablishmentFeeRate(uint128)": {
        "params": {
          "establishmentFeeRate_": "The new establishment fee rate"
        }
      },
      "setPenalizationAmount(uint128)": {
        "params": {
          "penalizationAmount_": "The new penalization amount"
        }
      },
      "splitFunds(uint256,uint128,uint128)": {
        "details": "Only integers can be passed as pecentages. The function does't calculate for decimal points",
        "params": {
          "agreementID": "The ID of the agreement",
          "contracteePercentage": "The percentage of the escrowed funds to be released to the contractee",
          "contractorPercentage": "The percentage of the escrowed funds to be released to the contractor"
        }
      },
      "supportsInterface(bytes4)": {
        "details": "See {IERC165-supportsInterface}."
      }
    },
    "version": 1
  },
  "userdoc": {
    "events": {
      "AgreementActivated(uint256)": {
        "notice": "Emitted after a agreement was activated"
      },
      "AgreementCancelled(uint256)": {
        "notice": "Emitted after a agreement was cancelled"
      },
      "AgreementChallenged(uint256)": {
        "notice": "Emitted after an agreement was challenged"
      },
      "AgreementCreated(uint256,address,address)": {
        "notice": "Emitted after a event was creted"
      },
      "FundsDeposited(uint256,uint128)": {
        "notice": "Emitted after funds are deposited for the upcoming cycle"
      },
      "FundsMigrated(uint256,uint128)": {
        "notice": "Emitted after funds were migrated"
      },
      "FundsSplitted(uint256,uint128,uint128)": {
        "notice": "Emitted after the escrowd funds for an agreement were splitted"
      }
    },
    "kind": "user",
    "methods": {
      "activateAgreement(uint256)": {
        "notice": "Activates an agreement"
      },
      "cancelAgreement(uint256)": {
        "notice": "Closes an agreement and releases the escrowed funds accordingly to the agreement state"
      },
      "challengeAgreement(uint256)": {
        "notice": "Sets the agreement state to challenged and emmits an event that will be captured by the Contractful DAO( currently a multisig)"
      },
      "claimProtocolFees(uint256,uint128,address)": {
        "notice": "Withdraws protocol fees to a target address"
      },
      "createAgreement((uint128,uint128,uint128,uint128,address,address,string))": {
        "notice": "Creates a new agreement"
      },
      "freezeAgreements()": {
        "notice": "Stops all actions on all agreements*"
      },
      "getAgreementParameters(uint256)": {
        "notice": "Returns the parameters of an agreement"
      },
      "getAgreementState(uint256)": {
        "notice": "Returns the state of an agreement"
      },
      "getUserAgreements(address)": {
        "notice": "Returns the user agreements"
      },
      "migrateFunds(uint256)": {
        "notice": "Releases the funds for the current payment cycle"
      },
      "setChallengeDuration(uint128)": {
        "notice": "Sets the challenge duration for all agreements"
      },
      "setEstablishmentFeeRate(uint128)": {
        "notice": "Set the establishment protocol fee rate"
      },
      "setPenalizationAmount(uint128)": {
        "notice": "Set the penalization amount for the protocol"
      },
      "splitFunds(uint256,uint128,uint128)": {
        "notice": "Releases the escrowed funds accordingly to the percentages passed as parametersFor the moment the function is only callable by governance wich is a multisig wallet. However in the future it will only be callable by the Contractful DAO"
      },
      "unfreezeAgreements()": {
        "notice": "Cancel a freeze, makes actions available again on all agreements*"
      },
      "validateDescription(address,uint8,bytes32,bytes32,string,uint256)": {
        "notice": "checks whether the signer signed the description"
      }
    },
    "version": 1
  },
  "storageLayout": {
    "storage": [
      {
        "astId": 415,
        "contract": "src/Manager.sol:Manager",
        "label": "_initialized",
        "offset": 0,
        "slot": "0",
        "type": "t_uint8"
      },
      {
        "astId": 418,
        "contract": "src/Manager.sol:Manager",
        "label": "_initializing",
        "offset": 1,
        "slot": "0",
        "type": "t_bool"
      },
      {
        "astId": 1029,
        "contract": "src/Manager.sol:Manager",
        "label": "__gap",
        "offset": 0,
        "slot": "1",
        "type": "t_array(t_uint256)50_storage"
      },
      {
        "astId": 1248,
        "contract": "src/Manager.sol:Manager",
        "label": "__gap",
        "offset": 0,
        "slot": "51",
        "type": "t_array(t_uint256)50_storage"
      },
      {
        "astId": 39,
        "contract": "src/Manager.sol:Manager",
        "label": "_roles",
        "offset": 0,
        "slot": "101",
        "type": "t_mapping(t_bytes32,t_struct(RoleData)34_storage)"
      },
      {
        "astId": 334,
        "contract": "src/Manager.sol:Manager",
        "label": "__gap",
        "offset": 0,
        "slot": "102",
        "type": "t_array(t_uint256)49_storage"
      },
      {
        "astId": 598,
        "contract": "src/Manager.sol:Manager",
        "label": "_paused",
        "offset": 0,
        "slot": "151",
        "type": "t_bool"
      },
      {
        "astId": 703,
        "contract": "src/Manager.sol:Manager",
        "label": "__gap",
        "offset": 0,
        "slot": "152",
        "type": "t_array(t_uint256)49_storage"
      },
      {
        "astId": 4091,
        "contract": "src/Manager.sol:Manager",
        "label": "usedNonces",
        "offset": 0,
        "slot": "201",
        "type": "t_mapping(t_uint256,t_bool)"
      },
      {
        "astId": 4093,
        "contract": "src/Manager.sol:Manager",
        "label": "DOMAIN_SEPARATOR",
        "offset": 0,
        "slot": "202",
        "type": "t_bytes32"
      },
      {
        "astId": 2830,
        "contract": "src/Manager.sol:Manager",
        "label": "penalizationAmount",
        "offset": 0,
        "slot": "203",
        "type": "t_uint128"
      },
      {
        "astId": 2832,
        "contract": "src/Manager.sol:Manager",
        "label": "challengeDuration",
        "offset": 16,
        "slot": "203",
        "type": "t_uint128"
      },
      {
        "astId": 2834,
        "contract": "src/Manager.sol:Manager",
        "label": "establishmentFeeRate",
        "offset": 0,
        "slot": "204",
        "type": "t_uint128"
      },
      {
        "astId": 2837,
        "contract": "src/Manager.sol:Manager",
        "label": "accruedEstablishmentFee",
        "offset": 0,
        "slot": "205",
        "type": "t_uint256"
      },
      {
        "astId": 2840,
        "contract": "src/Manager.sol:Manager",
        "label": "agreementNonce",
        "offset": 0,
        "slot": "206",
        "type": "t_uint256"
      },
      {
        "astId": 2845,
        "contract": "src/Manager.sol:Manager",
        "label": "userAgreements",
        "offset": 0,
        "slot": "207",
        "type": "t_mapping(t_address,t_array(t_uint256)dyn_storage)"
      },
      {
        "astId": 2850,
        "contract": "src/Manager.sol:Manager",
        "label": "agreements",
        "offset": 0,
        "slot": "208",
        "type": "t_mapping(t_uint256,t_struct(Agreement)4462_storage)"
      }
    ],
    "types": {
      "t_address": {
        "encoding": "inplace",
        "label": "address",
        "numberOfBytes": "20"
      },
      "t_array(t_uint256)49_storage": {
        "base": "t_uint256",
        "encoding": "inplace",
        "label": "uint256[49]",
        "numberOfBytes": "1568"
      },
      "t_array(t_uint256)50_storage": {
        "base": "t_uint256",
        "encoding": "inplace",
        "label": "uint256[50]",
        "numberOfBytes": "1600"
      },
      "t_array(t_uint256)dyn_storage": {
        "base": "t_uint256",
        "encoding": "dynamic_array",
        "label": "uint256[]",
        "numberOfBytes": "32"
      },
      "t_bool": {
        "encoding": "inplace",
        "label": "bool",
        "numberOfBytes": "1"
      },
      "t_bytes32": {
        "encoding": "inplace",
        "label": "bytes32",
        "numberOfBytes": "32"
      },
      "t_mapping(t_address,t_array(t_uint256)dyn_storage)": {
        "encoding": "mapping",
        "key": "t_address",
        "label": "mapping(address => uint256[])",
        "numberOfBytes": "32",
        "value": "t_array(t_uint256)dyn_storage"
      },
      "t_mapping(t_address,t_bool)": {
        "encoding": "mapping",
        "key": "t_address",
        "label": "mapping(address => bool)",
        "numberOfBytes": "32",
        "value": "t_bool"
      },
      "t_mapping(t_bytes32,t_struct(RoleData)34_storage)": {
        "encoding": "mapping",
        "key": "t_bytes32",
        "label": "mapping(bytes32 => struct AccessControlUpgradeable.RoleData)",
        "numberOfBytes": "32",
        "value": "t_struct(RoleData)34_storage"
      },
      "t_mapping(t_uint256,t_bool)": {
        "encoding": "mapping",
        "key": "t_uint256",
        "label": "mapping(uint256 => bool)",
        "numberOfBytes": "32",
        "value": "t_bool"
      },
      "t_mapping(t_uint256,t_struct(Agreement)4462_storage)": {
        "encoding": "mapping",
        "key": "t_uint256",
        "label": "mapping(uint256 => struct Types.Agreement)",
        "numberOfBytes": "32",
        "value": "t_struct(Agreement)4462_storage"
      },
      "t_string_storage": {
        "encoding": "bytes",
        "label": "string",
        "numberOfBytes": "32"
      },
      "t_struct(Agreement)4462_storage": {
        "encoding": "inplace",
        "label": "struct Types.Agreement",
        "members": [
          {
            "astId": 4458,
            "contract": "src/Manager.sol:Manager",
            "label": "parameters",
            "offset": 0,
            "slot": "0",
            "type": "t_struct(AgreementParameters)4446_storage"
          },
          {
            "astId": 4461,
            "contract": "src/Manager.sol:Manager",
            "label": "state",
            "offset": 0,
            "slot": "8",
            "type": "t_struct(AgreementState)4455_storage"
          }
        ],
        "numberOfBytes": "288"
      },
      "t_struct(AgreementParameters)4446_storage": {
        "encoding": "inplace",
        "label": "struct Types.AgreementParameters",
        "members": [
          {
            "astId": 4425,
            "contract": "src/Manager.sol:Manager",
            "label": "AGREEMENT_ID",
            "offset": 0,
            "slot": "0",
            "type": "t_uint256"
          },
          {
            "astId": 4427,
            "contract": "src/Manager.sol:Manager",
            "label": "BEGINNING_DATE",
            "offset": 0,
            "slot": "1",
            "type": "t_uint128"
          },
          {
            "astId": 4429,
            "contract": "src/Manager.sol:Manager",
            "label": "MATURITY_DATE",
            "offset": 16,
            "slot": "1",
            "type": "t_uint128"
          },
          {
            "astId": 4431,
            "contract": "src/Manager.sol:Manager",
            "label": "PAYMENT_CYCLE_DURATION",
            "offset": 0,
            "slot": "2",
            "type": "t_uint128"
          },
          {
            "astId": 4433,
            "contract": "src/Manager.sol:Manager",
            "label": "PAYMENT_CYCLE_AMOUNT",
            "offset": 16,
            "slot": "2",
            "type": "t_uint128"
          },
          {
            "astId": 4435,
            "contract": "src/Manager.sol:Manager",
            "label": "ESTABLISHMENT_FEE_RATE",
            "offset": 0,
            "slot": "3",
            "type": "t_uint128"
          },
          {
            "astId": 4437,
            "contract": "src/Manager.sol:Manager",
            "label": "PENALIZATION_AMOUNT",
            "offset": 16,
            "slot": "3",
            "type": "t_uint128"
          },
          {
            "astId": 4439,
            "contract": "src/Manager.sol:Manager",
            "label": "UNDERLAYING_TOKEN",
            "offset": 0,
            "slot": "4",
            "type": "t_address"
          },
          {
            "astId": 4441,
            "contract": "src/Manager.sol:Manager",
            "label": "CONTRACTOR",
            "offset": 0,
            "slot": "5",
            "type": "t_address"
          },
          {
            "astId": 4443,
            "contract": "src/Manager.sol:Manager",
            "label": "CONTRACTEE",
            "offset": 0,
            "slot": "6",
            "type": "t_address"
          },
          {
            "astId": 4445,
            "contract": "src/Manager.sol:Manager",
            "label": "DESCRIPTION_URI",
            "offset": 0,
            "slot": "7",
            "type": "t_string_storage"
          }
        ],
        "numberOfBytes": "256"
      },
      "t_struct(AgreementState)4455_storage": {
        "encoding": "inplace",
        "label": "struct Types.AgreementState",
        "members": [
          {
            "astId": 4448,
            "contract": "src/Manager.sol:Manager",
            "label": "escrowedFunds",
            "offset": 0,
            "slot": "0",
            "type": "t_uint128"
          },
          {
            "astId": 4450,
            "contract": "src/Manager.sol:Manager",
            "label": "closed",
            "offset": 16,
            "slot": "0",
            "type": "t_bool"
          },
          {
            "astId": 4452,
            "contract": "src/Manager.sol:Manager",
            "label": "challenged",
            "offset": 17,
            "slot": "0",
            "type": "t_bool"
          },
          {
            "astId": 4454,
            "contract": "src/Manager.sol:Manager",
            "label": "active",
            "offset": 18,
            "slot": "0",
            "type": "t_bool"
          }
        ],
        "numberOfBytes": "32"
      },
      "t_struct(RoleData)34_storage": {
        "encoding": "inplace",
        "label": "struct AccessControlUpgradeable.RoleData",
        "members": [
          {
            "astId": 31,
            "contract": "src/Manager.sol:Manager",
            "label": "members",
            "offset": 0,
            "slot": "0",
            "type": "t_mapping(t_address,t_bool)"
          },
          {
            "astId": 33,
            "contract": "src/Manager.sol:Manager",
            "label": "adminRole",
            "offset": 0,
            "slot": "1",
            "type": "t_bytes32"
          }
        ],
        "numberOfBytes": "64"
      },
      "t_uint128": {
        "encoding": "inplace",
        "label": "uint128",
        "numberOfBytes": "16"
      },
      "t_uint256": {
        "encoding": "inplace",
        "label": "uint256",
        "numberOfBytes": "32"
      },
      "t_uint8": {
        "encoding": "inplace",
        "label": "uint8",
        "numberOfBytes": "1"
      }
    }
  }
}