{
  "address": "0x764bD32928A3ec09ab600c8E0C1B9a04eDfc8Bc8",
  "abi": [
    {
      "inputs": [],
      "name": "MG_ADDRESS_ZERO",
      "type": "error"
    },
    {
      "inputs": [],
      "name": "MG_AGREEMENT_NOT_PENDING",
      "type": "error"
    },
    {
      "inputs": [],
      "name": "MG_AMOUNT_TOO_HIGH",
      "type": "error"
    },
    {
      "inputs": [],
      "name": "MG_CONTRACTOR_EQUALS_CONTRACTEE",
      "type": "error"
    },
    {
      "inputs": [],
      "name": "MG_INVALID_MATURITY_DATE",
      "type": "error"
    },
    {
      "inputs": [],
      "name": "MG_INVALID_PERCENTAGES",
      "type": "error"
    },
    {
      "inputs": [],
      "name": "MG_INVALID_TOKEN",
      "type": "error"
    },
    {
      "inputs": [],
      "name": "MG_NOT_ONGOING",
      "type": "error"
    },
    {
      "inputs": [],
      "name": "MG_UNAUTHORIZED",
      "type": "error"
    },
    {
      "anonymous": false,
      "inputs": [
        {
          "indexed": false,
          "internalType": "uint256",
          "name": "agreementID",
          "type": "uint256"
        }
      ],
      "name": "AgreementActivated",
      "type": "event"
    },
    {
      "anonymous": false,
      "inputs": [
        {
          "indexed": false,
          "internalType": "uint256",
          "name": "agreementID",
          "type": "uint256"
        }
      ],
      "name": "AgreementCancelled",
      "type": "event"
    },
    {
      "anonymous": false,
      "inputs": [
        {
          "indexed": false,
          "internalType": "uint256",
          "name": "agreementID",
          "type": "uint256"
        }
      ],
      "name": "AgreementChallenged",
      "type": "event"
    },
    {
      "anonymous": false,
      "inputs": [
        {
          "indexed": false,
          "internalType": "uint256",
          "name": "agreementID",
          "type": "uint256"
        },
        {
          "indexed": false,
          "internalType": "address",
          "name": "contractor",
          "type": "address"
        },
        {
          "indexed": false,
          "internalType": "address",
          "name": "contractee",
          "type": "address"
        }
      ],
      "name": "AgreementCreated",
      "type": "event"
    },
    {
      "anonymous": false,
      "inputs": [
        {
          "indexed": false,
          "internalType": "uint256",
          "name": "agreement",
          "type": "uint256"
        },
        {
          "indexed": false,
          "internalType": "uint128",
          "name": "amount",
          "type": "uint128"
        }
      ],
      "name": "FundsDeposited",
      "type": "event"
    },
    {
      "anonymous": false,
      "inputs": [
        {
          "indexed": false,
          "internalType": "uint256",
          "name": "agreement",
          "type": "uint256"
        },
        {
          "indexed": false,
          "internalType": "uint128",
          "name": "amount",
          "type": "uint128"
        }
      ],
      "name": "FundsMigrated",
      "type": "event"
    },
    {
      "anonymous": false,
      "inputs": [
        {
          "indexed": false,
          "internalType": "uint256",
          "name": "agreementID",
          "type": "uint256"
        },
        {
          "indexed": false,
          "internalType": "uint128",
          "name": "contractorAmount",
          "type": "uint128"
        },
        {
          "indexed": false,
          "internalType": "uint128",
          "name": "contracteeAmount",
          "type": "uint128"
        }
      ],
      "name": "FundsSplitted",
      "type": "event"
    },
    {
      "anonymous": false,
      "inputs": [
        {
          "indexed": false,
          "internalType": "uint8",
          "name": "version",
          "type": "uint8"
        }
      ],
      "name": "Initialized",
      "type": "event"
    },
    {
      "anonymous": false,
      "inputs": [
        {
          "indexed": false,
          "internalType": "address",
          "name": "account",
          "type": "address"
        }
      ],
      "name": "Paused",
      "type": "event"
    },
    {
      "anonymous": false,
      "inputs": [
        {
          "indexed": true,
          "internalType": "bytes32",
          "name": "role",
          "type": "bytes32"
        },
        {
          "indexed": true,
          "internalType": "bytes32",
          "name": "previousAdminRole",
          "type": "bytes32"
        },
        {
          "indexed": true,
          "internalType": "bytes32",
          "name": "newAdminRole",
          "type": "bytes32"
        }
      ],
      "name": "RoleAdminChanged",
      "type": "event"
    },
    {
      "anonymous": false,
      "inputs": [
        {
          "indexed": true,
          "internalType": "bytes32",
          "name": "role",
          "type": "bytes32"
        },
        {
          "indexed": true,
          "internalType": "address",
          "name": "account",
          "type": "address"
        },
        {
          "indexed": true,
          "internalType": "address",
          "name": "sender",
          "type": "address"
        }
      ],
      "name": "RoleGranted",
      "type": "event"
    },
    {
      "anonymous": false,
      "inputs": [
        {
          "indexed": true,
          "internalType": "bytes32",
          "name": "role",
          "type": "bytes32"
        },
        {
          "indexed": true,
          "internalType": "address",
          "name": "account",
          "type": "address"
        },
        {
          "indexed": true,
          "internalType": "address",
          "name": "sender",
          "type": "address"
        }
      ],
      "name": "RoleRevoked",
      "type": "event"
    },
    {
      "anonymous": false,
      "inputs": [
        {
          "indexed": false,
          "internalType": "address",
          "name": "account",
          "type": "address"
        }
      ],
      "name": "Unpaused",
      "type": "event"
    },
    {
      "inputs": [],
      "name": "DEFAULT_ADMIN_ROLE",
      "outputs": [
        {
          "internalType": "bytes32",
          "name": "",
          "type": "bytes32"
        }
      ],
      "stateMutability": "view",
      "type": "function"
    },
    {
      "inputs": [],
      "name": "DOMAIN_SEPARATOR",
      "outputs": [
        {
          "internalType": "bytes32",
          "name": "",
          "type": "bytes32"
        }
      ],
      "stateMutability": "view",
      "type": "function"
    },
    {
      "inputs": [
        {
          "internalType": "uint256",
          "name": "agreementID",
          "type": "uint256"
        }
      ],
      "name": "activateAgreement",
      "outputs": [],
      "stateMutability": "nonpayable",
      "type": "function"
    },
    {
      "inputs": [],
      "name": "agreementNonce",
      "outputs": [
        {
          "internalType": "uint256",
          "name": "",
          "type": "uint256"
        }
      ],
      "stateMutability": "view",
      "type": "function"
    },
    {
      "inputs": [
        {
          "internalType": "uint256",
          "name": "",
          "type": "uint256"
        }
      ],
      "name": "agreements",
      "outputs": [
        {
          "components": [
            {
              "internalType": "uint256",
              "name": "AGREEMENT_ID",
              "type": "uint256"
            },
            {
              "internalType": "uint128",
              "name": "BEGINNING_DATE",
              "type": "uint128"
            },
            {
              "internalType": "uint128",
              "name": "MATURITY_DATE",
              "type": "uint128"
            },
            {
              "internalType": "uint128",
              "name": "PAYMENT_CYCLE_DURATION",
              "type": "uint128"
            },
            {
              "internalType": "uint128",
              "name": "PAYMENT_CYCLE_AMOUNT",
              "type": "uint128"
            },
            {
              "internalType": "uint128",
              "name": "ESTABLISHMENT_FEE_RATE",
              "type": "uint128"
            },
            {
              "internalType": "uint128",
              "name": "PENALIZATION_AMOUNT",
              "type": "uint128"
            },
            {
              "internalType": "address",
              "name": "UNDERLAYING_TOKEN",
              "type": "address"
            },
            {
              "internalType": "address",
              "name": "CONTRACTOR",
              "type": "address"
            },
            {
              "internalType": "address",
              "name": "CONTRACTEE",
              "type": "address"
            },
            {
              "internalType": "string",
              "name": "DESCRIPTION_URI",
              "type": "string"
            },
            {
              "internalType": "uint128",
              "name": "CURRENT_MIGRATION",
              "type": "uint128"
            }
          ],
          "internalType": "struct Types.AgreementParameters",
          "name": "parameters",
          "type": "tuple"
        },
        {
          "components": [
            {
              "internalType": "uint128",
              "name": "escrowedFunds",
              "type": "uint128"
            },
            {
              "internalType": "bool",
              "name": "closed",
              "type": "bool"
            },
            {
              "internalType": "bool",
              "name": "challenged",
              "type": "bool"
            },
            {
              "internalType": "bool",
              "name": "active",
              "type": "bool"
            }
          ],
          "internalType": "struct Types.AgreementState",
          "name": "state",
          "type": "tuple"
        }
      ],
      "stateMutability": "view",
      "type": "function"
    },
    {
      "inputs": [
        {
          "internalType": "uint256",
          "name": "agreementID",
          "type": "uint256"
        }
      ],
      "name": "cancelAgreement",
      "outputs": [],
      "stateMutability": "nonpayable",
      "type": "function"
    },
    {
      "inputs": [
        {
          "internalType": "uint256",
          "name": "agreementID",
          "type": "uint256"
        }
      ],
      "name": "challengeAgreement",
      "outputs": [],
      "stateMutability": "nonpayable",
      "type": "function"
    },
    {
      "inputs": [],
      "name": "challengeDuration",
      "outputs": [
        {
          "internalType": "uint128",
          "name": "",
          "type": "uint128"
        }
      ],
      "stateMutability": "view",
      "type": "function"
    },
    {
      "inputs": [
        {
          "internalType": "uint256",
          "name": "agreementID",
          "type": "uint256"
        }
      ],
      "name": "checkFundsMigration",
      "outputs": [
        {
          "internalType": "bool",
          "name": "",
          "type": "bool"
        }
      ],
      "stateMutability": "view",
      "type": "function"
    },
    {
      "inputs": [
        {
          "internalType": "bytes",
          "name": "",
          "type": "bytes"
        }
      ],
      "name": "checkUpkeep",
      "outputs": [
        {
          "internalType": "bool",
          "name": "upkeepNeeded",
          "type": "bool"
        },
        {
          "internalType": "bytes",
          "name": "performData",
          "type": "bytes"
        }
      ],
      "stateMutability": "view",
      "type": "function"
    },
    {
      "inputs": [
        {
          "internalType": "uint256",
          "name": "agreementID",
          "type": "uint256"
        },
        {
          "internalType": "uint128",
          "name": "amount",
          "type": "uint128"
        },
        {
          "internalType": "address",
          "name": "to",
          "type": "address"
        }
      ],
      "name": "claimProtocolFees",
      "outputs": [],
      "stateMutability": "nonpayable",
      "type": "function"
    },
    {
      "inputs": [
        {
          "components": [
            {
              "internalType": "uint128",
              "name": "beginningDate",
              "type": "uint128"
            },
            {
              "internalType": "uint128",
              "name": "maturityDate",
              "type": "uint128"
            },
            {
              "internalType": "uint128",
              "name": "paymentCycleDuration",
              "type": "uint128"
            },
            {
              "internalType": "uint128",
              "name": "paymentCycleAmount",
              "type": "uint128"
            },
            {
              "internalType": "address",
              "name": "underlayingToken",
              "type": "address"
            },
            {
              "internalType": "address",
              "name": "contractor",
              "type": "address"
            },
            {
              "internalType": "string",
              "name": "descriptionURI",
              "type": "string"
            }
          ],
          "internalType": "struct IManager.AgreementCreationParams",
          "name": "params",
          "type": "tuple"
        }
      ],
      "name": "createAgreement",
      "outputs": [],
      "stateMutability": "nonpayable",
      "type": "function"
    },
    {
      "inputs": [
        {
          "internalType": "uint256",
          "name": "agreementID",
          "type": "uint256"
        }
      ],
      "name": "depositFundsForNextCycle",
      "outputs": [
        {
          "internalType": "bool",
          "name": "",
          "type": "bool"
        }
      ],
      "stateMutability": "nonpayable",
      "type": "function"
    },
    {
      "inputs": [],
      "name": "establishmentFeeRate",
      "outputs": [
        {
          "internalType": "uint128",
          "name": "",
          "type": "uint128"
        }
      ],
      "stateMutability": "view",
      "type": "function"
    },
    {
      "inputs": [],
      "name": "freezeAgreements",
      "outputs": [],
      "stateMutability": "nonpayable",
      "type": "function"
    },
    {
      "inputs": [
        {
          "internalType": "uint256",
          "name": "agreementID",
          "type": "uint256"
        }
      ],
      "name": "getAgreementParameters",
      "outputs": [
        {
          "internalType": "uint128",
          "name": "beginningDate",
          "type": "uint128"
        },
        {
          "internalType": "uint128",
          "name": "maturityDate",
          "type": "uint128"
        },
        {
          "internalType": "uint128",
          "name": "paymentCycleDuration",
          "type": "uint128"
        },
        {
          "internalType": "uint128",
          "name": "paymentCycleAmount",
          "type": "uint128"
        },
        {
          "internalType": "uint128",
          "name": "establishmentFeeRate_",
          "type": "uint128"
        },
        {
          "internalType": "uint128",
          "name": "penalizationAmount_",
          "type": "uint128"
        },
        {
          "internalType": "address",
          "name": "underlayingToken",
          "type": "address"
        },
        {
          "internalType": "address",
          "name": "contractor",
          "type": "address"
        },
        {
          "internalType": "address",
          "name": "contractee",
          "type": "address"
        },
        {
          "internalType": "string",
          "name": "descriptionURI",
          "type": "string"
        },
        {
          "internalType": "uint128",
          "name": "currentMigration",
          "type": "uint128"
        }
      ],
      "stateMutability": "view",
      "type": "function"
    },
    {
      "inputs": [
        {
          "internalType": "uint256",
          "name": "agreementID",
          "type": "uint256"
        }
      ],
      "name": "getAgreementState",
      "outputs": [
        {
          "internalType": "uint128",
          "name": "escrowedFunds",
          "type": "uint128"
        },
        {
          "internalType": "bool",
          "name": "closed",
          "type": "bool"
        },
        {
          "internalType": "bool",
          "name": "challenged",
          "type": "bool"
        },
        {
          "internalType": "bool",
          "name": "active",
          "type": "bool"
        }
      ],
      "stateMutability": "view",
      "type": "function"
    },
    {
      "inputs": [
        {
          "internalType": "bytes32",
          "name": "role",
          "type": "bytes32"
        }
      ],
      "name": "getRoleAdmin",
      "outputs": [
        {
          "internalType": "bytes32",
          "name": "",
          "type": "bytes32"
        }
      ],
      "stateMutability": "view",
      "type": "function"
    },
    {
      "inputs": [
        {
          "internalType": "address",
          "name": "user",
          "type": "address"
        }
      ],
      "name": "getUserAgreements",
      "outputs": [
        {
          "internalType": "uint256[]",
          "name": "",
          "type": "uint256[]"
        }
      ],
      "stateMutability": "view",
      "type": "function"
    },
    {
      "inputs": [
        {
          "internalType": "bytes32",
          "name": "role",
          "type": "bytes32"
        },
        {
          "internalType": "address",
          "name": "account",
          "type": "address"
        }
      ],
      "name": "grantRole",
      "outputs": [],
      "stateMutability": "nonpayable",
      "type": "function"
    },
    {
      "inputs": [
        {
          "internalType": "bytes32",
          "name": "role",
          "type": "bytes32"
        },
        {
          "internalType": "address",
          "name": "account",
          "type": "address"
        }
      ],
      "name": "hasRole",
      "outputs": [
        {
          "internalType": "bool",
          "name": "",
          "type": "bool"
        }
      ],
      "stateMutability": "view",
      "type": "function"
    },
    {
      "inputs": [
        {
          "internalType": "uint128",
          "name": "challengeDuration_",
          "type": "uint128"
        },
        {
          "internalType": "address",
          "name": "governance_",
          "type": "address"
        }
      ],
      "name": "initialize",
      "outputs": [],
      "stateMutability": "nonpayable",
      "type": "function"
    },
    {
      "inputs": [],
      "name": "initialize_",
      "outputs": [],
      "stateMutability": "nonpayable",
      "type": "function"
    },
    {
      "inputs": [
        {
          "internalType": "uint256",
          "name": "agreementID",
          "type": "uint256"
        }
      ],
      "name": "migrateFunds",
      "outputs": [
        {
          "internalType": "bool",
          "name": "",
          "type": "bool"
        }
      ],
      "stateMutability": "nonpayable",
      "type": "function"
    },
    {
      "inputs": [],
      "name": "name",
      "outputs": [
        {
          "internalType": "string",
          "name": "",
          "type": "string"
        }
      ],
      "stateMutability": "view",
      "type": "function"
    },
    {
      "inputs": [],
      "name": "paused",
      "outputs": [
        {
          "internalType": "bool",
          "name": "",
          "type": "bool"
        }
      ],
      "stateMutability": "view",
      "type": "function"
    },
    {
      "inputs": [],
      "name": "penalizationAmount",
      "outputs": [
        {
          "internalType": "uint128",
          "name": "",
          "type": "uint128"
        }
      ],
      "stateMutability": "view",
      "type": "function"
    },
    {
      "inputs": [
        {
          "internalType": "bytes",
          "name": "performData",
          "type": "bytes"
        }
      ],
      "name": "performUpkeep",
      "outputs": [],
      "stateMutability": "nonpayable",
      "type": "function"
    },
    {
      "inputs": [
        {
          "internalType": "bytes32",
          "name": "role",
          "type": "bytes32"
        },
        {
          "internalType": "address",
          "name": "account",
          "type": "address"
        }
      ],
      "name": "renounceRole",
      "outputs": [],
      "stateMutability": "nonpayable",
      "type": "function"
    },
    {
      "inputs": [
        {
          "internalType": "bytes32",
          "name": "role",
          "type": "bytes32"
        },
        {
          "internalType": "address",
          "name": "account",
          "type": "address"
        }
      ],
      "name": "revokeRole",
      "outputs": [],
      "stateMutability": "nonpayable",
      "type": "function"
    },
    {
      "inputs": [
        {
          "internalType": "uint128",
          "name": "challengeDuration_",
          "type": "uint128"
        }
      ],
      "name": "setChallengeDuration",
      "outputs": [],
      "stateMutability": "nonpayable",
      "type": "function"
    },
    {
      "inputs": [
        {
          "internalType": "uint128",
          "name": "establishmentFeeRate_",
          "type": "uint128"
        }
      ],
      "name": "setEstablishmentFeeRate",
      "outputs": [],
      "stateMutability": "nonpayable",
      "type": "function"
    },
    {
      "inputs": [
        {
          "internalType": "uint128",
          "name": "penalizationAmount_",
          "type": "uint128"
        }
      ],
      "name": "setPenalizationAmount",
      "outputs": [],
      "stateMutability": "nonpayable",
      "type": "function"
    },
    {
      "inputs": [
        {
          "internalType": "uint256",
          "name": "agreementID",
          "type": "uint256"
        },
        {
          "internalType": "uint128",
          "name": "contractorPercentage",
          "type": "uint128"
        },
        {
          "internalType": "uint128",
          "name": "contracteePercentage",
          "type": "uint128"
        }
      ],
      "name": "splitFunds",
      "outputs": [],
      "stateMutability": "nonpayable",
      "type": "function"
    },
    {
      "inputs": [
        {
          "internalType": "bytes4",
          "name": "interfaceId",
          "type": "bytes4"
        }
      ],
      "name": "supportsInterface",
      "outputs": [
        {
          "internalType": "bool",
          "name": "",
          "type": "bool"
        }
      ],
      "stateMutability": "view",
      "type": "function"
    },
    {
      "inputs": [],
      "name": "unfreezeAgreements",
      "outputs": [],
      "stateMutability": "nonpayable",
      "type": "function"
    },
    {
      "inputs": [
        {
          "internalType": "uint256",
          "name": "",
          "type": "uint256"
        }
      ],
      "name": "usedNonces",
      "outputs": [
        {
          "internalType": "bool",
          "name": "",
          "type": "bool"
        }
      ],
      "stateMutability": "view",
      "type": "function"
    },
    {
      "inputs": [
        {
          "internalType": "address",
          "name": "",
          "type": "address"
        },
        {
          "internalType": "uint256",
          "name": "",
          "type": "uint256"
        }
      ],
      "name": "userAgreements",
      "outputs": [
        {
          "internalType": "uint256",
          "name": "",
          "type": "uint256"
        }
      ],
      "stateMutability": "view",
      "type": "function"
    },
    {
      "inputs": [
        {
          "internalType": "address",
          "name": "signer",
          "type": "address"
        },
        {
          "internalType": "uint8",
          "name": "v",
          "type": "uint8"
        },
        {
          "internalType": "bytes32",
          "name": "r",
          "type": "bytes32"
        },
        {
          "internalType": "bytes32",
          "name": "s",
          "type": "bytes32"
        },
        {
          "internalType": "string",
          "name": "description",
          "type": "string"
        },
        {
          "internalType": "uint256",
          "name": "nonce",
          "type": "uint256"
        }
      ],
      "name": "validateDescription",
      "outputs": [
        {
          "internalType": "bool",
          "name": "",
          "type": "bool"
        }
      ],
      "stateMutability": "nonpayable",
      "type": "function"
    }
  ],
  "transactionHash": "0x3f50aeb96aa2bee9a2d0183a6fd4f9f5212490b2c4461f57f6bbf61452e771fc",
  "args": [],
  "numDeployments": 1,
  "solcInputHash": "9012520d689f338f7b4c13fe7323e6e2",
  "bytecode": "0x6080604052600060cd55600160ce5534801561001a57600080fd5b506137538061002a6000396000f3fe608060405234801561001057600080fd5b506004361061023d5760003560e01c80635686b54b1161013b57806392d5b544116100b8578063adb9cae61161007c578063adb9cae614610571578063bd14de9614610591578063d547741f146105b2578063de640390146105c5578063e8629514146105d857600080fd5b806392d5b544146105325780639eb6156c1461053a578063a0cc8d2c1461054d578063a217fddf14610556578063a63197d21461055e57600080fd5b80636726e867116100ff5780636726e867146104c55780636944560c146104d85780636e04ff0d146104eb5780638aa6ded51461050c57806391d148541461051f57600080fd5b80635686b54b146103f05780635c975abb1461040357806362e414a41461040e57806363f749f5146104215780636717e41c146104a257600080fd5b8063292f2e0e116101c95780633bc528661161018d5780633bc52866146103a4578063419ffe2c146103b7578063429fba4a1461031d5780634585e33b146103ca5780634c27984e146103dd57600080fd5b8063292f2e0e146103305780632f2ff15d146103625780633644e5151461037557806336568abe1461037e5780633a67c2f81461039157600080fd5b80630bd30c12116102105780630bd30c12146102c95780631333f2b7146102d15780631c8abcec146102e4578063248a9ca3146102ec578063291420b31461031d57600080fd5b806301ffc9a71461024257806306fdde031461026a5780630b2655d9146102a15780630b3d97b7146102b6575b600080fd5b610255610250366004612bf6565b610602565b60405190151581526020015b60405180910390f35b6102946040518060400160405280600b81526020016a10dbdb9d1c9858dd199d5b60aa1b81525081565b6040516102619190612c70565b6102b46102af366004612c83565b610639565b005b6102556102c4366004612cbe565b610af2565b6102b4610cb8565b6102b46102df366004612cee565b610cdb565b6102b4610d13565b61030f6102fa366004612cbe565b60009081526065602052604090206001015490565b604051908152602001610261565b6102b461032b366004612cee565b610e17565b60cb5461034a90600160801b90046001600160801b031681565b6040516001600160801b039091168152602001610261565b6102b4610370366004612d20565b610e52565b61030f60ca5481565b6102b461038c366004612d20565b610e7c565b6102b461039f366004612d4c565b610efa565b6102556103b2366004612cbe565b6110a4565b60cb5461034a906001600160801b031681565b6102b46103d8366004612db8565b611290565b61030f6103eb366004612dfa565b611312565b6102b46103fe366004612cbe565b611343565b60975460ff16610255565b6102b461041c366004612e24565b6117d3565b61047061042f366004612cbe565b600090815260d160205260409020600901546001600160801b0381169160ff600160801b8304811692600160881b8104821692600160901b90910490911690565b604080516001600160801b03909516855292151560208501529015159183019190915215156060820152608001610261565b6102556104b0366004612cbe565b60c96020526000908152604090205460ff1681565b6102b46104d3366004612e60565b61184e565b6102556104e6366004612e93565b611a88565b6104fe6104f9366004612db8565b611be8565b604051610261929190612f1c565b60cc5461034a906001600160801b031681565b61025561052d366004612d20565b611d3e565b6102b4611d69565b6102b4610548366004612cbe565b611d89565b61030f60ce5481565b61030f600081565b61025561056c366004612cbe565b611e4f565b61058461057f366004612f37565b611f7d565b6040516102619190612f52565b6105a461059f366004612cbe565b611fe9565b604051610261929190612f96565b6102b46105c0366004612d20565b61218d565b6102b46105d3366004612cbe565b6121b2565b6105eb6105e6366004612cbe565b6122ab565b6040516102619b9a99989796959493929190613105565b60006001600160e01b03198216637965db0b60e01b148061063357506301ffc9a760e01b6001600160e01b03198316145b92915050565b6106416123ef565b60ce54600090815260d160205260409020541561066057610660613191565b600061067260c0830160a08401612f37565b6001600160a01b031603610699576040516305bf1d9d60e21b815260040160405180910390fd5b336106aa60c0830160a08401612f37565b6001600160a01b0316036106d1576040516346a4b5e960e01b815260040160405180910390fd5b60006106e360a0830160808401612f37565b6001600160a01b03160361070a57604051639b84273b60e01b815260040160405180910390fd5b4261071b6040830160208401612cee565b6001600160801b03161161074257604051630dcde81360e11b815260040160405180910390fd5b61077561075560a0830160808401612f37565b33306107676080860160608701612cee565b6001600160801b0316612437565b6107856080820160608301612cee565b60ce8054600090815260d1602090815260409182902060090180546001600160801b0319166001600160801b039590951694909417909355805161018081019091529054815290818101906107dc90840184612cee565b6001600160801b031681526020018260200160208101906107fd9190612cee565b6001600160801b0316815260200161081b6060840160408501612cee565b6001600160801b031681526020016108396080840160608501612cee565b6001600160801b03908116825260cc548116602083015260cb5416604082015260600161086c60a0840160808501612f37565b6001600160a01b0316815260200161088a60c0840160a08501612f37565b6001600160a01b031681523360208201526040016108ab60c08401846131a7565b8080601f0160208091040260200160405190810160405280939291908181526020018383808284376000920182905250938552505050602091820181905260ce54815260d182526040908190208351815591830151908301516001600160801b03918216600160801b918316820217600184015560608401516080850151908316908316820217600284015560a084015160c085015190831692160217600382015560e08201516004820180546001600160a01b03199081166001600160a01b03938416179091556101008401516005840180548316918416919091179055610120840151600684018054909216921691909117905561014082015160078201906109b6908261328c565b506101609190910151600890910180546001600160801b0319166001600160801b0390921691909117905533600090815260d060208181526040832060ce548154600181018355918552918420015590610a1660c0840160a08501612f37565b6001600160a01b03168152602080820192909252604001600090812060ce805482546001818101855593855294842090940193909355915460cf805493840181559091527facb8d954e2cfef495862221e91bd7523613cf8808827cb33edfe4904cc51bf299091018190557fe037ec30313eecdd927ffae3beed86a87b82f7bb794966ec08d75cf1a6e8268690610ab360c0840160a08501612f37565b604080519283526001600160a01b039091166020830152339082015260600160405180910390a160ce8054906000610aea83613362565b919050555050565b6000610afc6123ef565b600082815260d1602052604081206001810154909190610b2f906001600160801b0380821691600160801b90041661337b565b6002830154909150600090610b4d906001600160801b0316836133b8565b60028401549091506000908190610b6d906001600160801b0316856133de565b60088601546001600160801b0391821615159250165b836001600160801b0316816001600160801b03161015610c40576000610baa826001613404565b6002880154610bc291906001600160801b0316613424565b6001880154610bda91906001600160801b0316613404565b9050806001600160801b03164210610c275760cb54610c0990600160801b90046001600160801b031682613404565b6001600160801b03164211610c22576001935050610c40565b610c2d565b50610c40565b5080610c388161344f565b915050610b83565b5081610cac578015610cac576001850154600160801b90046001600160801b03164210801590610ca2575060cb546001860154610c95916001600160801b03600160801b918290048116929190910416613404565b6001600160801b03164211155b15610cac57600191505b5093505050505b919050565b6000805160206136fe833981519152610cd0816124a2565b610cd86124ac565b50565b6000805160206136fe833981519152610cf3816124a2565b5060cb80546001600160801b03928316600160801b029216919091179055565b600054610100900460ff16610d435760405162461bcd60e51b8152600401610d3a90613475565b60405180910390fd5b604080518082018252600b81526a10dbdb9d1c9858dd199d5b60aa1b6020918201528151808301835260018152603160f81b9082015281517f8b73c3c69bb8fe3d512ecc4cf759cc79239f7b179b0ffacaa9a75d522b39400f818301527f4489533f11b9cc5c3a483b23f3634cc7d8cb2e3435fc90a29c7903cb1dd23ce8818401527fc89efdaa54c0f20c7adf612882df0950f5a951637e0307cdcb4c672f298b8bc660608201524660808201523060a0808301919091528351808303909101815260c0909101909252815191012060ca55565b6000805160206136fe833981519152610e2f816124a2565b5060cc80546001600160801b0319166001600160801b0392909216919091179055565b600082815260656020526040902060010154610e6d816124a2565b610e7783836124fe565b505050565b6001600160a01b0381163314610eec5760405162461bcd60e51b815260206004820152602f60248201527f416363657373436f6e74726f6c3a2063616e206f6e6c792072656e6f756e636560448201526e103937b632b9903337b91039b2b63360891b6064820152608401610d3a565b610ef68282612584565b5050565b600054610100900460ff1615808015610f1a5750600054600160ff909116105b80610f345750303b158015610f34575060005460ff166001145b610f975760405162461bcd60e51b815260206004820152602e60248201527f496e697469616c697a61626c653a20636f6e747261637420697320616c72656160448201526d191e481a5b9a5d1a585b1a5e995960921b6064820152608401610d3a565b6000805460ff191660011790558015610fba576000805461ff0019166101001790555b610fc2610d13565b610fca6125eb565b610fd2612612565b60cb80546001600160801b03808616600160801b0291161790556001600160a01b038216610ffe573391505b6110096000836124fe565b6110216000805160206136fe833981519152836124fe565b6110597ffc8737ab85eb45125971625a9ebdb75cc78e01d5c1fa80c4c6e5203f47bc4fab6000805160206136fe833981519152612645565b8015610e77576000805461ff0019169055604051600181527f7f26b83ff96e1f2b6a682f133852f6798a09c465da95921460cefb3847402498906020015b60405180910390a1505050565b60006110ae6123ef565b600082815260d1602052604090206110c590612690565b6110d157506000919050565b6110da82610af2565b1561128857600082815260d160205260408120600281015460098201805492936001600160801b03600160801b9093048316939192909161111d9185911661337b565b82546101009290920a6001600160801b0381810219909316918316021790915560cc5460028401546000935060649261116092811691600160801b900416613424565b61116a91906133b8565b60028301546111899190600160801b90046001600160801b0316613404565b60028301549091506111ac908290600160801b90046001600160801b031661337b565b6001600160801b031660cd60008282546111c691906134c0565b9091555050600482015460058301546111f5916001600160a01b0390811691166001600160801b0384166126e4565b600882018054600191906000906112169084906001600160801b0316613404565b82546101009290920a6001600160801b03818102199093169183160217909155600284015460408051888152600160801b90920490921660208201527f101b32dc248c08277c4e9a662cd218570f12dccd5a0166380a12991934175f1592500160405180910390a15060019392505050565b506000919050565b6112986123ef565b60006112a6828401846134d3565b905060005b815181101561130c576112d68282815181106112c9576112c9613591565b60200260200101516110a4565b506112f98282815181106112ec576112ec613591565b6020026020010151611e4f565b508061130481613362565b9150506112ab565b50505050565b60d0602052816000526040600020818154811061132e57600080fd5b90600052602060002001600091509150505481565b61134b6123ef565b600081815260d16020526040902060068101546001600160a01b03163314611386576040516303135bad60e61b815260040160405180910390fd5b60098101805460ff60801b1916600160801b1790819055600160901b900460ff16611439576004808201546006830154600984015460405163a9059cbb60e01b81526001600160a01b039384169463a9059cbb946113f09416926001600160801b031691016135a7565b6020604051808303816000875af115801561140f573d6000803e3d6000fd5b505050506040513d601f19601f8201168201806040525081019061143391906135c9565b5061179c565b600181015460009061145e906001600160801b0380821691600160801b90041661337b565b600283015490915060009061147c906001600160801b0316836133b8565b600284015490915060009061149a906001600160801b0316846133de565b60028501546001600160801b03918216151592506000916114c79180821691600160801b909104166133b8565b905060005b836001600160801b0316816001600160801b0316101561164f5760006114f3826001613404565b600288015461150b91906001600160801b0316613424565b600188015461152391906001600160801b0316613404565b9050806001600160801b0316421015801561155e57506002870154611551906001600160801b031682613404565b6001600160801b03164211155b1561163c576004870154600588015460038901546001600160a01b039283169263a9059cbb9216906001600160801b03600160801b9091048116906115a5908616426135eb565b6115b8906001600160801b0389166135fe565b6115c291906134c0565b6040516001600160e01b031960e085901b1681526001600160a01b03909216600483015260248201526044016020604051808303816000875af115801561160d573d6000803e3d6000fd5b505050506040513d601f19601f8201168201806040525081019061163191906135c9565b505050505050505050565b50806116478161344f565b9150506114cc565b50811561179757600285015461166f9084906001600160801b0316613424565b600186015461168791906001600160801b0316613404565b6001600160801b031642101580156116b357506001850154600160801b90046001600160801b03164211155b156117975760048501546005860154600387015460018801546001600160a01b039384169363a9059cbb9316916001600160801b03600160801b918290048116926117029242929104166135eb565b611715906001600160801b0387166135fe565b61171f91906134c0565b6040516001600160e01b031960e085901b1681526001600160a01b03909216600483015260248201526044016020604051808303816000875af115801561176a573d6000803e3d6000fd5b505050506040513d601f19601f8201168201806040525081019061178e91906135c9565b50505050505050565b505050505b6040518281527f0cae0523c4d6568388c55dcaeb921d927527a60000ca46adffedddf87225f0ec9060200160405180910390a15050565b6000805160206136fe8339815191526117eb816124a2565b60cd54836001600160801b0316111561181757604051630c7c9a7f60e11b815260040160405180910390fd5b600084815260d1602052604090206004810154611847906001600160a01b0316846001600160801b0387166126e4565b5050505050565b6118566123ef565b6000805160206136fe83398151915261186e816124a2565b600084815260d160205260408120600981015490916001600160801b03909116900361189c5761189c613191565b60098101805460ff60801b1916600160801b1790556118bb8385613404565b6001600160801b03166064146118e457604051630ab76a2560e41b815260040160405180910390fd5b60098101546000906064906119039087906001600160801b0316613424565b61190d91906133b8565b600983015490915060009060649061192f9087906001600160801b0316613424565b61193991906133b8565b600484810154600586015460405163a9059cbb60e01b81529394506001600160a01b039182169363a9059cbb9361197693909216918791016135a7565b6020604051808303816000875af1158015611995573d6000803e3d6000fd5b505050506040513d601f19601f820116820180604052508101906119b991906135c9565b50600480840154600685015460405163a9059cbb60e01b81526001600160a01b039283169363a9059cbb936119f29316918691016135a7565b6020604051808303816000875af1158015611a11573d6000803e3d6000fd5b505050506040513d601f19601f82011682018060405250810190611a3591906135c9565b50604080518881526001600160801b03848116602083015283168183015290517fcc66abc0fd6a7a2cd2810119d6bcbcbeba5a22f087936e5105ac81e84563393c9181900360600190a150505050505050565b600081815260c9602052604081205460ff1615611aa457600080fd5b600082815260c960209081526040808320805460ff1916600117905551611af3917f9b5039e58350b398e1e74d78733f690324b2aafee15033156b0ba14d884646109188918891889101613615565b604051602081830303815290604052805190602001209050600060ca5482604051602001611b3892919061190160f01b81526002810192909252602282015260420190565b60408051601f198184030181528282528051602091820120600080855291840180845281905260ff8d1692840192909252606083018b9052608083018a90529092509060019060a0016020604051602081039080840390855afa158015611ba3573d6000803e3d6000fd5b5050604051601f1901519150506001600160a01b038b1615801590611bd95750806001600160a01b03168b6001600160a01b0316145b9b9a5050505050505050505050565b60006060600060cf8054905067ffffffffffffffff811115611c0c57611c0c6131ee565b604051908082528060200260200182016040528015611c35578160200160208202803683370190505b509050600080935060005b60cf54811015611d1157611c8260d1600060cf8481548110611c6457611c64613591565b90600052602060002001548152602001908152602001600020612690565b15611cff57611cad60cf8281548110611c9d57611c9d613591565b9060005260206000200154610af2565b15611cff576001945060cf8181548110611cc957611cc9613591565b9060005260206000200154838381518110611ce657611ce6613591565b602090810291909101015281611cfb81613362565b9250505b80611d0981613362565b915050611c40565b5081604051602001611d239190612f52565b604051602081830303815290604052925050505b9250929050565b60009182526065602090815260408084206001600160a01b0393909316845291905290205460ff1690565b6000805160206136fe833981519152611d81816124a2565b610cd8612714565b611d916123ef565b600081815260d1602052604090206009810154600160901b900460ff161580611dc557506009810154600160801b900460ff165b80611ddb57506009810154600160881b900460ff165b15611df95760405163c9c2be6d60e01b815260040160405180910390fd5b600082815260d160205260409081902060098101805460ff60881b1916600160881b17905590517fa34da6d2673f1264c5d1d4d7d5edaa12c53e8615fa6183cc1cfe6b6510637fce906110979085815260200190565b6000611e596123ef565b600082815260d160205260409020611e7090612690565b611e7c57506000919050565b600082815260d16020526040902060098101546001600160801b031615611ea65750600092915050565b60028101546009820180546001600160801b03600160801b909304831692600091611ed391859116613404565b82546101009290920a6001600160801b03818102199093169183160217909155600483015460068401546002850154611f2794506001600160a01b039283169392909116913091600160801b900416612437565b600281015460408051858152600160801b9092046001600160801b031660208301527fd91647d68fadbc904f923d642788552eca006a63f0a8e08d123f6c901d963051910160405180910390a150600192915050565b6001600160a01b038116600090815260d06020908152604091829020805483518184028101840190945280845260609392830182828015611fdd57602002820191906000526020600020905b815481526020019060010190808311611fc9575b50505050509050919050565b60d1602090815260009182526040918290208251610180810184528154815260018201546001600160801b0380821694830194909452600160801b908190048416948201949094526002820154808416606083015284900483166080820152600382015480841660a08301529390930490911660c083015260048101546001600160a01b0390811660e08401526005820154811661010084015260068201541661012083015260078101805491929183916101408401916120a990613204565b80601f01602080910402602001604051908101604052809291908181526020018280546120d590613204565b80156121225780601f106120f757610100808354040283529160200191612122565b820191906000526020600020905b81548152906001019060200180831161210557829003601f168201915b5050509183525050600891909101546001600160801b0390811660209283015260408051608081018252600990950154918216855260ff600160801b83048116151593860193909352600160881b82048316151590850152600160901b900416151560608301529082565b6000828152606560205260409020600101546121a8816124a2565b610e778383612584565b600081815260d1602052604090206009810154600160801b900460ff16806121e557506009810154600160901b900460ff165b1561220357604051638549e3e360e01b815260040160405180910390fd5b600082815260d16020526040902060058101546001600160a01b0316331461223e576040516303135bad60e61b815260040160405180910390fd5b60098101805460ff60901b1916600160901b17905533600090815260d06020908152604080832060ce5481546001810183559185529290932090920155517fea49e8aa1bbaa9a7b16632ed4aba908b3c702861a23436c8356e296c228cc278906110979085815260200190565b600081815260d16020526040812060018101546002820154600383015460048401546005850154600686015460088701546007880180548a998a998a998a998a998a998a998a996060998b996001600160801b03808a1699600160801b90819004821699828116999082900483169883821698929091048316966001600160a01b039182169692821695911693909290911690829061234990613204565b80601f016020809104026020016040519081016040528092919081815260200182805461237590613204565b80156123c25780601f10612397576101008083540402835291602001916123c2565b820191906000526020600020905b8154815290600101906020018083116123a557829003601f168201915b505050505091509b509b509b509b509b509b509b509b509b509b509b505091939597999b90929496989a50565b60975460ff16156124355760405162461bcd60e51b815260206004820152601060248201526f14185d5cd8589b194e881c185d5cd95960821b6044820152606401610d3a565b565b6040516001600160a01b038085166024830152831660448201526064810182905261130c9085906323b872dd60e01b906084015b60408051601f198184030181529190526020810180516001600160e01b03166001600160e01b031990931692909217909152612751565b610cd88133612823565b6124b461287c565b6097805460ff191690557f5db9ee0a495bf2e6ff9c91a7834c1ba4fdd244a5e8aa4e537bd38aeae4b073aa335b6040516001600160a01b03909116815260200160405180910390a1565b6125088282611d3e565b610ef65760008281526065602090815260408083206001600160a01b03851684529091529020805460ff191660011790556125403390565b6001600160a01b0316816001600160a01b0316837f2f8788117e7eff1d82e926ec794901d17c78024a50270940304540a733656f0d60405160405180910390a45050565b61258e8282611d3e565b15610ef65760008281526065602090815260408083206001600160a01b0385168085529252808320805460ff1916905551339285917ff6391f5c32d9c69d2a47ea670b442974b53935d1edc7fd64eb21e047a839171b9190a45050565b600054610100900460ff166124355760405162461bcd60e51b8152600401610d3a90613475565b600054610100900460ff166126395760405162461bcd60e51b8152600401610d3a90613475565b6097805460ff19169055565b600082815260656020526040808220600101805490849055905190918391839186917fbd79b86ffe0ab8e8776151514217cd7cacd52c909f66475c3af44e129f0b00ff9190a4505050565b6009810154600090600160901b900460ff1615806126b957506009820154600160801b900460ff165b806126cf57506009820154600160881b900460ff165b156126dc57506000919050565b506001919050565b6040516001600160a01b038316602482015260448101829052610e7790849063a9059cbb60e01b9060640161246b565b61271c6123ef565b6097805460ff191660011790557f62e78cea01bee320cd4e420270b5ea74000d11b0c9f74754ebdbfc544b05a2586124e13390565b60006127a6826040518060400160405280602081526020017f5361666545524332303a206c6f772d6c6576656c2063616c6c206661696c6564815250856001600160a01b03166128c59092919063ffffffff16565b805190915015610e7757808060200190518101906127c491906135c9565b610e775760405162461bcd60e51b815260206004820152602a60248201527f5361666545524332303a204552433230206f7065726174696f6e20646964206e6044820152691bdd081cdd58d8d9595960b21b6064820152608401610d3a565b61282d8282611d3e565b610ef65761283a816128de565b6128458360206128f0565b604051602001612856929190613655565b60408051601f198184030181529082905262461bcd60e51b8252610d3a91600401612c70565b60975460ff166124355760405162461bcd60e51b815260206004820152601460248201527314185d5cd8589b194e881b9bdd081c185d5cd95960621b6044820152606401610d3a565b60606128d48484600085612a8c565b90505b9392505050565b60606106336001600160a01b03831660145b606060006128ff8360026135fe565b61290a9060026134c0565b67ffffffffffffffff811115612922576129226131ee565b6040519080825280601f01601f19166020018201604052801561294c576020820181803683370190505b509050600360fc1b8160008151811061296757612967613591565b60200101906001600160f81b031916908160001a905350600f60fb1b8160018151811061299657612996613591565b60200101906001600160f81b031916908160001a90535060006129ba8460026135fe565b6129c59060016134c0565b90505b6001811115612a3d576f181899199a1a9b1b9c1cb0b131b232b360811b85600f16601081106129f9576129f9613591565b1a60f81b828281518110612a0f57612a0f613591565b60200101906001600160f81b031916908160001a90535060049490941c93612a36816136ca565b90506129c8565b5083156128d75760405162461bcd60e51b815260206004820181905260248201527f537472696e67733a20686578206c656e67746820696e73756666696369656e746044820152606401610d3a565b606082471015612aed5760405162461bcd60e51b815260206004820152602660248201527f416464726573733a20696e73756666696369656e742062616c616e636520666f6044820152651c8818d85b1b60d21b6064820152608401610d3a565b6001600160a01b0385163b612b445760405162461bcd60e51b815260206004820152601d60248201527f416464726573733a2063616c6c20746f206e6f6e2d636f6e74726163740000006044820152606401610d3a565b600080866001600160a01b03168587604051612b6091906136e1565b60006040518083038185875af1925050503d8060008114612b9d576040519150601f19603f3d011682016040523d82523d6000602084013e612ba2565b606091505b5091509150612bb2828286612bbd565b979650505050505050565b60608315612bcc5750816128d7565b825115612bdc5782518084602001fd5b8160405162461bcd60e51b8152600401610d3a9190612c70565b600060208284031215612c0857600080fd5b81356001600160e01b0319811681146128d757600080fd5b60005b83811015612c3b578181015183820152602001612c23565b50506000910152565b60008151808452612c5c816020860160208601612c20565b601f01601f19169290920160200192915050565b6020815260006128d76020830184612c44565b600060208284031215612c9557600080fd5b813567ffffffffffffffff811115612cac57600080fd5b820160e081850312156128d757600080fd5b600060208284031215612cd057600080fd5b5035919050565b80356001600160801b0381168114610cb357600080fd5b600060208284031215612d0057600080fd5b6128d782612cd7565b80356001600160a01b0381168114610cb357600080fd5b60008060408385031215612d3357600080fd5b82359150612d4360208401612d09565b90509250929050565b60008060408385031215612d5f57600080fd5b612d6883612cd7565b9150612d4360208401612d09565b60008083601f840112612d8857600080fd5b50813567ffffffffffffffff811115612da057600080fd5b602083019150836020828501011115611d3757600080fd5b60008060208385031215612dcb57600080fd5b823567ffffffffffffffff811115612de257600080fd5b612dee85828601612d76565b90969095509350505050565b60008060408385031215612e0d57600080fd5b612e1683612d09565b946020939093013593505050565b600080600060608486031215612e3957600080fd5b83359250612e4960208501612cd7565b9150612e5760408501612d09565b90509250925092565b600080600060608486031215612e7557600080fd5b83359250612e8560208501612cd7565b9150612e5760408501612cd7565b600080600080600080600060c0888a031215612eae57600080fd5b612eb788612d09565b9650602088013560ff81168114612ecd57600080fd5b95506040880135945060608801359350608088013567ffffffffffffffff811115612ef757600080fd5b612f038a828b01612d76565b989b979a5095989497959660a090950135949350505050565b82151581526040602082015260006128d46040830184612c44565b600060208284031215612f4957600080fd5b6128d782612d09565b6020808252825182820181905260009190848201906040850190845b81811015612f8a57835183529284019291840191600101612f6e565b50909695505050505050565b60a08152825160a082015260006020840151612fbd60c08401826001600160801b03169052565b5060408401516001600160801b03811660e0840152506060840151610100612fef818501836001600160801b03169052565b6080860151915061012061300d818601846001600160801b03169052565b60a0870151925061014061302b818701856001600160801b03169052565b60c08801519350610160613049818801866001600160801b03169052565b60e08901519450610180613067818901876001600160a01b03169052565b848a01516001600160a01b039081166101a08a0152848b0151166101c0890152828a01516101e089019190915294506130a4610220880186612c44565b94508089015193505050506130c56102008501826001600160801b03169052565b5090506128d760208301846001600160801b0381511682526020810151151560208301526040810151151560408301526060810151151560608301525050565b6001600160801b038c811682528b811660208301528a811660408301528981166060830152888116608083015287811660a08301526001600160a01b0387811660c084015286811660e08401528516610100830152610160610120830181905260009161317484830187612c44565b925080851661014085015250509c9b505050505050505050505050565b634e487b7160e01b600052600160045260246000fd5b6000808335601e198436030181126131be57600080fd5b83018035915067ffffffffffffffff8211156131d957600080fd5b602001915036819003821315611d3757600080fd5b634e487b7160e01b600052604160045260246000fd5b600181811c9082168061321857607f821691505b60208210810361323857634e487b7160e01b600052602260045260246000fd5b50919050565b601f821115610e7757600081815260208120601f850160051c810160208610156132655750805b601f850160051c820191505b8181101561328457828155600101613271565b505050505050565b815167ffffffffffffffff8111156132a6576132a66131ee565b6132ba816132b48454613204565b8461323e565b602080601f8311600181146132ef57600084156132d75750858301515b600019600386901b1c1916600185901b178555613284565b600085815260208120601f198616915b8281101561331e578886015182559484019460019091019084016132ff565b508582101561333c5787850151600019600388901b60f8161c191681555b5050505050600190811b01905550565b634e487b7160e01b600052601160045260246000fd5b6000600182016133745761337461334c565b5060010190565b6001600160801b0382811682821603908082111561339b5761339b61334c565b5092915050565b634e487b7160e01b600052601260045260246000fd5b60006001600160801b03808416806133d2576133d26133a2565b92169190910492915050565b60006001600160801b03808416806133f8576133f86133a2565b92169190910692915050565b6001600160801b0381811683821601908082111561339b5761339b61334c565b6001600160801b038181168382160280821691908281146134475761344761334c565b505092915050565b60006001600160801b0380831681810361346b5761346b61334c565b6001019392505050565b6020808252602b908201527f496e697469616c697a61626c653a20636f6e7472616374206973206e6f74206960408201526a6e697469616c697a696e6760a81b606082015260800190565b808201808211156106335761063361334c565b600060208083850312156134e657600080fd5b823567ffffffffffffffff808211156134fe57600080fd5b818501915085601f83011261351257600080fd5b813581811115613524576135246131ee565b8060051b604051601f19603f83011681018181108582111715613549576135496131ee565b60405291825284820192508381018501918883111561356757600080fd5b938501935b828510156135855784358452938501939285019261356c565b98975050505050505050565b634e487b7160e01b600052603260045260246000fd5b6001600160a01b039290921682526001600160801b0316602082015260400190565b6000602082840312156135db57600080fd5b815180151581146128d757600080fd5b818103818111156106335761063361334c565b80820281158282048414176106335761063361334c565b848152606060208201528260608201528284608083013760006080848301015260006080601f19601f860116830101905082604083015295945050505050565b7f416363657373436f6e74726f6c3a206163636f756e742000000000000000000081526000835161368d816017850160208801612c20565b7001034b99036b4b9b9b4b733903937b6329607d1b60179184019182015283516136be816028840160208801612c20565b01602801949350505050565b6000816136d9576136d961334c565b506000190190565b600082516136f3818460208701612c20565b919091019291505056fe71840dc4906352362b0cdaf79870196c8e42acafade72d5d5a6d59291253ceb1a26469706673582212201fb94f5aeddb6a66c2786e4322deebba3122668390785869b57f28b76d4ed21264736f6c63430008110033",
  "devdoc": {
    "kind": "dev",
    "methods": {
      "activateAgreement(uint256)": {
        "details": "The agreement needs to be created, inactive and the funds for the first cycle set",
        "params": {
          "agreementID": "The ID of the agreement to activate"
        }
      },
      "cancelAgreement(uint256)": {
        "details": "only callable by the contractee",
        "params": {
          "agreementID": "The ID of the agreement"
        }
      },
      "challengeAgreement(uint256)": {
        "params": {
          "agreementID": "The ID of the agreement"
        }
      },
      "claimProtocolFees(uint256,uint128,address)": {
        "params": {
          "agreementID": "The identifier of the agreement",
          "amount": "The amount of tokens claimed",
          "to": "The address receiving the fees*"
        }
      },
      "createAgreement((uint128,uint128,uint128,uint128,address,address,string))": {
        "details": "The agreement default state is inactive, it needs to be activated by the contractor",
        "params": {
          "params": "The parameters of the agreement"
        }
      },
      "getAgreementParameters(uint256)": {
        "details": "an agreement can be not active because it has not been activated or because it is closed",
        "params": {
          "agreementID": "The ID of the agreement"
        },
        "returns": {
          "beginningDate": "The beginning date of the agreement",
          "contractee": "The address of the contractee",
          "contractor": "The address of the contractor",
          "descriptionURI": "The URI of the agreement description",
          "establishmentFeeRate_": "The rate of the establishment fee",
          "maturityDate": "The date when the agreement expires",
          "paymentCycleAmount": "The amount of tokens to be released per payment cycle",
          "paymentCycleDuration": "The duration of a payment cycle",
          "penalizationAmount_": "The amount of tokens that will be kept in case of a penalization",
          "underlayingToken": "The address of the token used for the agreement"
        }
      },
      "getAgreementState(uint256)": {
        "params": {
          "active": "Whether the agreement is active",
          "agreementID": "The ID of the agreement",
          "challenged": "Whether the agreement is challenged",
          "closed": "Whether the agreement is closed",
          "escrowedFunds": "The amount of funds escrowed in the agreement"
        }
      },
      "getRoleAdmin(bytes32)": {
        "details": "Returns the admin role that controls `role`. See {grantRole} and {revokeRole}. To change a role's admin, use {_setRoleAdmin}."
      },
      "getUserAgreements(address)": {
        "params": {
          "user": "The address of the user"
        },
        "returns": {
          "_0": "agreementIDs The IDs of the agreements"
        }
      },
      "grantRole(bytes32,address)": {
        "details": "Grants `role` to `account`. If `account` had not been already granted `role`, emits a {RoleGranted} event. Requirements: - the caller must have ``role``'s admin role. May emit a {RoleGranted} event."
      },
      "hasRole(bytes32,address)": {
        "details": "Returns `true` if `account` has been granted `role`."
      },
      "migrateFunds(uint256)": {
        "details": "Only the keeper or contractee can call this functionA for loop is used to calculate the migration periods instead of storing them on chain to reduce gas costsIf there is a remainder, the last migration period will be shorter than the others and fall on the maturity date",
        "params": {
          "agreementID": "The ID of the agreement to release the funds for"
        }
      },
      "paused()": {
        "details": "Returns true if the contract is paused, and false otherwise."
      },
      "performUpkeep(bytes)": {
        "details": "The input to this method should not be trusted, and the caller of the method should not even be restricted to any single registry. Anyone should be able call it, and the input should be validated, there is no guarantee that the data passed in is the performData returned from checkUpkeep. This could happen due to malicious keepers, racing keepers, or simply a state change while the performUpkeep transaction is waiting for confirmation. Always validate the data passed in.",
        "params": {
          "performData": "is the data which was passed back from the checkData simulation. If it is encoded, it can easily be decoded into other types by calling `abi.decode`. This data should not be trusted, and should be validated against the contract's current state."
        }
      },
      "renounceRole(bytes32,address)": {
        "details": "Revokes `role` from the calling account. Roles are often managed via {grantRole} and {revokeRole}: this function's purpose is to provide a mechanism for accounts to lose their privileges if they are compromised (such as when a trusted device is misplaced). If the calling account had been revoked `role`, emits a {RoleRevoked} event. Requirements: - the caller must be `account`. May emit a {RoleRevoked} event."
      },
      "revokeRole(bytes32,address)": {
        "details": "Revokes `role` from `account`. If `account` had been granted `role`, emits a {RoleRevoked} event. Requirements: - the caller must have ``role``'s admin role. May emit a {RoleRevoked} event."
      },
      "setChallengeDuration(uint128)": {
        "params": {
          "challengeDuration_": "The new challenge duration"
        }
      },
      "setEstablishmentFeeRate(uint128)": {
        "params": {
          "establishmentFeeRate_": "The new establishment fee rate"
        }
      },
      "setPenalizationAmount(uint128)": {
        "params": {
          "penalizationAmount_": "The new penalization amount"
        }
      },
      "splitFunds(uint256,uint128,uint128)": {
        "details": "Only integers can be passed as pecentages. The function does't calculate for decimal points",
        "params": {
          "agreementID": "The ID of the agreement",
          "contracteePercentage": "The percentage of the escrowed funds to be released to the contractee",
          "contractorPercentage": "The percentage of the escrowed funds to be released to the contractor"
        }
      },
      "supportsInterface(bytes4)": {
        "details": "See {IERC165-supportsInterface}."
      }
    },
    "version": 1
  },
  "userdoc": {
    "events": {
      "AgreementActivated(uint256)": {
        "notice": "Emitted after a agreement was activated"
      },
      "AgreementCancelled(uint256)": {
        "notice": "Emitted after a agreement was cancelled"
      },
      "AgreementChallenged(uint256)": {
        "notice": "Emitted after an agreement was challenged"
      },
      "AgreementCreated(uint256,address,address)": {
        "notice": "Emitted after a event was creted"
      },
      "FundsDeposited(uint256,uint128)": {
        "notice": "Emitted after funds are deposited for the upcoming cycle"
      },
      "FundsMigrated(uint256,uint128)": {
        "notice": "Emitted after funds were migrated"
      },
      "FundsSplitted(uint256,uint128,uint128)": {
        "notice": "Emitted after the escrowd funds for an agreement were splitted"
      }
    },
    "kind": "user",
    "methods": {
      "activateAgreement(uint256)": {
        "notice": "Activates an agreement"
      },
      "cancelAgreement(uint256)": {
        "notice": "Closes an agreement and releases the escrowed funds accordingly to the agreement state"
      },
      "challengeAgreement(uint256)": {
        "notice": "Sets the agreement state to challenged and emmits an event that will be captured by the Contractful DAO( currently a multisig)"
      },
      "claimProtocolFees(uint256,uint128,address)": {
        "notice": "Withdraws protocol fees to a target address"
      },
      "createAgreement((uint128,uint128,uint128,uint128,address,address,string))": {
        "notice": "Creates a new agreement"
      },
      "freezeAgreements()": {
        "notice": "Stops all actions on all agreements*"
      },
      "getAgreementParameters(uint256)": {
        "notice": "Returns the parameters of an agreement"
      },
      "getAgreementState(uint256)": {
        "notice": "Returns the state of an agreement"
      },
      "getUserAgreements(address)": {
        "notice": "Returns the user agreements"
      },
      "migrateFunds(uint256)": {
        "notice": "Releases the funds for the current payment cycle"
      },
      "performUpkeep(bytes)": {
        "notice": "method that is actually executed by the keepers, via the registry. The data returned by the checkUpkeep simulation will be passed into this method to actually be executed."
      },
      "setChallengeDuration(uint128)": {
        "notice": "Sets the challenge duration for all agreements"
      },
      "setEstablishmentFeeRate(uint128)": {
        "notice": "Set the establishment protocol fee rate"
      },
      "setPenalizationAmount(uint128)": {
        "notice": "Set the penalization amount for the protocol"
      },
      "splitFunds(uint256,uint128,uint128)": {
        "notice": "Releases the escrowed funds accordingly to the percentages passed as parametersFor the moment the function is only callable by governance wich is a multisig wallet. However in the future it will only be callable by the Contractful DAO"
      },
      "unfreezeAgreements()": {
        "notice": "Cancel a freeze, makes actions available again on all agreements*"
      },
      "validateDescription(address,uint8,bytes32,bytes32,string,uint256)": {
        "notice": "checks whether the signer signed the description"
      }
    },
    "version": 1
  },
  "storageLayout": {
    "storage": [
      {
        "astId": 473,
        "contract": "src/Manager.sol:Manager",
        "label": "_initialized",
        "offset": 0,
        "slot": "0",
        "type": "t_uint8"
      },
      {
        "astId": 476,
        "contract": "src/Manager.sol:Manager",
        "label": "_initializing",
        "offset": 1,
        "slot": "0",
        "type": "t_bool"
      },
      {
        "astId": 1087,
        "contract": "src/Manager.sol:Manager",
        "label": "__gap",
        "offset": 0,
        "slot": "1",
        "type": "t_array(t_uint256)50_storage"
      },
      {
        "astId": 1306,
        "contract": "src/Manager.sol:Manager",
        "label": "__gap",
        "offset": 0,
        "slot": "51",
        "type": "t_array(t_uint256)50_storage"
      },
      {
        "astId": 97,
        "contract": "src/Manager.sol:Manager",
        "label": "_roles",
        "offset": 0,
        "slot": "101",
        "type": "t_mapping(t_bytes32,t_struct(RoleData)92_storage)"
      },
      {
        "astId": 392,
        "contract": "src/Manager.sol:Manager",
        "label": "__gap",
        "offset": 0,
        "slot": "102",
        "type": "t_array(t_uint256)49_storage"
      },
      {
        "astId": 656,
        "contract": "src/Manager.sol:Manager",
        "label": "_paused",
        "offset": 0,
        "slot": "151",
        "type": "t_bool"
      },
      {
        "astId": 761,
        "contract": "src/Manager.sol:Manager",
        "label": "__gap",
        "offset": 0,
        "slot": "152",
        "type": "t_array(t_uint256)49_storage"
      },
      {
        "astId": 12438,
        "contract": "src/Manager.sol:Manager",
        "label": "usedNonces",
        "offset": 0,
        "slot": "201",
        "type": "t_mapping(t_uint256,t_bool)"
      },
      {
        "astId": 12440,
        "contract": "src/Manager.sol:Manager",
        "label": "DOMAIN_SEPARATOR",
        "offset": 0,
        "slot": "202",
        "type": "t_bytes32"
      },
      {
        "astId": 10956,
        "contract": "src/Manager.sol:Manager",
        "label": "penalizationAmount",
        "offset": 0,
        "slot": "203",
        "type": "t_uint128"
      },
      {
        "astId": 10958,
        "contract": "src/Manager.sol:Manager",
        "label": "challengeDuration",
        "offset": 16,
        "slot": "203",
        "type": "t_uint128"
      },
      {
        "astId": 10960,
        "contract": "src/Manager.sol:Manager",
        "label": "establishmentFeeRate",
        "offset": 0,
        "slot": "204",
        "type": "t_uint128"
      },
      {
        "astId": 10963,
        "contract": "src/Manager.sol:Manager",
        "label": "accruedEstablishmentFee",
        "offset": 0,
        "slot": "205",
        "type": "t_uint256"
      },
      {
        "astId": 10966,
        "contract": "src/Manager.sol:Manager",
        "label": "agreementNonce",
        "offset": 0,
        "slot": "206",
        "type": "t_uint256"
      },
      {
        "astId": 10969,
        "contract": "src/Manager.sol:Manager",
        "label": "agreementIDs",
        "offset": 0,
        "slot": "207",
        "type": "t_array(t_uint256)dyn_storage"
      },
      {
        "astId": 10974,
        "contract": "src/Manager.sol:Manager",
        "label": "userAgreements",
        "offset": 0,
        "slot": "208",
        "type": "t_mapping(t_address,t_array(t_uint256)dyn_storage)"
      },
      {
        "astId": 10979,
        "contract": "src/Manager.sol:Manager",
        "label": "agreements",
        "offset": 0,
        "slot": "209",
        "type": "t_mapping(t_uint256,t_struct(Agreement)12807_storage)"
      }
    ],
    "types": {
      "t_address": {
        "encoding": "inplace",
        "label": "address",
        "numberOfBytes": "20"
      },
      "t_array(t_uint256)49_storage": {
        "base": "t_uint256",
        "encoding": "inplace",
        "label": "uint256[49]",
        "numberOfBytes": "1568"
      },
      "t_array(t_uint256)50_storage": {
        "base": "t_uint256",
        "encoding": "inplace",
        "label": "uint256[50]",
        "numberOfBytes": "1600"
      },
      "t_array(t_uint256)dyn_storage": {
        "base": "t_uint256",
        "encoding": "dynamic_array",
        "label": "uint256[]",
        "numberOfBytes": "32"
      },
      "t_bool": {
        "encoding": "inplace",
        "label": "bool",
        "numberOfBytes": "1"
      },
      "t_bytes32": {
        "encoding": "inplace",
        "label": "bytes32",
        "numberOfBytes": "32"
      },
      "t_mapping(t_address,t_array(t_uint256)dyn_storage)": {
        "encoding": "mapping",
        "key": "t_address",
        "label": "mapping(address => uint256[])",
        "numberOfBytes": "32",
        "value": "t_array(t_uint256)dyn_storage"
      },
      "t_mapping(t_address,t_bool)": {
        "encoding": "mapping",
        "key": "t_address",
        "label": "mapping(address => bool)",
        "numberOfBytes": "32",
        "value": "t_bool"
      },
      "t_mapping(t_bytes32,t_struct(RoleData)92_storage)": {
        "encoding": "mapping",
        "key": "t_bytes32",
        "label": "mapping(bytes32 => struct AccessControlUpgradeable.RoleData)",
        "numberOfBytes": "32",
        "value": "t_struct(RoleData)92_storage"
      },
      "t_mapping(t_uint256,t_bool)": {
        "encoding": "mapping",
        "key": "t_uint256",
        "label": "mapping(uint256 => bool)",
        "numberOfBytes": "32",
        "value": "t_bool"
      },
      "t_mapping(t_uint256,t_struct(Agreement)12807_storage)": {
        "encoding": "mapping",
        "key": "t_uint256",
        "label": "mapping(uint256 => struct Types.Agreement)",
        "numberOfBytes": "32",
        "value": "t_struct(Agreement)12807_storage"
      },
      "t_string_storage": {
        "encoding": "bytes",
        "label": "string",
        "numberOfBytes": "32"
      },
      "t_struct(Agreement)12807_storage": {
        "encoding": "inplace",
        "label": "struct Types.Agreement",
        "members": [
          {
            "astId": 12803,
            "contract": "src/Manager.sol:Manager",
            "label": "parameters",
            "offset": 0,
            "slot": "0",
            "type": "t_struct(AgreementParameters)12791_storage"
          },
          {
            "astId": 12806,
            "contract": "src/Manager.sol:Manager",
            "label": "state",
            "offset": 0,
            "slot": "9",
            "type": "t_struct(AgreementState)12800_storage"
          }
        ],
        "numberOfBytes": "320"
      },
      "t_struct(AgreementParameters)12791_storage": {
        "encoding": "inplace",
        "label": "struct Types.AgreementParameters",
        "members": [
          {
            "astId": 12768,
            "contract": "src/Manager.sol:Manager",
            "label": "AGREEMENT_ID",
            "offset": 0,
            "slot": "0",
            "type": "t_uint256"
          },
          {
            "astId": 12770,
            "contract": "src/Manager.sol:Manager",
            "label": "BEGINNING_DATE",
            "offset": 0,
            "slot": "1",
            "type": "t_uint128"
          },
          {
            "astId": 12772,
            "contract": "src/Manager.sol:Manager",
            "label": "MATURITY_DATE",
            "offset": 16,
            "slot": "1",
            "type": "t_uint128"
          },
          {
            "astId": 12774,
            "contract": "src/Manager.sol:Manager",
            "label": "PAYMENT_CYCLE_DURATION",
            "offset": 0,
            "slot": "2",
            "type": "t_uint128"
          },
          {
            "astId": 12776,
            "contract": "src/Manager.sol:Manager",
            "label": "PAYMENT_CYCLE_AMOUNT",
            "offset": 16,
            "slot": "2",
            "type": "t_uint128"
          },
          {
            "astId": 12778,
            "contract": "src/Manager.sol:Manager",
            "label": "ESTABLISHMENT_FEE_RATE",
            "offset": 0,
            "slot": "3",
            "type": "t_uint128"
          },
          {
            "astId": 12780,
            "contract": "src/Manager.sol:Manager",
            "label": "PENALIZATION_AMOUNT",
            "offset": 16,
            "slot": "3",
            "type": "t_uint128"
          },
          {
            "astId": 12782,
            "contract": "src/Manager.sol:Manager",
            "label": "UNDERLAYING_TOKEN",
            "offset": 0,
            "slot": "4",
            "type": "t_address"
          },
          {
            "astId": 12784,
            "contract": "src/Manager.sol:Manager",
            "label": "CONTRACTOR",
            "offset": 0,
            "slot": "5",
            "type": "t_address"
          },
          {
            "astId": 12786,
            "contract": "src/Manager.sol:Manager",
            "label": "CONTRACTEE",
            "offset": 0,
            "slot": "6",
            "type": "t_address"
          },
          {
            "astId": 12788,
            "contract": "src/Manager.sol:Manager",
            "label": "DESCRIPTION_URI",
            "offset": 0,
            "slot": "7",
            "type": "t_string_storage"
          },
          {
            "astId": 12790,
            "contract": "src/Manager.sol:Manager",
            "label": "CURRENT_MIGRATION",
            "offset": 0,
            "slot": "8",
            "type": "t_uint128"
          }
        ],
        "numberOfBytes": "288"
      },
      "t_struct(AgreementState)12800_storage": {
        "encoding": "inplace",
        "label": "struct Types.AgreementState",
        "members": [
          {
            "astId": 12793,
            "contract": "src/Manager.sol:Manager",
            "label": "escrowedFunds",
            "offset": 0,
            "slot": "0",
            "type": "t_uint128"
          },
          {
            "astId": 12795,
            "contract": "src/Manager.sol:Manager",
            "label": "closed",
            "offset": 16,
            "slot": "0",
            "type": "t_bool"
          },
          {
            "astId": 12797,
            "contract": "src/Manager.sol:Manager",
            "label": "challenged",
            "offset": 17,
            "slot": "0",
            "type": "t_bool"
          },
          {
            "astId": 12799,
            "contract": "src/Manager.sol:Manager",
            "label": "active",
            "offset": 18,
            "slot": "0",
            "type": "t_bool"
          }
        ],
        "numberOfBytes": "32"
      },
      "t_struct(RoleData)92_storage": {
        "encoding": "inplace",
        "label": "struct AccessControlUpgradeable.RoleData",
        "members": [
          {
            "astId": 89,
            "contract": "src/Manager.sol:Manager",
            "label": "members",
            "offset": 0,
            "slot": "0",
            "type": "t_mapping(t_address,t_bool)"
          },
          {
            "astId": 91,
            "contract": "src/Manager.sol:Manager",
            "label": "adminRole",
            "offset": 0,
            "slot": "1",
            "type": "t_bytes32"
          }
        ],
        "numberOfBytes": "64"
      },
      "t_uint128": {
        "encoding": "inplace",
        "label": "uint128",
        "numberOfBytes": "16"
      },
      "t_uint256": {
        "encoding": "inplace",
        "label": "uint256",
        "numberOfBytes": "32"
      },
      "t_uint8": {
        "encoding": "inplace",
        "label": "uint8",
        "numberOfBytes": "1"
      }
    }
  }
}