{
  "address": "0xa97d6C17265A09cC5D68830b2a7d0386B61d7c34",
  "abi": [
    {
      "inputs": [],
      "name": "MG_ACCEPTANCE_PERIOD_EXPIRED",
      "type": "error"
    },
    {
      "inputs": [],
      "name": "MG_ADDRESS_ZERO",
      "type": "error"
    },
    {
      "inputs": [],
      "name": "MG_AGREEMENT_INACTIVE",
      "type": "error"
    },
    {
      "inputs": [],
      "name": "MG_AGREEMENT_NOT_PENDING",
      "type": "error"
    },
    {
      "inputs": [],
      "name": "MG_AMOUNT_TOO_HIGH",
      "type": "error"
    },
    {
      "inputs": [],
      "name": "MG_CONTRACTOR_EQUALS_CONTRACTEE",
      "type": "error"
    },
    {
      "inputs": [],
      "name": "MG_FUNDS_ALREADY_SECURED",
      "type": "error"
    },
    {
      "inputs": [],
      "name": "MG_INVALID_MATURITY_DATE",
      "type": "error"
    },
    {
      "inputs": [],
      "name": "MG_INVALID_MIGRATION_PERIOD",
      "type": "error"
    },
    {
      "inputs": [],
      "name": "MG_INVALID_TOKEN",
      "type": "error"
    },
    {
      "inputs": [],
      "name": "MG_UNAUTHORIZED",
      "type": "error"
    },
    {
      "anonymous": false,
      "inputs": [
        {
          "indexed": false,
          "internalType": "uint256",
          "name": "agreementID",
          "type": "uint256"
        }
      ],
      "name": "AgreementActivated",
      "type": "event"
    },
    {
      "anonymous": false,
      "inputs": [
        {
          "indexed": false,
          "internalType": "uint256",
          "name": "agreementID",
          "type": "uint256"
        },
        {
          "indexed": false,
          "internalType": "address",
          "name": "contractor",
          "type": "address"
        },
        {
          "indexed": false,
          "internalType": "address",
          "name": "contractee",
          "type": "address"
        }
      ],
      "name": "AgreementCreated",
      "type": "event"
    },
    {
      "anonymous": false,
      "inputs": [
        {
          "indexed": false,
          "internalType": "uint256",
          "name": "agreement",
          "type": "uint256"
        },
        {
          "indexed": false,
          "internalType": "uint128",
          "name": "amount",
          "type": "uint128"
        }
      ],
      "name": "FundsDeposited",
      "type": "event"
    },
    {
      "anonymous": false,
      "inputs": [
        {
          "indexed": false,
          "internalType": "uint256",
          "name": "agreement",
          "type": "uint256"
        },
        {
          "indexed": false,
          "internalType": "uint128",
          "name": "amount",
          "type": "uint128"
        }
      ],
      "name": "FundsMigrated",
      "type": "event"
    },
    {
      "anonymous": false,
      "inputs": [
        {
          "indexed": false,
          "internalType": "uint8",
          "name": "version",
          "type": "uint8"
        }
      ],
      "name": "Initialized",
      "type": "event"
    },
    {
      "anonymous": false,
      "inputs": [
        {
          "indexed": false,
          "internalType": "address",
          "name": "account",
          "type": "address"
        }
      ],
      "name": "Paused",
      "type": "event"
    },
    {
      "anonymous": false,
      "inputs": [
        {
          "indexed": true,
          "internalType": "bytes32",
          "name": "role",
          "type": "bytes32"
        },
        {
          "indexed": true,
          "internalType": "bytes32",
          "name": "previousAdminRole",
          "type": "bytes32"
        },
        {
          "indexed": true,
          "internalType": "bytes32",
          "name": "newAdminRole",
          "type": "bytes32"
        }
      ],
      "name": "RoleAdminChanged",
      "type": "event"
    },
    {
      "anonymous": false,
      "inputs": [
        {
          "indexed": true,
          "internalType": "bytes32",
          "name": "role",
          "type": "bytes32"
        },
        {
          "indexed": true,
          "internalType": "address",
          "name": "account",
          "type": "address"
        },
        {
          "indexed": true,
          "internalType": "address",
          "name": "sender",
          "type": "address"
        }
      ],
      "name": "RoleGranted",
      "type": "event"
    },
    {
      "anonymous": false,
      "inputs": [
        {
          "indexed": true,
          "internalType": "bytes32",
          "name": "role",
          "type": "bytes32"
        },
        {
          "indexed": true,
          "internalType": "address",
          "name": "account",
          "type": "address"
        },
        {
          "indexed": true,
          "internalType": "address",
          "name": "sender",
          "type": "address"
        }
      ],
      "name": "RoleRevoked",
      "type": "event"
    },
    {
      "anonymous": false,
      "inputs": [
        {
          "indexed": false,
          "internalType": "address",
          "name": "account",
          "type": "address"
        }
      ],
      "name": "Unpaused",
      "type": "event"
    },
    {
      "inputs": [],
      "name": "DEFAULT_ADMIN_ROLE",
      "outputs": [
        {
          "internalType": "bytes32",
          "name": "",
          "type": "bytes32"
        }
      ],
      "stateMutability": "view",
      "type": "function"
    },
    {
      "inputs": [
        {
          "internalType": "uint256",
          "name": "agreementID",
          "type": "uint256"
        }
      ],
      "name": "activateAgreement",
      "outputs": [],
      "stateMutability": "nonpayable",
      "type": "function"
    },
    {
      "inputs": [],
      "name": "agreementNonce",
      "outputs": [
        {
          "internalType": "uint256",
          "name": "",
          "type": "uint256"
        }
      ],
      "stateMutability": "view",
      "type": "function"
    },
    {
      "inputs": [
        {
          "internalType": "uint256",
          "name": "",
          "type": "uint256"
        }
      ],
      "name": "agreements",
      "outputs": [
        {
          "components": [
            {
              "internalType": "uint256",
              "name": "AGREEMENT_ID",
              "type": "uint256"
            },
            {
              "internalType": "uint128",
              "name": "ACCEPTANCE_DEADLINE",
              "type": "uint128"
            },
            {
              "internalType": "uint128",
              "name": "ACTIVATION_DATE",
              "type": "uint128"
            },
            {
              "internalType": "uint128",
              "name": "MATURITY_DATE",
              "type": "uint128"
            },
            {
              "internalType": "uint128",
              "name": "PAYMENT_CYCLE_DURATION",
              "type": "uint128"
            },
            {
              "internalType": "uint128",
              "name": "PAYMENT_CYCLE_AMOUNT",
              "type": "uint128"
            },
            {
              "internalType": "uint128",
              "name": "ESTABLISHMENT_FEE_RATE",
              "type": "uint128"
            },
            {
              "internalType": "uint128",
              "name": "PENALIZATION_AMOUNT",
              "type": "uint128"
            },
            {
              "internalType": "address",
              "name": "UNDERLAYING_TOKEN",
              "type": "address"
            },
            {
              "internalType": "address",
              "name": "CONTRACTOR",
              "type": "address"
            },
            {
              "internalType": "address",
              "name": "CONTRACTEE",
              "type": "address"
            }
          ],
          "internalType": "struct Types.AgreementParameters",
          "name": "parameters",
          "type": "tuple"
        },
        {
          "components": [
            {
              "internalType": "uint128",
              "name": "escrowedFunds",
              "type": "uint128"
            },
            {
              "internalType": "bool",
              "name": "active",
              "type": "bool"
            },
            {
              "internalType": "bool",
              "name": "closed",
              "type": "bool"
            }
          ],
          "internalType": "struct Types.AgreementState",
          "name": "state",
          "type": "tuple"
        }
      ],
      "stateMutability": "view",
      "type": "function"
    },
    {
      "inputs": [
        {
          "internalType": "uint128",
          "name": "agreementDuration",
          "type": "uint128"
        },
        {
          "internalType": "uint128",
          "name": "paymentCycleDuration",
          "type": "uint128"
        }
      ],
      "name": "calculateMigrationPeriods",
      "outputs": [
        {
          "internalType": "uint128[]",
          "name": "migrationPeriods",
          "type": "uint128[]"
        }
      ],
      "stateMutability": "view",
      "type": "function"
    },
    {
      "inputs": [],
      "name": "challengeDuration",
      "outputs": [
        {
          "internalType": "uint128",
          "name": "",
          "type": "uint128"
        }
      ],
      "stateMutability": "view",
      "type": "function"
    },
    {
      "inputs": [
        {
          "internalType": "uint256",
          "name": "agreementID",
          "type": "uint256"
        },
        {
          "internalType": "uint128",
          "name": "amount",
          "type": "uint128"
        },
        {
          "internalType": "address",
          "name": "to",
          "type": "address"
        }
      ],
      "name": "claimProtocolFees",
      "outputs": [],
      "stateMutability": "nonpayable",
      "type": "function"
    },
    {
      "inputs": [
        {
          "components": [
            {
              "internalType": "uint128",
              "name": "acceptanceDeadline",
              "type": "uint128"
            },
            {
              "internalType": "uint128",
              "name": "maturityDate",
              "type": "uint128"
            },
            {
              "internalType": "uint128",
              "name": "paymentCycleDuration",
              "type": "uint128"
            },
            {
              "internalType": "uint128",
              "name": "paymentCycleAmount",
              "type": "uint128"
            },
            {
              "internalType": "address",
              "name": "underlayingToken",
              "type": "address"
            },
            {
              "internalType": "address",
              "name": "contractor",
              "type": "address"
            }
          ],
          "internalType": "struct IManager.AgreementCreationParams",
          "name": "params",
          "type": "tuple"
        }
      ],
      "name": "createAgreement",
      "outputs": [],
      "stateMutability": "nonpayable",
      "type": "function"
    },
    {
      "inputs": [
        {
          "internalType": "uint256",
          "name": "agreementID",
          "type": "uint256"
        }
      ],
      "name": "depositFundsForNextCycle",
      "outputs": [],
      "stateMutability": "nonpayable",
      "type": "function"
    },
    {
      "inputs": [],
      "name": "establishmentFeeRate",
      "outputs": [
        {
          "internalType": "uint128",
          "name": "",
          "type": "uint128"
        }
      ],
      "stateMutability": "view",
      "type": "function"
    },
    {
      "inputs": [],
      "name": "freezeAgreements",
      "outputs": [],
      "stateMutability": "nonpayable",
      "type": "function"
    },
    {
      "inputs": [
        {
          "internalType": "uint256",
          "name": "agreementID",
          "type": "uint256"
        }
      ],
      "name": "getAgreementParameters",
      "outputs": [
        {
          "internalType": "uint128",
          "name": "acceptanceDeadline",
          "type": "uint128"
        },
        {
          "internalType": "uint128",
          "name": "activationDate",
          "type": "uint128"
        },
        {
          "internalType": "uint128",
          "name": "maturityDate",
          "type": "uint128"
        },
        {
          "internalType": "uint128",
          "name": "paymentCycleDuration",
          "type": "uint128"
        },
        {
          "internalType": "uint128",
          "name": "paymentCycleAmount",
          "type": "uint128"
        },
        {
          "internalType": "uint128",
          "name": "establishmentFeeRate_",
          "type": "uint128"
        },
        {
          "internalType": "uint128",
          "name": "penalizationAmount_",
          "type": "uint128"
        },
        {
          "internalType": "address",
          "name": "underlayingToken",
          "type": "address"
        },
        {
          "internalType": "address",
          "name": "contractor",
          "type": "address"
        },
        {
          "internalType": "address",
          "name": "contractee",
          "type": "address"
        }
      ],
      "stateMutability": "view",
      "type": "function"
    },
    {
      "inputs": [
        {
          "internalType": "uint256",
          "name": "agreementID",
          "type": "uint256"
        }
      ],
      "name": "getAgreementState",
      "outputs": [
        {
          "internalType": "uint128",
          "name": "escrowedFunds",
          "type": "uint128"
        },
        {
          "internalType": "bool",
          "name": "active",
          "type": "bool"
        },
        {
          "internalType": "bool",
          "name": "closed",
          "type": "bool"
        }
      ],
      "stateMutability": "view",
      "type": "function"
    },
    {
      "inputs": [
        {
          "internalType": "bytes32",
          "name": "role",
          "type": "bytes32"
        }
      ],
      "name": "getRoleAdmin",
      "outputs": [
        {
          "internalType": "bytes32",
          "name": "",
          "type": "bytes32"
        }
      ],
      "stateMutability": "view",
      "type": "function"
    },
    {
      "inputs": [
        {
          "internalType": "address",
          "name": "user",
          "type": "address"
        }
      ],
      "name": "getUserAgreements",
      "outputs": [
        {
          "internalType": "uint256[]",
          "name": "",
          "type": "uint256[]"
        }
      ],
      "stateMutability": "view",
      "type": "function"
    },
    {
      "inputs": [
        {
          "internalType": "bytes32",
          "name": "role",
          "type": "bytes32"
        },
        {
          "internalType": "address",
          "name": "account",
          "type": "address"
        }
      ],
      "name": "grantRole",
      "outputs": [],
      "stateMutability": "nonpayable",
      "type": "function"
    },
    {
      "inputs": [
        {
          "internalType": "bytes32",
          "name": "role",
          "type": "bytes32"
        },
        {
          "internalType": "address",
          "name": "account",
          "type": "address"
        }
      ],
      "name": "hasRole",
      "outputs": [
        {
          "internalType": "bool",
          "name": "",
          "type": "bool"
        }
      ],
      "stateMutability": "view",
      "type": "function"
    },
    {
      "inputs": [
        {
          "internalType": "uint128",
          "name": "challengeDuration_",
          "type": "uint128"
        },
        {
          "internalType": "address",
          "name": "governance_",
          "type": "address"
        }
      ],
      "name": "initialize",
      "outputs": [],
      "stateMutability": "nonpayable",
      "type": "function"
    },
    {
      "inputs": [
        {
          "internalType": "uint256",
          "name": "agreementID",
          "type": "uint256"
        }
      ],
      "name": "migrateFunds",
      "outputs": [],
      "stateMutability": "nonpayable",
      "type": "function"
    },
    {
      "inputs": [],
      "name": "paused",
      "outputs": [
        {
          "internalType": "bool",
          "name": "",
          "type": "bool"
        }
      ],
      "stateMutability": "view",
      "type": "function"
    },
    {
      "inputs": [],
      "name": "penalizationAmount",
      "outputs": [
        {
          "internalType": "uint128",
          "name": "",
          "type": "uint128"
        }
      ],
      "stateMutability": "view",
      "type": "function"
    },
    {
      "inputs": [
        {
          "internalType": "bytes32",
          "name": "role",
          "type": "bytes32"
        },
        {
          "internalType": "address",
          "name": "account",
          "type": "address"
        }
      ],
      "name": "renounceRole",
      "outputs": [],
      "stateMutability": "nonpayable",
      "type": "function"
    },
    {
      "inputs": [
        {
          "internalType": "bytes32",
          "name": "role",
          "type": "bytes32"
        },
        {
          "internalType": "address",
          "name": "account",
          "type": "address"
        }
      ],
      "name": "revokeRole",
      "outputs": [],
      "stateMutability": "nonpayable",
      "type": "function"
    },
    {
      "inputs": [
        {
          "internalType": "uint128",
          "name": "challengeDuration_",
          "type": "uint128"
        }
      ],
      "name": "setChallengeDuration",
      "outputs": [],
      "stateMutability": "nonpayable",
      "type": "function"
    },
    {
      "inputs": [
        {
          "internalType": "uint128",
          "name": "establishmentFeeRate_",
          "type": "uint128"
        }
      ],
      "name": "setEstablishmentFeeRate",
      "outputs": [],
      "stateMutability": "nonpayable",
      "type": "function"
    },
    {
      "inputs": [
        {
          "internalType": "uint128",
          "name": "penalizationAmount_",
          "type": "uint128"
        }
      ],
      "name": "setPenalizationAmount",
      "outputs": [],
      "stateMutability": "nonpayable",
      "type": "function"
    },
    {
      "inputs": [
        {
          "internalType": "bytes4",
          "name": "interfaceId",
          "type": "bytes4"
        }
      ],
      "name": "supportsInterface",
      "outputs": [
        {
          "internalType": "bool",
          "name": "",
          "type": "bool"
        }
      ],
      "stateMutability": "view",
      "type": "function"
    },
    {
      "inputs": [],
      "name": "unfreezeAgreements",
      "outputs": [],
      "stateMutability": "nonpayable",
      "type": "function"
    },
    {
      "inputs": [
        {
          "internalType": "address",
          "name": "",
          "type": "address"
        },
        {
          "internalType": "uint256",
          "name": "",
          "type": "uint256"
        }
      ],
      "name": "userAgreements",
      "outputs": [
        {
          "internalType": "uint256",
          "name": "",
          "type": "uint256"
        }
      ],
      "stateMutability": "view",
      "type": "function"
    }
  ],
  "transactionHash": "0x33e04acfc7afe70a4c9062fb8c11d34c2857fdb19ed80268c28c464443bcbc73",
  "args": [],
  "numDeployments": 1,
  "solcInputHash": "e1f56388dee1d58de2a06cc8bf22ef55",
  "bytecode": "0x6080604052600060cb55600160cc5534801561001a57600080fd5b506125168061002a6000396000f3fe608060405234801561001057600080fd5b50600436106101cf5760003560e01c80634c27984e11610104578063a0cc8d2c116100a2578063bd14de9611610071578063bd14de961461042d578063d547741f14610533578063de64039014610546578063e86295141461055957600080fd5b8063a0cc8d2c146103e9578063a217fddf146103f2578063a63197d2146103fa578063adb9cae61461040d57600080fd5b806363f749f5116100de57806363f749f5146103525780638aa6ded5146103bb57806391d14854146103ce57806392d5b544146103e157600080fd5b80634c27984e146103215780635c975abb1461033457806362e414a41461033f57600080fd5b806329a6886e116101715780633a67c2f81161014b5780633a67c2f8146102e85780633bc52866146102fb578063419ffe2c1461030e578063429fba4a1461025d57600080fd5b806329a6886e146102a25780632f2ff15d146102c257806336568abe146102d557600080fd5b80631be25067116101ad5780631be2506714610219578063248a9ca31461022c578063291420b31461025d578063292f2e0e1461027057600080fd5b806301ffc9a7146101d45780630bd30c12146101fc5780631333f2b714610206575b600080fd5b6101e76101e2366004611e65565b61064b565b60405190151581526020015b60405180910390f35b610204610682565b005b610204610214366004611eab565b6106a5565b610204610227366004611ec6565b6106dd565b61024f61023a366004611ede565b60009081526065602052604090206001015490565b6040519081526020016101f3565b61020461026b366004611eab565b610ac8565b60c95461028a90600160801b90046001600160801b031681565b6040516001600160801b0390911681526020016101f3565b6102b56102b0366004611ef7565b610b03565b6040516101f39190611f2a565b6102046102d0366004611f8e565b610c2a565b6102046102e3366004611f8e565b610c54565b6102046102f6366004611fb1565b610cd7565b610204610309366004611ede565b610e79565b60c95461028a906001600160801b031681565b61024f61032f366004611fdb565b61120e565b60975460ff166101e7565b61020461034d366004612005565b61123f565b610394610360366004611ede565b600090815260ce60205260409020600801546001600160801b0381169160ff600160801b8304811692600160881b90041690565b604080516001600160801b03909416845291151560208401521515908201526060016101f3565b60ca5461028a906001600160801b031681565b6101e76103dc366004611f8e565b6112ba565b6102046112e5565b61024f60cc5481565b61024f600081565b610204610408366004611ede565b611305565b61042061041b366004612041565b6114d2565b6040516101f3919061205c565b61052561043b366004611ede565b60ce602090815260009182526040918290208251610160810184528154815260018201546001600160801b0380821683860152600160801b9182900481168387015260028401548082166060808601919091529083900482166080850152600385015480831660a0860152839004821660c08501526004850154821660e085015260058501546001600160a01b039081166101008601526006860154811661012086015260078601541661014085015286519081018752600890940154908116845260ff9181048216151594840194909452600160881b9093049092161515928101929092529082565b6040516101f3929190612094565b610204610541366004611f8e565b61153e565b610204610554366004611ede565b611563565b6105dd610567366004611ede565b600090815260ce602052604090206001810154600282015460038301546004840154600585015460068601546007909601546001600160801b0380871698600160801b978890048216988288169897889004831697838816970483169592909216936001600160a01b0390811693928116921690565b604080516001600160801b039b8c168152998b1660208b0152978a16978901979097529488166060880152928716608087015290861660a086015290941660c08401526001600160a01b0393841660e0840152831661010083015291909116610120820152610140016101f3565b60006001600160e01b03198216637965db0b60e01b148061067c57506301ffc9a760e01b6001600160e01b03198316145b92915050565b6000805160206124c183398151915261069a816116a7565b6106a26116b1565b50565b6000805160206124c18339815191526106bd816116a7565b5060c980546001600160801b03928316600160801b029216919091179055565b6106e5611703565b60cc54600090815260ce602052604090205415610704576107046121bf565b600061071660c0830160a08401612041565b6001600160a01b03160361073d576040516305bf1d9d60e21b815260040160405180910390fd5b3361074e60c0830160a08401612041565b6001600160a01b031603610775576040516346a4b5e960e01b815260040160405180910390fd5b600061078760a0830160808401612041565b6001600160a01b0316036107ae57604051639b84273b60e01b815260040160405180910390fd5b426107bf6040830160208401611eab565b6001600160801b0316116107e657604051630dcde81360e11b815260040160405180910390fd5b6108196107f960a0830160808401612041565b333061080b6080860160608701611eab565b6001600160801b031661174b565b60408051610160810190915260cc54815260208082019061083c90840184611eab565b6001600160801b0316815260200160006001600160801b0316815260200182602001602081019061086d9190611eab565b6001600160801b0316815260200161088b6060840160408501611eab565b6001600160801b031681526020016108a96080840160608501611eab565b6001600160801b03908116825260ca548116602083015260c9541660408201526060016108dc60a0840160808501612041565b6001600160a01b031681526020016108fa60c0840160a08501612041565b6001600160a01b03908116825233602092830181905260cc8054600090815260ce855260408082208751815587870151888301516001600160801b03918216600160801b91831682021760018085019190915560608b015160808c0151908416908416830217600285015560a0808c015160c0808e015191861691861690940217600386015560e08c01516004860180546001600160801b03191691909516179093556101008b01516005850180546001600160a01b0319908116928c169290921790556101208c01516006860180548316918c16919091179055610140909b015160079094018054909b16939098169290921790985593825260cd8087529082209254835495860184559282529481209093015591929091610a2291908501908501612041565b6001600160a01b03168152602080820192909252604001600090812060cc80548254600181018455928452939092200191909155547fe037ec30313eecdd927ffae3beed86a87b82f7bb794966ec08d75cf1a6e8268690610a8960c0840160a08501612041565b604080519283526001600160a01b039091166020830152339082015260600160405180910390a160cc8054906000610ac0836121eb565b919050555050565b6000805160206124c1833981519152610ae0816116a7565b5060ca80546001600160801b0319166001600160801b0392909216919091179055565b60cc54600090815260ce60205260408120606091610b21848661221a565b90506000610b2f8587612240565b6001600160801b03161515905060005b826001600160801b0316816001600160801b03161015610bd257610b638187612266565b610b6e906001612291565b6001850154610b8d9190600160801b90046001600160801b0316612291565b85826001600160801b031681518110610ba857610ba86122b8565b6001600160801b039092166020928302919091019091015280610bca816122ce565b915050610b3f565b508015610c2157600283015484516001600160801b03918216918691908516908110610c0057610c006122b8565b60200260200101906001600160801b031690816001600160801b0316815250505b50505092915050565b600082815260656020526040902060010154610c45816116a7565b610c4f83836117bc565b505050565b6001600160a01b0381163314610cc95760405162461bcd60e51b815260206004820152602f60248201527f416363657373436f6e74726f6c3a2063616e206f6e6c792072656e6f756e636560448201526e103937b632b9903337b91039b2b63360891b60648201526084015b60405180910390fd5b610cd38282611842565b5050565b600054610100900460ff1615808015610cf75750600054600160ff909116105b80610d115750303b158015610d11575060005460ff166001145b610d745760405162461bcd60e51b815260206004820152602e60248201527f496e697469616c697a61626c653a20636f6e747261637420697320616c72656160448201526d191e481a5b9a5d1a585b1a5e995960921b6064820152608401610cc0565b6000805460ff191660011790558015610d97576000805461ff0019166101001790555b610d9f6118a9565b610da76118d0565b60c980546001600160801b03808616600160801b0291161790556001600160a01b038216610dd3573391505b610dde6000836117bc565b610df66000805160206124c1833981519152836117bc565b610e2e7ffc8737ab85eb45125971625a9ebdb75cc78e01d5c1fa80c4c6e5203f47bc4fab6000805160206124c1833981519152611903565b8015610c4f576000805461ff0019169055604051600181527f7f26b83ff96e1f2b6a682f133852f6798a09c465da95921460cefb3847402498906020015b60405180910390a1505050565b610e81611703565b600081815260ce602052604090206008810154600160801b900460ff16610ebb57604051630804c32d60e31b815260040160405180910390fd5b600082815260ce6020526040902060078101546001600160a01b03163314801590610f0d5750610f0b7ffc8737ab85eb45125971625a9ebdb75cc78e01d5c1fa80c4c6e5203f47bc4fab336112ba565b155b8015610f2e5750610f2c6000805160206124c1833981519152336112ba565b155b15610f4c576040516303135bad60e61b815260040160405180910390fd5b600083815260ce6020526040812060018101546002820154919291610f84916001600160801b03600160801b909104811691166122f4565b6002830154909150600090610fa990600160801b90046001600160801b03168361221a565b60028401549091506000908190610fd090600160801b90046001600160801b031685612240565b6001600160801b03161515905060005b836001600160801b0316816001600160801b031610156110ab576000611007826001612291565b60028801546110269190600160801b90046001600160801b0316612266565b60018801546110459190600160801b90046001600160801b0316612291565b9050806001600160801b031642106110925760c95461107490600160801b90046001600160801b031682612291565b6001600160801b0316421161108d5760019350506110ab565b611098565b506110ab565b50806110a3816122ce565b915050610fe0565b508161110b57801561110b5760028501546001600160801b03164210801590611101575060c95460028601546110f4916001600160801b03600160801b90910481169116612291565b6001600160801b03164211155b1561110b57600191505b81611129576040516381c4a38760e01b815260040160405180910390fd5b60ca54600386015460009160649161114d916001600160801b039081169116612266565b611157919061221a565b60038701549091506111739082906001600160801b03166122f4565b6001600160801b031660cb600082825461118d9190612314565b9091555050600586015460068701546111bc916001600160a01b0390811691166001600160801b03841661194e565b6003860154604080518b81526001600160801b0390921660208301527f101b32dc248c08277c4e9a662cd218570f12dccd5a0166380a12991934175f15910160405180910390a1505050505050505050565b60cd602052816000526040600020818154811061122a57600080fd5b90600052602060002001600091509150505481565b6000805160206124c1833981519152611257816116a7565b60cb54836001600160801b0316111561128357604051630c7c9a7f60e11b815260040160405180910390fd5b600084815260ce6020526040902060058101546112b3906001600160a01b0316846001600160801b03871661194e565b5050505050565b60009182526065602090815260408084206001600160a01b0393909316845291905290205460ff1690565b6000805160206124c18339815191526112fd816116a7565b6106a261197e565b61130d611703565b600081815260ce602052604090206008810154600160801b900460ff1661134757604051630804c32d60e31b815260040160405180910390fd5b600082815260ce6020526040902060078101546001600160a01b0316331480159061139957506113977ffc8737ab85eb45125971625a9ebdb75cc78e01d5c1fa80c4c6e5203f47bc4fab336112ba565b155b80156113ba57506113b86000805160206124c1833981519152336112ba565b155b156113d8576040516303135bad60e61b815260040160405180910390fd5b600083815260ce6020526040902060088101546001600160801b031615611412576040516351f16c9360e11b815260040160405180910390fd5b60038101546008820180546001600160801b039283169260009161143891859116612291565b82546101009290920a6001600160801b0381810219909316918316021790915560058301546007840154600385015461148594506001600160a01b0392831693929091169130911661174b565b6003810154604080518681526001600160801b0390921660208301527fd91647d68fadbc904f923d642788552eca006a63f0a8e08d123f6c901d963051910160405180910390a150505050565b6001600160a01b038116600090815260cd602090815260409182902080548351818402810184019094528084526060939283018282801561153257602002820191906000526020600020905b81548152602001906001019080831161151e575b50505050509050919050565b600082815260656020526040902060010154611559816116a7565b610c4f8383611842565b600081815260ce602052604090206008810154600160881b900460ff168061159657506008810154600160801b900460ff165b156115b457604051638549e3e360e01b815260040160405180910390fd5b600082815260ce6020526040902060068101546001600160a01b031633146115ef576040516303135bad60e61b815260040160405180910390fd5b60018101546001600160801b031642111561161d576040516327d8e54760e01b815260040160405180910390fd5b600181810180546001600160801b03908116600160801b4290921682021790915560088301805460ff60801b1916909117905533600090815260cd6020908152604080832060cc5481549586018255908452928290209093019190915590518481527fea49e8aa1bbaa9a7b16632ed4aba908b3c702861a23436c8356e296c228cc2789101610e6c565b6106a281336119bb565b6116b9611a14565b6097805460ff191690557f5db9ee0a495bf2e6ff9c91a7834c1ba4fdd244a5e8aa4e537bd38aeae4b073aa335b6040516001600160a01b03909116815260200160405180910390a1565b60975460ff16156117495760405162461bcd60e51b815260206004820152601060248201526f14185d5cd8589b194e881c185d5cd95960821b6044820152606401610cc0565b565b6040516001600160a01b03808516602483015283166044820152606481018290526117b69085906323b872dd60e01b906084015b60408051601f198184030181529190526020810180516001600160e01b03166001600160e01b031990931692909217909152611a5d565b50505050565b6117c682826112ba565b610cd35760008281526065602090815260408083206001600160a01b03851684529091529020805460ff191660011790556117fe3390565b6001600160a01b0316816001600160a01b0316837f2f8788117e7eff1d82e926ec794901d17c78024a50270940304540a733656f0d60405160405180910390a45050565b61184c82826112ba565b15610cd35760008281526065602090815260408083206001600160a01b0385168085529252808320805460ff1916905551339285917ff6391f5c32d9c69d2a47ea670b442974b53935d1edc7fd64eb21e047a839171b9190a45050565b600054610100900460ff166117495760405162461bcd60e51b8152600401610cc090612327565b600054610100900460ff166118f75760405162461bcd60e51b8152600401610cc090612327565b6097805460ff19169055565b600082815260656020526040808220600101805490849055905190918391839186917fbd79b86ffe0ab8e8776151514217cd7cacd52c909f66475c3af44e129f0b00ff9190a4505050565b6040516001600160a01b038316602482015260448101829052610c4f90849063a9059cbb60e01b9060640161177f565b611986611703565b6097805460ff191660011790557f62e78cea01bee320cd4e420270b5ea74000d11b0c9f74754ebdbfc544b05a2586116e63390565b6119c582826112ba565b610cd3576119d281611b2f565b6119dd836020611b41565b6040516020016119ee929190612396565b60408051601f198184030181529082905262461bcd60e51b8252610cc09160040161240b565b60975460ff166117495760405162461bcd60e51b815260206004820152601460248201527314185d5cd8589b194e881b9bdd081c185d5cd95960621b6044820152606401610cc0565b6000611ab2826040518060400160405280602081526020017f5361666545524332303a206c6f772d6c6576656c2063616c6c206661696c6564815250856001600160a01b0316611ce49092919063ffffffff16565b805190915015610c4f5780806020019051810190611ad0919061243e565b610c4f5760405162461bcd60e51b815260206004820152602a60248201527f5361666545524332303a204552433230206f7065726174696f6e20646964206e6044820152691bdd081cdd58d8d9595960b21b6064820152608401610cc0565b606061067c6001600160a01b03831660145b60606000611b50836002612460565b611b5b906002612314565b67ffffffffffffffff811115611b7357611b73612477565b6040519080825280601f01601f191660200182016040528015611b9d576020820181803683370190505b509050600360fc1b81600081518110611bb857611bb86122b8565b60200101906001600160f81b031916908160001a905350600f60fb1b81600181518110611be757611be76122b8565b60200101906001600160f81b031916908160001a9053506000611c0b846002612460565b611c16906001612314565b90505b6001811115611c8e576f181899199a1a9b1b9c1cb0b131b232b360811b85600f1660108110611c4a57611c4a6122b8565b1a60f81b828281518110611c6057611c606122b8565b60200101906001600160f81b031916908160001a90535060049490941c93611c878161248d565b9050611c19565b508315611cdd5760405162461bcd60e51b815260206004820181905260248201527f537472696e67733a20686578206c656e67746820696e73756666696369656e746044820152606401610cc0565b9392505050565b6060611cf38484600085611cfb565b949350505050565b606082471015611d5c5760405162461bcd60e51b815260206004820152602660248201527f416464726573733a20696e73756666696369656e742062616c616e636520666f6044820152651c8818d85b1b60d21b6064820152608401610cc0565b6001600160a01b0385163b611db35760405162461bcd60e51b815260206004820152601d60248201527f416464726573733a2063616c6c20746f206e6f6e2d636f6e74726163740000006044820152606401610cc0565b600080866001600160a01b03168587604051611dcf91906124a4565b60006040518083038185875af1925050503d8060008114611e0c576040519150601f19603f3d011682016040523d82523d6000602084013e611e11565b606091505b5091509150611e21828286611e2c565b979650505050505050565b60608315611e3b575081611cdd565b825115611e4b5782518084602001fd5b8160405162461bcd60e51b8152600401610cc0919061240b565b600060208284031215611e7757600080fd5b81356001600160e01b031981168114611cdd57600080fd5b80356001600160801b0381168114611ea657600080fd5b919050565b600060208284031215611ebd57600080fd5b611cdd82611e8f565b600060c08284031215611ed857600080fd5b50919050565b600060208284031215611ef057600080fd5b5035919050565b60008060408385031215611f0a57600080fd5b611f1383611e8f565b9150611f2160208401611e8f565b90509250929050565b6020808252825182820181905260009190848201906040850190845b81811015611f6b5783516001600160801b031683529284019291840191600101611f46565b50909695505050505050565b80356001600160a01b0381168114611ea657600080fd5b60008060408385031215611fa157600080fd5b82359150611f2160208401611f77565b60008060408385031215611fc457600080fd5b611fcd83611e8f565b9150611f2160208401611f77565b60008060408385031215611fee57600080fd5b611ff783611f77565b946020939093013593505050565b60008060006060848603121561201a57600080fd5b8335925061202a60208501611e8f565b915061203860408501611f77565b90509250925092565b60006020828403121561205357600080fd5b611cdd82611f77565b6020808252825182820181905260009190848201906040850190845b81811015611f6b57835183529284019291840191600101612078565b825181526020808401516101c08301916120b8908401826001600160801b03169052565b5060408401516120d360408401826001600160801b03169052565b5060608401516120ee60608401826001600160801b03169052565b50608084015161210960808401826001600160801b03169052565b5060a084015161212460a08401826001600160801b03169052565b5060c084015161213f60c08401826001600160801b03169052565b5060e084015161215a60e08401826001600160801b03169052565b50610100848101516001600160a01b039081169184019190915261012080860151821690840152610140808601519091169083015282516001600160801b031661016083015260208301511515610180830152604083015115156101a0830152611cdd565b634e487b7160e01b600052600160045260246000fd5b634e487b7160e01b600052601160045260246000fd5b6000600182016121fd576121fd6121d5565b5060010190565b634e487b7160e01b600052601260045260246000fd5b60006001600160801b038084168061223457612234612204565b92169190910492915050565b60006001600160801b038084168061225a5761225a612204565b92169190910692915050565b6001600160801b03818116838216028082169190828114612289576122896121d5565b505092915050565b6001600160801b038181168382160190808211156122b1576122b16121d5565b5092915050565b634e487b7160e01b600052603260045260246000fd5b60006001600160801b038083168181036122ea576122ea6121d5565b6001019392505050565b6001600160801b038281168282160390808211156122b1576122b16121d5565b8082018082111561067c5761067c6121d5565b6020808252602b908201527f496e697469616c697a61626c653a20636f6e7472616374206973206e6f74206960408201526a6e697469616c697a696e6760a81b606082015260800190565b60005b8381101561238d578181015183820152602001612375565b50506000910152565b7f416363657373436f6e74726f6c3a206163636f756e74200000000000000000008152600083516123ce816017850160208801612372565b7001034b99036b4b9b9b4b733903937b6329607d1b60179184019182015283516123ff816028840160208801612372565b01602801949350505050565b602081526000825180602084015261242a816040850160208701612372565b601f01601f19169190910160400192915050565b60006020828403121561245057600080fd5b81518015158114611cdd57600080fd5b808202811582820484141761067c5761067c6121d5565b634e487b7160e01b600052604160045260246000fd5b60008161249c5761249c6121d5565b506000190190565b600082516124b6818460208701612372565b919091019291505056fe71840dc4906352362b0cdaf79870196c8e42acafade72d5d5a6d59291253ceb1a26469706673582212200b0b18e4b93b4ede2ac548e1a4ce94103b474b29c2f9729993e1440a17efd89264736f6c63430008110033",
  "devdoc": {
    "kind": "dev",
    "methods": {
      "activateAgreement(uint256)": {
        "details": "The agreement needs to be created, inactive and the funds for the first cycle set",
        "params": {
          "agreementID": "The ID of the agreement to activate"
        }
      },
      "calculateMigrationPeriods(uint128,uint128)": {
        "details": "If there is a remainder, the last migration period will be shorter than the others and fall on the maturity datethe return value is a list of the starting migration periods. To actualy calculate the period you need to add the challenge duration",
        "params": {
          "agreementDuration": "The duration of the agreement",
          "paymentCycleDuration": "The duration of the payment cycle"
        },
        "returns": {
          "migrationPeriods": "The migration periods for the agreement"
        }
      },
      "claimProtocolFees(uint256,uint128,address)": {
        "params": {
          "agreementID": "The identifier of the agreement",
          "amount": "The amount of tokens claimed",
          "to": "The address receiving the fees*"
        }
      },
      "createAgreement((uint128,uint128,uint128,uint128,address,address))": {
        "details": "The agreement default state is inactive, it needs to be activated by the contractor",
        "params": {
          "params": "The parameters of the agreement"
        }
      },
      "getAgreementParameters(uint256)": {
        "details": "an agreement can be not active because it has not been activated or because it is closed",
        "params": {
          "agreementID": "The ID of the agreement"
        },
        "returns": {
          "acceptanceDeadline": "The timestamp the contractor can no longer accept the agreement",
          "activationDate": "The timestamp when the agreement was activated",
          "contractee": "The address of the contractee",
          "contractor": "The address of the contractor",
          "establishmentFeeRate_": "The rate of the establishment fee",
          "maturityDate": "The date when the agreement expires",
          "paymentCycleAmount": "The amount of tokens to be released per payment cycle",
          "paymentCycleDuration": "The duration of a payment cycle",
          "penalizationAmount_": "The amount of tokens that will be kept in case of a penalization",
          "underlayingToken": "The address of the token used for the agreement"
        }
      },
      "getAgreementState(uint256)": {
        "params": {
          "active": "Whether the agreement is active",
          "agreementID": "The ID of the agreement",
          "closed": "Whether the agreement is closed",
          "escrowedFunds": "The amount of funds escrowed in the agreement"
        }
      },
      "getRoleAdmin(bytes32)": {
        "details": "Returns the admin role that controls `role`. See {grantRole} and {revokeRole}. To change a role's admin, use {_setRoleAdmin}."
      },
      "getUserAgreements(address)": {
        "params": {
          "user": "The address of the user"
        },
        "returns": {
          "_0": "agreementIDs The IDs of the agreements"
        }
      },
      "grantRole(bytes32,address)": {
        "details": "Grants `role` to `account`. If `account` had not been already granted `role`, emits a {RoleGranted} event. Requirements: - the caller must have ``role``'s admin role. May emit a {RoleGranted} event."
      },
      "hasRole(bytes32,address)": {
        "details": "Returns `true` if `account` has been granted `role`."
      },
      "migrateFunds(uint256)": {
        "details": "Only the keeper or contractee can call this functionA for loop is used to calculate the migration periods instead of storing them on chain to reduce gas costsTo reduce gas costs, the migration periods are calculated inside the function, instead of calling calculateMigrationPeriodsIf there is a remainder, the last migration period will be shorter than the others and fall on the maturity date",
        "params": {
          "agreementID": "The ID of the agreement to release the funds for"
        }
      },
      "paused()": {
        "details": "Returns true if the contract is paused, and false otherwise."
      },
      "renounceRole(bytes32,address)": {
        "details": "Revokes `role` from the calling account. Roles are often managed via {grantRole} and {revokeRole}: this function's purpose is to provide a mechanism for accounts to lose their privileges if they are compromised (such as when a trusted device is misplaced). If the calling account had been revoked `role`, emits a {RoleRevoked} event. Requirements: - the caller must be `account`. May emit a {RoleRevoked} event."
      },
      "revokeRole(bytes32,address)": {
        "details": "Revokes `role` from `account`. If `account` had been granted `role`, emits a {RoleRevoked} event. Requirements: - the caller must have ``role``'s admin role. May emit a {RoleRevoked} event."
      },
      "setChallengeDuration(uint128)": {
        "params": {
          "challengeDuration_": "The new challenge duration"
        }
      },
      "setEstablishmentFeeRate(uint128)": {
        "params": {
          "establishmentFeeRate_": "The new establishment fee rate"
        }
      },
      "setPenalizationAmount(uint128)": {
        "params": {
          "penalizationAmount_": "The new penalization amount"
        }
      },
      "supportsInterface(bytes4)": {
        "details": "See {IERC165-supportsInterface}."
      }
    },
    "version": 1
  },
  "userdoc": {
    "events": {
      "AgreementActivated(uint256)": {
        "notice": "Emitted after a agreement was activated"
      },
      "AgreementCreated(uint256,address,address)": {
        "notice": "Emitted after a event was creted"
      },
      "FundsDeposited(uint256,uint128)": {
        "notice": "Emitted after funds are deposited for the upcoming cycle "
      },
      "FundsMigrated(uint256,uint128)": {
        "notice": "Emitted after funds were migrated"
      }
    },
    "kind": "user",
    "methods": {
      "activateAgreement(uint256)": {
        "notice": "Activates an agreement"
      },
      "calculateMigrationPeriods(uint128,uint128)": {
        "notice": "Calculates the migration periods for an agreement"
      },
      "claimProtocolFees(uint256,uint128,address)": {
        "notice": "Withdraws protocol fees to a target address"
      },
      "createAgreement((uint128,uint128,uint128,uint128,address,address))": {
        "notice": "Creates a new agreement"
      },
      "freezeAgreements()": {
        "notice": "Stops all actions on all agreements*"
      },
      "getAgreementParameters(uint256)": {
        "notice": "Returns the parameters of an agreement"
      },
      "getAgreementState(uint256)": {
        "notice": "Returns the state of an agreement"
      },
      "getUserAgreements(address)": {
        "notice": "Returns the user agreements"
      },
      "migrateFunds(uint256)": {
        "notice": "Releases the funds for the current payment cycle"
      },
      "setChallengeDuration(uint128)": {
        "notice": "Sets the challenge duration for all agreements"
      },
      "setEstablishmentFeeRate(uint128)": {
        "notice": "Set the establishment protocol fee rate"
      },
      "setPenalizationAmount(uint128)": {
        "notice": "Set the penalization amount for the protocol"
      },
      "unfreezeAgreements()": {
        "notice": "Cancel a freeze, makes actions available again on all agreements*"
      }
    },
    "version": 1
  },
  "storageLayout": {
    "storage": [
      {
        "astId": 415,
        "contract": "src/Manager.sol:Manager",
        "label": "_initialized",
        "offset": 0,
        "slot": "0",
        "type": "t_uint8"
      },
      {
        "astId": 418,
        "contract": "src/Manager.sol:Manager",
        "label": "_initializing",
        "offset": 1,
        "slot": "0",
        "type": "t_bool"
      },
      {
        "astId": 1029,
        "contract": "src/Manager.sol:Manager",
        "label": "__gap",
        "offset": 0,
        "slot": "1",
        "type": "t_array(t_uint256)50_storage"
      },
      {
        "astId": 1248,
        "contract": "src/Manager.sol:Manager",
        "label": "__gap",
        "offset": 0,
        "slot": "51",
        "type": "t_array(t_uint256)50_storage"
      },
      {
        "astId": 39,
        "contract": "src/Manager.sol:Manager",
        "label": "_roles",
        "offset": 0,
        "slot": "101",
        "type": "t_mapping(t_bytes32,t_struct(RoleData)34_storage)"
      },
      {
        "astId": 334,
        "contract": "src/Manager.sol:Manager",
        "label": "__gap",
        "offset": 0,
        "slot": "102",
        "type": "t_array(t_uint256)49_storage"
      },
      {
        "astId": 598,
        "contract": "src/Manager.sol:Manager",
        "label": "_paused",
        "offset": 0,
        "slot": "151",
        "type": "t_bool"
      },
      {
        "astId": 703,
        "contract": "src/Manager.sol:Manager",
        "label": "__gap",
        "offset": 0,
        "slot": "152",
        "type": "t_array(t_uint256)49_storage"
      },
      {
        "astId": 2833,
        "contract": "src/Manager.sol:Manager",
        "label": "penalizationAmount",
        "offset": 0,
        "slot": "201",
        "type": "t_uint128"
      },
      {
        "astId": 2835,
        "contract": "src/Manager.sol:Manager",
        "label": "challengeDuration",
        "offset": 16,
        "slot": "201",
        "type": "t_uint128"
      },
      {
        "astId": 2837,
        "contract": "src/Manager.sol:Manager",
        "label": "establishmentFeeRate",
        "offset": 0,
        "slot": "202",
        "type": "t_uint128"
      },
      {
        "astId": 2840,
        "contract": "src/Manager.sol:Manager",
        "label": "accruedEstablishmentFee",
        "offset": 0,
        "slot": "203",
        "type": "t_uint256"
      },
      {
        "astId": 2843,
        "contract": "src/Manager.sol:Manager",
        "label": "agreementNonce",
        "offset": 0,
        "slot": "204",
        "type": "t_uint256"
      },
      {
        "astId": 2848,
        "contract": "src/Manager.sol:Manager",
        "label": "userAgreements",
        "offset": 0,
        "slot": "205",
        "type": "t_mapping(t_address,t_array(t_uint256)dyn_storage)"
      },
      {
        "astId": 2853,
        "contract": "src/Manager.sol:Manager",
        "label": "agreements",
        "offset": 0,
        "slot": "206",
        "type": "t_mapping(t_uint256,t_struct(Agreement)3960_storage)"
      }
    ],
    "types": {
      "t_address": {
        "encoding": "inplace",
        "label": "address",
        "numberOfBytes": "20"
      },
      "t_array(t_uint256)49_storage": {
        "base": "t_uint256",
        "encoding": "inplace",
        "label": "uint256[49]",
        "numberOfBytes": "1568"
      },
      "t_array(t_uint256)50_storage": {
        "base": "t_uint256",
        "encoding": "inplace",
        "label": "uint256[50]",
        "numberOfBytes": "1600"
      },
      "t_array(t_uint256)dyn_storage": {
        "base": "t_uint256",
        "encoding": "dynamic_array",
        "label": "uint256[]",
        "numberOfBytes": "32"
      },
      "t_bool": {
        "encoding": "inplace",
        "label": "bool",
        "numberOfBytes": "1"
      },
      "t_bytes32": {
        "encoding": "inplace",
        "label": "bytes32",
        "numberOfBytes": "32"
      },
      "t_mapping(t_address,t_array(t_uint256)dyn_storage)": {
        "encoding": "mapping",
        "key": "t_address",
        "label": "mapping(address => uint256[])",
        "numberOfBytes": "32",
        "value": "t_array(t_uint256)dyn_storage"
      },
      "t_mapping(t_address,t_bool)": {
        "encoding": "mapping",
        "key": "t_address",
        "label": "mapping(address => bool)",
        "numberOfBytes": "32",
        "value": "t_bool"
      },
      "t_mapping(t_bytes32,t_struct(RoleData)34_storage)": {
        "encoding": "mapping",
        "key": "t_bytes32",
        "label": "mapping(bytes32 => struct AccessControlUpgradeable.RoleData)",
        "numberOfBytes": "32",
        "value": "t_struct(RoleData)34_storage"
      },
      "t_mapping(t_uint256,t_struct(Agreement)3960_storage)": {
        "encoding": "mapping",
        "key": "t_uint256",
        "label": "mapping(uint256 => struct Types.Agreement)",
        "numberOfBytes": "32",
        "value": "t_struct(Agreement)3960_storage"
      },
      "t_struct(Agreement)3960_storage": {
        "encoding": "inplace",
        "label": "struct Types.Agreement",
        "members": [
          {
            "astId": 3956,
            "contract": "src/Manager.sol:Manager",
            "label": "parameters",
            "offset": 0,
            "slot": "0",
            "type": "t_struct(AgreementParameters)3946_storage"
          },
          {
            "astId": 3959,
            "contract": "src/Manager.sol:Manager",
            "label": "state",
            "offset": 0,
            "slot": "8",
            "type": "t_struct(AgreementState)3953_storage"
          }
        ],
        "numberOfBytes": "288"
      },
      "t_struct(AgreementParameters)3946_storage": {
        "encoding": "inplace",
        "label": "struct Types.AgreementParameters",
        "members": [
          {
            "astId": 3925,
            "contract": "src/Manager.sol:Manager",
            "label": "AGREEMENT_ID",
            "offset": 0,
            "slot": "0",
            "type": "t_uint256"
          },
          {
            "astId": 3927,
            "contract": "src/Manager.sol:Manager",
            "label": "ACCEPTANCE_DEADLINE",
            "offset": 0,
            "slot": "1",
            "type": "t_uint128"
          },
          {
            "astId": 3929,
            "contract": "src/Manager.sol:Manager",
            "label": "ACTIVATION_DATE",
            "offset": 16,
            "slot": "1",
            "type": "t_uint128"
          },
          {
            "astId": 3931,
            "contract": "src/Manager.sol:Manager",
            "label": "MATURITY_DATE",
            "offset": 0,
            "slot": "2",
            "type": "t_uint128"
          },
          {
            "astId": 3933,
            "contract": "src/Manager.sol:Manager",
            "label": "PAYMENT_CYCLE_DURATION",
            "offset": 16,
            "slot": "2",
            "type": "t_uint128"
          },
          {
            "astId": 3935,
            "contract": "src/Manager.sol:Manager",
            "label": "PAYMENT_CYCLE_AMOUNT",
            "offset": 0,
            "slot": "3",
            "type": "t_uint128"
          },
          {
            "astId": 3937,
            "contract": "src/Manager.sol:Manager",
            "label": "ESTABLISHMENT_FEE_RATE",
            "offset": 16,
            "slot": "3",
            "type": "t_uint128"
          },
          {
            "astId": 3939,
            "contract": "src/Manager.sol:Manager",
            "label": "PENALIZATION_AMOUNT",
            "offset": 0,
            "slot": "4",
            "type": "t_uint128"
          },
          {
            "astId": 3941,
            "contract": "src/Manager.sol:Manager",
            "label": "UNDERLAYING_TOKEN",
            "offset": 0,
            "slot": "5",
            "type": "t_address"
          },
          {
            "astId": 3943,
            "contract": "src/Manager.sol:Manager",
            "label": "CONTRACTOR",
            "offset": 0,
            "slot": "6",
            "type": "t_address"
          },
          {
            "astId": 3945,
            "contract": "src/Manager.sol:Manager",
            "label": "CONTRACTEE",
            "offset": 0,
            "slot": "7",
            "type": "t_address"
          }
        ],
        "numberOfBytes": "256"
      },
      "t_struct(AgreementState)3953_storage": {
        "encoding": "inplace",
        "label": "struct Types.AgreementState",
        "members": [
          {
            "astId": 3948,
            "contract": "src/Manager.sol:Manager",
            "label": "escrowedFunds",
            "offset": 0,
            "slot": "0",
            "type": "t_uint128"
          },
          {
            "astId": 3950,
            "contract": "src/Manager.sol:Manager",
            "label": "active",
            "offset": 16,
            "slot": "0",
            "type": "t_bool"
          },
          {
            "astId": 3952,
            "contract": "src/Manager.sol:Manager",
            "label": "closed",
            "offset": 17,
            "slot": "0",
            "type": "t_bool"
          }
        ],
        "numberOfBytes": "32"
      },
      "t_struct(RoleData)34_storage": {
        "encoding": "inplace",
        "label": "struct AccessControlUpgradeable.RoleData",
        "members": [
          {
            "astId": 31,
            "contract": "src/Manager.sol:Manager",
            "label": "members",
            "offset": 0,
            "slot": "0",
            "type": "t_mapping(t_address,t_bool)"
          },
          {
            "astId": 33,
            "contract": "src/Manager.sol:Manager",
            "label": "adminRole",
            "offset": 0,
            "slot": "1",
            "type": "t_bytes32"
          }
        ],
        "numberOfBytes": "64"
      },
      "t_uint128": {
        "encoding": "inplace",
        "label": "uint128",
        "numberOfBytes": "16"
      },
      "t_uint256": {
        "encoding": "inplace",
        "label": "uint256",
        "numberOfBytes": "32"
      },
      "t_uint8": {
        "encoding": "inplace",
        "label": "uint8",
        "numberOfBytes": "1"
      }
    }
  }
}