{
  "address": "0x757371aFe154C97914b79B194d5215E0e2eda049",
  "abi": [
    {
      "inputs": [],
      "name": "MG_ACCEPTANCE_PERIOD_EXPIRED",
      "type": "error"
    },
    {
      "inputs": [],
      "name": "MG_ADDRESS_ZERO",
      "type": "error"
    },
    {
      "inputs": [],
      "name": "MG_AGREEMENT_INACTIVE",
      "type": "error"
    },
    {
      "inputs": [],
      "name": "MG_AGREEMENT_NOT_PENDING",
      "type": "error"
    },
    {
      "inputs": [],
      "name": "MG_AMOUNT_TOO_HIGH",
      "type": "error"
    },
    {
      "inputs": [],
      "name": "MG_CONTRACTOR_EQUALS_CONTRACTEE",
      "type": "error"
    },
    {
      "inputs": [],
      "name": "MG_FUNDS_ALREADY_SECURED",
      "type": "error"
    },
    {
      "inputs": [],
      "name": "MG_INVALID_MATURITY_DATE",
      "type": "error"
    },
    {
      "inputs": [],
      "name": "MG_INVALID_MIGRATION_PERIOD",
      "type": "error"
    },
    {
      "inputs": [],
      "name": "MG_INVALID_TOKEN",
      "type": "error"
    },
    {
      "inputs": [],
      "name": "MG_UNAUTHORIZED",
      "type": "error"
    },
    {
      "anonymous": false,
      "inputs": [
        {
          "indexed": false,
          "internalType": "uint256",
          "name": "agreementID",
          "type": "uint256"
        }
      ],
      "name": "AgreementActivated",
      "type": "event"
    },
    {
      "anonymous": false,
      "inputs": [
        {
          "indexed": false,
          "internalType": "uint256",
          "name": "agreementID",
          "type": "uint256"
        },
        {
          "indexed": false,
          "internalType": "address",
          "name": "contractor",
          "type": "address"
        },
        {
          "indexed": false,
          "internalType": "address",
          "name": "contractee",
          "type": "address"
        }
      ],
      "name": "AgreementCreated",
      "type": "event"
    },
    {
      "anonymous": false,
      "inputs": [
        {
          "indexed": false,
          "internalType": "uint256",
          "name": "agreement",
          "type": "uint256"
        },
        {
          "indexed": false,
          "internalType": "uint128",
          "name": "amount",
          "type": "uint128"
        }
      ],
      "name": "FundsDeposited",
      "type": "event"
    },
    {
      "anonymous": false,
      "inputs": [
        {
          "indexed": false,
          "internalType": "uint256",
          "name": "agreement",
          "type": "uint256"
        },
        {
          "indexed": false,
          "internalType": "uint128",
          "name": "amount",
          "type": "uint128"
        }
      ],
      "name": "FundsMigrated",
      "type": "event"
    },
    {
      "anonymous": false,
      "inputs": [
        {
          "indexed": false,
          "internalType": "uint8",
          "name": "version",
          "type": "uint8"
        }
      ],
      "name": "Initialized",
      "type": "event"
    },
    {
      "anonymous": false,
      "inputs": [
        {
          "indexed": false,
          "internalType": "address",
          "name": "account",
          "type": "address"
        }
      ],
      "name": "Paused",
      "type": "event"
    },
    {
      "anonymous": false,
      "inputs": [
        {
          "indexed": true,
          "internalType": "bytes32",
          "name": "role",
          "type": "bytes32"
        },
        {
          "indexed": true,
          "internalType": "bytes32",
          "name": "previousAdminRole",
          "type": "bytes32"
        },
        {
          "indexed": true,
          "internalType": "bytes32",
          "name": "newAdminRole",
          "type": "bytes32"
        }
      ],
      "name": "RoleAdminChanged",
      "type": "event"
    },
    {
      "anonymous": false,
      "inputs": [
        {
          "indexed": true,
          "internalType": "bytes32",
          "name": "role",
          "type": "bytes32"
        },
        {
          "indexed": true,
          "internalType": "address",
          "name": "account",
          "type": "address"
        },
        {
          "indexed": true,
          "internalType": "address",
          "name": "sender",
          "type": "address"
        }
      ],
      "name": "RoleGranted",
      "type": "event"
    },
    {
      "anonymous": false,
      "inputs": [
        {
          "indexed": true,
          "internalType": "bytes32",
          "name": "role",
          "type": "bytes32"
        },
        {
          "indexed": true,
          "internalType": "address",
          "name": "account",
          "type": "address"
        },
        {
          "indexed": true,
          "internalType": "address",
          "name": "sender",
          "type": "address"
        }
      ],
      "name": "RoleRevoked",
      "type": "event"
    },
    {
      "anonymous": false,
      "inputs": [
        {
          "indexed": false,
          "internalType": "address",
          "name": "account",
          "type": "address"
        }
      ],
      "name": "Unpaused",
      "type": "event"
    },
    {
      "inputs": [],
      "name": "DEFAULT_ADMIN_ROLE",
      "outputs": [
        {
          "internalType": "bytes32",
          "name": "",
          "type": "bytes32"
        }
      ],
      "stateMutability": "view",
      "type": "function"
    },
    {
      "inputs": [],
      "name": "DOMAIN_SEPARATOR",
      "outputs": [
        {
          "internalType": "bytes32",
          "name": "",
          "type": "bytes32"
        }
      ],
      "stateMutability": "view",
      "type": "function"
    },
    {
      "inputs": [
        {
          "internalType": "uint256",
          "name": "agreementID",
          "type": "uint256"
        }
      ],
      "name": "activateAgreement",
      "outputs": [],
      "stateMutability": "nonpayable",
      "type": "function"
    },
    {
      "inputs": [],
      "name": "agreementNonce",
      "outputs": [
        {
          "internalType": "uint256",
          "name": "",
          "type": "uint256"
        }
      ],
      "stateMutability": "view",
      "type": "function"
    },
    {
      "inputs": [
        {
          "internalType": "uint256",
          "name": "",
          "type": "uint256"
        }
      ],
      "name": "agreements",
      "outputs": [
        {
          "components": [
            {
              "internalType": "uint256",
              "name": "AGREEMENT_ID",
              "type": "uint256"
            },
            {
              "internalType": "uint128",
              "name": "BEGINNING_DATE",
              "type": "uint128"
            },
            {
              "internalType": "uint128",
              "name": "ACCEPTANCE_DEADLINE",
              "type": "uint128"
            },
            {
              "internalType": "uint128",
              "name": "MATURITY_DATE",
              "type": "uint128"
            },
            {
              "internalType": "uint128",
              "name": "PAYMENT_CYCLE_DURATION",
              "type": "uint128"
            },
            {
              "internalType": "uint128",
              "name": "PAYMENT_CYCLE_AMOUNT",
              "type": "uint128"
            },
            {
              "internalType": "uint128",
              "name": "ESTABLISHMENT_FEE_RATE",
              "type": "uint128"
            },
            {
              "internalType": "uint128",
              "name": "PENALIZATION_AMOUNT",
              "type": "uint128"
            },
            {
              "internalType": "address",
              "name": "UNDERLAYING_TOKEN",
              "type": "address"
            },
            {
              "internalType": "address",
              "name": "CONTRACTOR",
              "type": "address"
            },
            {
              "internalType": "address",
              "name": "CONTRACTEE",
              "type": "address"
            },
            {
              "internalType": "string",
              "name": "DESCRIPTION_URI",
              "type": "string"
            }
          ],
          "internalType": "struct Types.AgreementParameters",
          "name": "parameters",
          "type": "tuple"
        },
        {
          "components": [
            {
              "internalType": "uint128",
              "name": "escrowedFunds",
              "type": "uint128"
            },
            {
              "internalType": "bool",
              "name": "active",
              "type": "bool"
            },
            {
              "internalType": "bool",
              "name": "closed",
              "type": "bool"
            }
          ],
          "internalType": "struct Types.AgreementState",
          "name": "state",
          "type": "tuple"
        }
      ],
      "stateMutability": "view",
      "type": "function"
    },
    {
      "inputs": [],
      "name": "challengeDuration",
      "outputs": [
        {
          "internalType": "uint128",
          "name": "",
          "type": "uint128"
        }
      ],
      "stateMutability": "view",
      "type": "function"
    },
    {
      "inputs": [
        {
          "internalType": "uint256",
          "name": "agreementID",
          "type": "uint256"
        },
        {
          "internalType": "uint128",
          "name": "amount",
          "type": "uint128"
        },
        {
          "internalType": "address",
          "name": "to",
          "type": "address"
        }
      ],
      "name": "claimProtocolFees",
      "outputs": [],
      "stateMutability": "nonpayable",
      "type": "function"
    },
    {
      "inputs": [
        {
          "components": [
            {
              "internalType": "uint128",
              "name": "beginningDate",
              "type": "uint128"
            },
            {
              "internalType": "uint128",
              "name": "acceptanceDeadline",
              "type": "uint128"
            },
            {
              "internalType": "uint128",
              "name": "maturityDate",
              "type": "uint128"
            },
            {
              "internalType": "uint128",
              "name": "paymentCycleDuration",
              "type": "uint128"
            },
            {
              "internalType": "uint128",
              "name": "paymentCycleAmount",
              "type": "uint128"
            },
            {
              "internalType": "address",
              "name": "underlayingToken",
              "type": "address"
            },
            {
              "internalType": "address",
              "name": "contractor",
              "type": "address"
            },
            {
              "internalType": "string",
              "name": "descriptionURI",
              "type": "string"
            }
          ],
          "internalType": "struct IManager.AgreementCreationParams",
          "name": "params",
          "type": "tuple"
        }
      ],
      "name": "createAgreement",
      "outputs": [],
      "stateMutability": "nonpayable",
      "type": "function"
    },
    {
      "inputs": [
        {
          "internalType": "uint256",
          "name": "agreementID",
          "type": "uint256"
        }
      ],
      "name": "depositFundsForNextCycle",
      "outputs": [],
      "stateMutability": "nonpayable",
      "type": "function"
    },
    {
      "inputs": [],
      "name": "establishmentFeeRate",
      "outputs": [
        {
          "internalType": "uint128",
          "name": "",
          "type": "uint128"
        }
      ],
      "stateMutability": "view",
      "type": "function"
    },
    {
      "inputs": [],
      "name": "freezeAgreements",
      "outputs": [],
      "stateMutability": "nonpayable",
      "type": "function"
    },
    {
      "inputs": [
        {
          "internalType": "uint256",
          "name": "agreementID",
          "type": "uint256"
        }
      ],
      "name": "getAgreementParameters",
      "outputs": [
        {
          "internalType": "uint128",
          "name": "beginningDate",
          "type": "uint128"
        },
        {
          "internalType": "uint128",
          "name": "acceptanceDeadline",
          "type": "uint128"
        },
        {
          "internalType": "uint128",
          "name": "maturityDate",
          "type": "uint128"
        },
        {
          "internalType": "uint128",
          "name": "paymentCycleDuration",
          "type": "uint128"
        },
        {
          "internalType": "uint128",
          "name": "paymentCycleAmount",
          "type": "uint128"
        },
        {
          "internalType": "uint128",
          "name": "establishmentFeeRate_",
          "type": "uint128"
        },
        {
          "internalType": "uint128",
          "name": "penalizationAmount_",
          "type": "uint128"
        },
        {
          "internalType": "address",
          "name": "underlayingToken",
          "type": "address"
        },
        {
          "internalType": "address",
          "name": "contractor",
          "type": "address"
        },
        {
          "internalType": "address",
          "name": "contractee",
          "type": "address"
        },
        {
          "internalType": "string",
          "name": "descriptionURI",
          "type": "string"
        }
      ],
      "stateMutability": "view",
      "type": "function"
    },
    {
      "inputs": [
        {
          "internalType": "uint256",
          "name": "agreementID",
          "type": "uint256"
        }
      ],
      "name": "getAgreementState",
      "outputs": [
        {
          "internalType": "uint128",
          "name": "escrowedFunds",
          "type": "uint128"
        },
        {
          "internalType": "bool",
          "name": "active",
          "type": "bool"
        },
        {
          "internalType": "bool",
          "name": "closed",
          "type": "bool"
        }
      ],
      "stateMutability": "view",
      "type": "function"
    },
    {
      "inputs": [
        {
          "internalType": "bytes32",
          "name": "role",
          "type": "bytes32"
        }
      ],
      "name": "getRoleAdmin",
      "outputs": [
        {
          "internalType": "bytes32",
          "name": "",
          "type": "bytes32"
        }
      ],
      "stateMutability": "view",
      "type": "function"
    },
    {
      "inputs": [
        {
          "internalType": "address",
          "name": "user",
          "type": "address"
        }
      ],
      "name": "getUserAgreements",
      "outputs": [
        {
          "internalType": "uint256[]",
          "name": "",
          "type": "uint256[]"
        }
      ],
      "stateMutability": "view",
      "type": "function"
    },
    {
      "inputs": [
        {
          "internalType": "bytes32",
          "name": "role",
          "type": "bytes32"
        },
        {
          "internalType": "address",
          "name": "account",
          "type": "address"
        }
      ],
      "name": "grantRole",
      "outputs": [],
      "stateMutability": "nonpayable",
      "type": "function"
    },
    {
      "inputs": [
        {
          "internalType": "bytes32",
          "name": "role",
          "type": "bytes32"
        },
        {
          "internalType": "address",
          "name": "account",
          "type": "address"
        }
      ],
      "name": "hasRole",
      "outputs": [
        {
          "internalType": "bool",
          "name": "",
          "type": "bool"
        }
      ],
      "stateMutability": "view",
      "type": "function"
    },
    {
      "inputs": [
        {
          "internalType": "uint128",
          "name": "challengeDuration_",
          "type": "uint128"
        },
        {
          "internalType": "address",
          "name": "governance_",
          "type": "address"
        }
      ],
      "name": "initialize",
      "outputs": [],
      "stateMutability": "nonpayable",
      "type": "function"
    },
    {
      "inputs": [],
      "name": "initialize_",
      "outputs": [],
      "stateMutability": "nonpayable",
      "type": "function"
    },
    {
      "inputs": [
        {
          "internalType": "uint256",
          "name": "agreementID",
          "type": "uint256"
        }
      ],
      "name": "migrateFunds",
      "outputs": [],
      "stateMutability": "nonpayable",
      "type": "function"
    },
    {
      "inputs": [],
      "name": "name",
      "outputs": [
        {
          "internalType": "string",
          "name": "",
          "type": "string"
        }
      ],
      "stateMutability": "view",
      "type": "function"
    },
    {
      "inputs": [],
      "name": "paused",
      "outputs": [
        {
          "internalType": "bool",
          "name": "",
          "type": "bool"
        }
      ],
      "stateMutability": "view",
      "type": "function"
    },
    {
      "inputs": [],
      "name": "penalizationAmount",
      "outputs": [
        {
          "internalType": "uint128",
          "name": "",
          "type": "uint128"
        }
      ],
      "stateMutability": "view",
      "type": "function"
    },
    {
      "inputs": [
        {
          "internalType": "bytes32",
          "name": "role",
          "type": "bytes32"
        },
        {
          "internalType": "address",
          "name": "account",
          "type": "address"
        }
      ],
      "name": "renounceRole",
      "outputs": [],
      "stateMutability": "nonpayable",
      "type": "function"
    },
    {
      "inputs": [
        {
          "internalType": "bytes32",
          "name": "role",
          "type": "bytes32"
        },
        {
          "internalType": "address",
          "name": "account",
          "type": "address"
        }
      ],
      "name": "revokeRole",
      "outputs": [],
      "stateMutability": "nonpayable",
      "type": "function"
    },
    {
      "inputs": [
        {
          "internalType": "uint128",
          "name": "challengeDuration_",
          "type": "uint128"
        }
      ],
      "name": "setChallengeDuration",
      "outputs": [],
      "stateMutability": "nonpayable",
      "type": "function"
    },
    {
      "inputs": [
        {
          "internalType": "uint128",
          "name": "establishmentFeeRate_",
          "type": "uint128"
        }
      ],
      "name": "setEstablishmentFeeRate",
      "outputs": [],
      "stateMutability": "nonpayable",
      "type": "function"
    },
    {
      "inputs": [
        {
          "internalType": "uint128",
          "name": "penalizationAmount_",
          "type": "uint128"
        }
      ],
      "name": "setPenalizationAmount",
      "outputs": [],
      "stateMutability": "nonpayable",
      "type": "function"
    },
    {
      "inputs": [
        {
          "internalType": "bytes4",
          "name": "interfaceId",
          "type": "bytes4"
        }
      ],
      "name": "supportsInterface",
      "outputs": [
        {
          "internalType": "bool",
          "name": "",
          "type": "bool"
        }
      ],
      "stateMutability": "view",
      "type": "function"
    },
    {
      "inputs": [],
      "name": "unfreezeAgreements",
      "outputs": [],
      "stateMutability": "nonpayable",
      "type": "function"
    },
    {
      "inputs": [
        {
          "internalType": "uint256",
          "name": "",
          "type": "uint256"
        }
      ],
      "name": "usedNonces",
      "outputs": [
        {
          "internalType": "bool",
          "name": "",
          "type": "bool"
        }
      ],
      "stateMutability": "view",
      "type": "function"
    },
    {
      "inputs": [
        {
          "internalType": "address",
          "name": "",
          "type": "address"
        },
        {
          "internalType": "uint256",
          "name": "",
          "type": "uint256"
        }
      ],
      "name": "userAgreements",
      "outputs": [
        {
          "internalType": "uint256",
          "name": "",
          "type": "uint256"
        }
      ],
      "stateMutability": "view",
      "type": "function"
    },
    {
      "inputs": [
        {
          "internalType": "address",
          "name": "signer",
          "type": "address"
        },
        {
          "internalType": "uint8",
          "name": "v",
          "type": "uint8"
        },
        {
          "internalType": "bytes32",
          "name": "r",
          "type": "bytes32"
        },
        {
          "internalType": "bytes32",
          "name": "s",
          "type": "bytes32"
        },
        {
          "internalType": "string",
          "name": "description",
          "type": "string"
        },
        {
          "internalType": "uint256",
          "name": "nonce",
          "type": "uint256"
        }
      ],
      "name": "validateDescription",
      "outputs": [
        {
          "internalType": "bool",
          "name": "",
          "type": "bool"
        }
      ],
      "stateMutability": "nonpayable",
      "type": "function"
    }
  ],
  "transactionHash": "0xa0451da4a76d3089ab2d8ad80cc86a5d9cff5b14eda0bcfb2fcc7cc84284a7c3",
  "args": [],
  "numDeployments": 1,
  "solcInputHash": "f84fbde68c7dc36852858bf2a3aa86fc",
  "bytecode": "0x6080604052600060cd55600160ce5534801561001a57600080fd5b50612b508061002a6000396000f3fe608060405234801561001057600080fd5b50600436106101fb5760003560e01c80635c975abb1161011a57806392d5b544116100ad578063adb9cae61161007c578063adb9cae614610497578063bd14de96146104b7578063d547741f146104d8578063de640390146104eb578063e8629514146104fe57600080fd5b806392d5b5441461046b578063a0cc8d2c14610473578063a217fddf1461047c578063a63197d21461048457600080fd5b80636717e41c116100e95780636717e41c1461040f5780636944560c146104325780638aa6ded51461044557806391d148541461045857600080fd5b80635c975abb1461037557806362e414a41461038057806363f749f514610393578063658280f4146103fc57600080fd5b80632f2ff15d116101925780633bc52866116101615780633bc528661461033c578063419ffe2c1461034f578063429fba4a146102b55780634c27984e1461036257600080fd5b80632f2ff15d146102fa5780633644e5151461030d57806336568abe146103165780633a67c2f81461032957600080fd5b80631c8abcec116101ce5780631c8abcec1461027c578063248a9ca314610284578063291420b3146102b5578063292f2e0e146102c857600080fd5b806301ffc9a71461020057806306fdde03146102285780630bd30c121461025f5780631333f2b714610269575b600080fd5b61021361020e36600461219a565b610528565b60405190151581526020015b60405180910390f35b6102526040518060400160405280600b81526020016a10dbdb9d1c9858dd199d5b60aa1b81525081565b60405161021f9190612214565b61026761055f565b005b610267610277366004612243565b610582565b6102676105ba565b6102a761029236600461225e565b60009081526065602052604090206001015490565b60405190815260200161021f565b6102676102c3366004612243565b6106be565b60cb546102e290600160801b90046001600160801b031681565b6040516001600160801b03909116815260200161021f565b61026761030836600461228e565b6106f9565b6102a760ca5481565b61026761032436600461228e565b610723565b6102676103373660046122ba565b6107a1565b61026761034a36600461225e565b61094b565b60cb546102e2906001600160801b031681565b6102a76103703660046122e4565b610cd2565b60975460ff16610213565b61026761038e36600461230e565b610d03565b6103d56103a136600461225e565b600090815260d060205260409020600901546001600160801b0381169160ff600160801b8304811692600160881b90041690565b604080516001600160801b039094168452911515602084015215159082015260600161021f565b61026761040a36600461234a565b610d7e565b61021361041d36600461225e565b60c96020526000908152604090205460ff1681565b610213610440366004612386565b6111d2565b60cc546102e2906001600160801b031681565b61021361046636600461228e565b611332565b61026761135d565b6102a760ce5481565b6102a7600081565b61026761049236600461225e565b61137d565b6104aa6104a536600461243f565b61154a565b60405161021f919061245a565b6104ca6104c536600461225e565b6115b6565b60405161021f92919061249e565b6102676104e636600461228e565b611747565b6102676104f936600461225e565b61176c565b61051161050c36600461225e565b61189a565b60405161021f9b9a999897969594939291906125f1565b60006001600160e01b03198216637965db0b60e01b148061055957506301ffc9a760e01b6001600160e01b03198316145b92915050565b600080516020612afb833981519152610577816119dc565b61057f6119e6565b50565b600080516020612afb83398151915261059a816119dc565b5060cb80546001600160801b03928316600160801b029216919091179055565b600054610100900460ff166105ea5760405162461bcd60e51b81526004016105e19061267a565b60405180910390fd5b604080518082018252600b81526a10dbdb9d1c9858dd199d5b60aa1b6020918201528151808301835260018152603160f81b9082015281517f8b73c3c69bb8fe3d512ecc4cf759cc79239f7b179b0ffacaa9a75d522b39400f818301527f4489533f11b9cc5c3a483b23f3634cc7d8cb2e3435fc90a29c7903cb1dd23ce8818401527fc89efdaa54c0f20c7adf612882df0950f5a951637e0307cdcb4c672f298b8bc660608201524660808201523060a0808301919091528351808303909101815260c0909101909252815191012060ca55565b600080516020612afb8339815191526106d6816119dc565b5060cc80546001600160801b0319166001600160801b0392909216919091179055565b600082815260656020526040902060010154610714816119dc565b61071e8383611a38565b505050565b6001600160a01b03811633146107935760405162461bcd60e51b815260206004820152602f60248201527f416363657373436f6e74726f6c3a2063616e206f6e6c792072656e6f756e636560448201526e103937b632b9903337b91039b2b63360891b60648201526084016105e1565b61079d8282611abe565b5050565b600054610100900460ff16158080156107c15750600054600160ff909116105b806107db5750303b1580156107db575060005460ff166001145b61083e5760405162461bcd60e51b815260206004820152602e60248201527f496e697469616c697a61626c653a20636f6e747261637420697320616c72656160448201526d191e481a5b9a5d1a585b1a5e995960921b60648201526084016105e1565b6000805460ff191660011790558015610861576000805461ff0019166101001790555b6108696105ba565b610871611b25565b610879611b4e565b60cb80546001600160801b03808616600160801b0291161790556001600160a01b0382166108a5573391505b6108b0600083611a38565b6108c8600080516020612afb83398151915283611a38565b6109007ffc8737ab85eb45125971625a9ebdb75cc78e01d5c1fa80c4c6e5203f47bc4fab600080516020612afb833981519152611b81565b801561071e576000805461ff0019169055604051600181527f7f26b83ff96e1f2b6a682f133852f6798a09c465da95921460cefb3847402498906020015b60405180910390a1505050565b610953611bcc565b600081815260d0602052604090206009810154600160801b900460ff1661098d57604051630804c32d60e31b815260040160405180910390fd5b600082815260d06020526040902060078101546001600160a01b031633148015906109df57506109dd7ffc8737ab85eb45125971625a9ebdb75cc78e01d5c1fa80c4c6e5203f47bc4fab33611332565b155b8015610a0057506109fe600080516020612afb83398151915233611332565b155b15610a1e576040516303135bad60e61b815260040160405180910390fd5b600083815260d06020526040812060018101546002820154919291610a4f916001600160801b0390811691166126db565b6002830154909150600090610a7490600160801b90046001600160801b031683612718565b60028401549091506000908190610a9b90600160801b90046001600160801b03168561273e565b6001600160801b03161515905060005b836001600160801b0316816001600160801b03161015610b6f576000610ad2826001612764565b6002880154610af19190600160801b90046001600160801b0316612784565b6001880154610b0991906001600160801b0316612764565b9050806001600160801b03164210610b565760cb54610b3890600160801b90046001600160801b031682612764565b6001600160801b03164211610b51576001935050610b6f565b610b5c565b50610b6f565b5080610b67816127af565b915050610aab565b5081610bcf578015610bcf5760028501546001600160801b03164210801590610bc5575060cb546002860154610bb8916001600160801b03600160801b90910481169116612764565b6001600160801b03164211155b15610bcf57600191505b81610bed576040516381c4a38760e01b815260040160405180910390fd5b60cc546003860154600091606491610c11916001600160801b039081169116612784565b610c1b9190612718565b6003870154909150610c379082906001600160801b03166126db565b6001600160801b031660cd6000828254610c5191906127d5565b909155505060058601546006870154610c80916001600160a01b0390811691166001600160801b038416611c12565b6003860154604080518b81526001600160801b0390921660208301527f101b32dc248c08277c4e9a662cd218570f12dccd5a0166380a12991934175f15910160405180910390a1505050505050505050565b60cf6020528160005260406000208181548110610cee57600080fd5b90600052602060002001600091509150505481565b600080516020612afb833981519152610d1b816119dc565b60cd54836001600160801b03161115610d4757604051630c7c9a7f60e11b815260040160405180910390fd5b600084815260d0602052604090206005810154610d77906001600160a01b0316846001600160801b038716611c12565b5050505050565b610d86611bcc565b60ce54600090815260d0602052604090205415610da557610da56127e8565b6000610db760e0830160c0840161243f565b6001600160a01b031603610dde576040516305bf1d9d60e21b815260040160405180910390fd5b33610def60e0830160c0840161243f565b6001600160a01b031603610e16576040516346a4b5e960e01b815260040160405180910390fd5b6000610e2860c0830160a0840161243f565b6001600160a01b031603610e4f57604051639b84273b60e01b815260040160405180910390fd5b42610e606060830160408401612243565b6001600160801b031611610e8757604051630dcde81360e11b815260040160405180910390fd5b610eba610e9a60c0830160a0840161243f565b3330610eac60a0860160808701612243565b6001600160801b0316611c75565b60408051610180810190915260ce548152602080820190610edd90840184612243565b6001600160801b03168152602001826020016020810190610efe9190612243565b6001600160801b03168152602001610f1c6060840160408501612243565b6001600160801b03168152602001610f3a6080840160608501612243565b6001600160801b03168152602001610f5860a0840160808501612243565b6001600160801b03908116825260cc548116602083015260cb54166040820152606001610f8b60c0840160a0850161243f565b6001600160a01b03168152602001610fa960e0840160c0850161243f565b6001600160a01b03168152336020820152604001610fca60e08401846127fe565b8080601f016020809104026020016040519081016040528093929190818152602001838380828437600092018290525093909452505060ce54815260d060209081526040918290208451815590840151918401516001600160801b03928316600160801b918416820217600183015560608501516080860151908416908416820217600283015560a085015160c086015190841690841690910217600382015560e08401516004820180546001600160801b03191691909316179091556101008301516005820180546001600160a01b03199081166001600160a01b03938416179091556101208501516006840180548316918416919091179055610140850151600784018054909216921691909117905561016083015190915060088201906110f490826128ea565b505033600090815260cf60208181526040832060ce5481546001810183559185529184200155915061112c60e0840160c0850161243f565b6001600160a01b03168152602080820192909252604001600090812060ce80548254600181018455928452939092200191909155547fe037ec30313eecdd927ffae3beed86a87b82f7bb794966ec08d75cf1a6e826869061119360e0840160c0850161243f565b604080519283526001600160a01b039091166020830152339082015260600160405180910390a160ce80549060006111ca836129aa565b919050555050565b600081815260c9602052604081205460ff16156111ee57600080fd5b600082815260c960209081526040808320805460ff191660011790555161123d917f9b5039e58350b398e1e74d78733f690324b2aafee15033156b0ba14d8846461091889188918891016129c3565b604051602081830303815290604052805190602001209050600060ca548260405160200161128292919061190160f01b81526002810192909252602282015260420190565b60408051601f198184030181528282528051602091820120600080855291840180845281905260ff8d1692840192909252606083018b9052608083018a90529092509060019060a0016020604051602081039080840390855afa1580156112ed573d6000803e3d6000fd5b5050604051601f1901519150506001600160a01b038b16158015906113235750806001600160a01b03168b6001600160a01b0316145b9b9a5050505050505050505050565b60009182526065602090815260408084206001600160a01b0393909316845291905290205460ff1690565b600080516020612afb833981519152611375816119dc565b61057f611cb3565b611385611bcc565b600081815260d0602052604090206009810154600160801b900460ff166113bf57604051630804c32d60e31b815260040160405180910390fd5b600082815260d06020526040902060078101546001600160a01b03163314801590611411575061140f7ffc8737ab85eb45125971625a9ebdb75cc78e01d5c1fa80c4c6e5203f47bc4fab33611332565b155b80156114325750611430600080516020612afb83398151915233611332565b155b15611450576040516303135bad60e61b815260040160405180910390fd5b600083815260d06020526040902060098101546001600160801b03161561148a576040516351f16c9360e11b815260040160405180910390fd5b60038101546009820180546001600160801b03928316926000916114b091859116612764565b82546101009290920a6001600160801b038181021990931691831602179091556005830154600784015460038501546114fd94506001600160a01b03928316939290911691309116611c75565b6003810154604080518681526001600160801b0390921660208301527fd91647d68fadbc904f923d642788552eca006a63f0a8e08d123f6c901d963051910160405180910390a150505050565b6001600160a01b038116600090815260cf60209081526040918290208054835181840281018401909452808452606093928301828280156115aa57602002820191906000526020600020905b815481526020019060010190808311611596575b50505050509050919050565b60d0602090815260009182526040918290208251610180810184528154815260018201546001600160801b0380821694830194909452600160801b908190048416948201949094526002820154808416606083015284900483166080820152600382015480841660a083015293909304821660c0840152600481015490911660e083015260058101546001600160a01b0390811661010084015260068201548116610120840152600782015416610140830152600881018054919291839161016084019161168390612862565b80601f01602080910402602001604051908101604052809291908181526020018280546116af90612862565b80156116fc5780601f106116d1576101008083540402835291602001916116fc565b820191906000526020600020905b8154815290600101906020018083116116df57829003601f168201915b505050919092525050604080516060810182526009909401546001600160801b038116855260ff600160801b8204811615156020870152600160881b90910416151590840152509082565b600082815260656020526040902060010154611762816119dc565b61071e8383611abe565b600081815260d0602052604090206009810154600160881b900460ff168061179f57506009810154600160801b900460ff165b156117bd57604051638549e3e360e01b815260040160405180910390fd5b600082815260d06020526040902060068101546001600160a01b031633146117f8576040516303135bad60e61b815260040160405180910390fd5b6001810154600160801b90046001600160801b031642111561182d576040516327d8e54760e01b815260040160405180910390fd5b60098101805460ff60801b1916600160801b17905533600090815260cf6020908152604080832060ce5481546001810183559185529290932090920155517fea49e8aa1bbaa9a7b16632ed4aba908b3c702861a23436c8356e296c228cc2789061093e9085815260200190565b600081815260d06020526040812060018101546002820154600383015460048401546005850154600686015460078701546008880180548a998a998a998a998a998a998a998a998a996060996001600160801b03808a1699600160801b90819004821699808316999082900483169881841698929091048316969216946001600160a01b03918216949282169391169190819061193690612862565b80601f016020809104026020016040519081016040528092919081815260200182805461196290612862565b80156119af5780601f10611984576101008083540402835291602001916119af565b820191906000526020600020905b81548152906001019060200180831161199257829003601f168201915b505050505090509b509b509b509b509b509b509b509b509b509b509b505091939597999b90929496989a50565b61057f8133611cf0565b6119ee611d49565b6097805460ff191690557f5db9ee0a495bf2e6ff9c91a7834c1ba4fdd244a5e8aa4e537bd38aeae4b073aa335b6040516001600160a01b03909116815260200160405180910390a1565b611a428282611332565b61079d5760008281526065602090815260408083206001600160a01b03851684529091529020805460ff19166001179055611a7a3390565b6001600160a01b0316816001600160a01b0316837f2f8788117e7eff1d82e926ec794901d17c78024a50270940304540a733656f0d60405160405180910390a45050565b611ac88282611332565b1561079d5760008281526065602090815260408083206001600160a01b0385168085529252808320805460ff1916905551339285917ff6391f5c32d9c69d2a47ea670b442974b53935d1edc7fd64eb21e047a839171b9190a45050565b600054610100900460ff16611b4c5760405162461bcd60e51b81526004016105e19061267a565b565b600054610100900460ff16611b755760405162461bcd60e51b81526004016105e19061267a565b6097805460ff19169055565b600082815260656020526040808220600101805490849055905190918391839186917fbd79b86ffe0ab8e8776151514217cd7cacd52c909f66475c3af44e129f0b00ff9190a4505050565b60975460ff1615611b4c5760405162461bcd60e51b815260206004820152601060248201526f14185d5cd8589b194e881c185d5cd95960821b60448201526064016105e1565b6040516001600160a01b03831660248201526044810182905261071e90849063a9059cbb60e01b906064015b60408051601f198184030181529190526020810180516001600160e01b03166001600160e01b031990931692909217909152611d92565b6040516001600160a01b0380851660248301528316604482015260648101829052611cad9085906323b872dd60e01b90608401611c3e565b50505050565b611cbb611bcc565b6097805460ff191660011790557f62e78cea01bee320cd4e420270b5ea74000d11b0c9f74754ebdbfc544b05a258611a1b3390565b611cfa8282611332565b61079d57611d0781611e64565b611d12836020611e76565b604051602001611d23929190612a03565b60408051601f198184030181529082905262461bcd60e51b82526105e191600401612214565b60975460ff16611b4c5760405162461bcd60e51b815260206004820152601460248201527314185d5cd8589b194e881b9bdd081c185d5cd95960621b60448201526064016105e1565b6000611de7826040518060400160405280602081526020017f5361666545524332303a206c6f772d6c6576656c2063616c6c206661696c6564815250856001600160a01b03166120199092919063ffffffff16565b80519091501561071e5780806020019051810190611e059190612a78565b61071e5760405162461bcd60e51b815260206004820152602a60248201527f5361666545524332303a204552433230206f7065726174696f6e20646964206e6044820152691bdd081cdd58d8d9595960b21b60648201526084016105e1565b60606105596001600160a01b03831660145b60606000611e85836002612a9a565b611e909060026127d5565b67ffffffffffffffff811115611ea857611ea861284c565b6040519080825280601f01601f191660200182016040528015611ed2576020820181803683370190505b509050600360fc1b81600081518110611eed57611eed612ab1565b60200101906001600160f81b031916908160001a905350600f60fb1b81600181518110611f1c57611f1c612ab1565b60200101906001600160f81b031916908160001a9053506000611f40846002612a9a565b611f4b9060016127d5565b90505b6001811115611fc3576f181899199a1a9b1b9c1cb0b131b232b360811b85600f1660108110611f7f57611f7f612ab1565b1a60f81b828281518110611f9557611f95612ab1565b60200101906001600160f81b031916908160001a90535060049490941c93611fbc81612ac7565b9050611f4e565b5083156120125760405162461bcd60e51b815260206004820181905260248201527f537472696e67733a20686578206c656e67746820696e73756666696369656e7460448201526064016105e1565b9392505050565b60606120288484600085612030565b949350505050565b6060824710156120915760405162461bcd60e51b815260206004820152602660248201527f416464726573733a20696e73756666696369656e742062616c616e636520666f6044820152651c8818d85b1b60d21b60648201526084016105e1565b6001600160a01b0385163b6120e85760405162461bcd60e51b815260206004820152601d60248201527f416464726573733a2063616c6c20746f206e6f6e2d636f6e747261637400000060448201526064016105e1565b600080866001600160a01b031685876040516121049190612ade565b60006040518083038185875af1925050503d8060008114612141576040519150601f19603f3d011682016040523d82523d6000602084013e612146565b606091505b5091509150612156828286612161565b979650505050505050565b60608315612170575081612012565b8251156121805782518084602001fd5b8160405162461bcd60e51b81526004016105e19190612214565b6000602082840312156121ac57600080fd5b81356001600160e01b03198116811461201257600080fd5b60005b838110156121df5781810151838201526020016121c7565b50506000910152565b600081518084526122008160208601602086016121c4565b601f01601f19169290920160200192915050565b60208152600061201260208301846121e8565b80356001600160801b038116811461223e57600080fd5b919050565b60006020828403121561225557600080fd5b61201282612227565b60006020828403121561227057600080fd5b5035919050565b80356001600160a01b038116811461223e57600080fd5b600080604083850312156122a157600080fd5b823591506122b160208401612277565b90509250929050565b600080604083850312156122cd57600080fd5b6122d683612227565b91506122b160208401612277565b600080604083850312156122f757600080fd5b61230083612277565b946020939093013593505050565b60008060006060848603121561232357600080fd5b8335925061233360208501612227565b915061234160408501612277565b90509250925092565b60006020828403121561235c57600080fd5b813567ffffffffffffffff81111561237357600080fd5b8201610100818503121561201257600080fd5b600080600080600080600060c0888a0312156123a157600080fd5b6123aa88612277565b9650602088013560ff811681146123c057600080fd5b95506040880135945060608801359350608088013567ffffffffffffffff808211156123eb57600080fd5b818a0191508a601f8301126123ff57600080fd5b81358181111561240e57600080fd5b8b602082850101111561242057600080fd5b60208301955080945050505060a0880135905092959891949750929550565b60006020828403121561245157600080fd5b61201282612277565b6020808252825182820181905260009190848201906040850190845b8181101561249257835183529284019291840191600101612476565b50909695505050505050565b6080815282516080820152600060208401516124c560a08401826001600160801b03169052565b5060408401516001600160801b03811660c08401525060608401516001600160801b03811660e084015250608084015161010061250c818501836001600160801b03169052565b60a0860151915061012061252a818601846001600160801b03169052565b60c08701519250610140612548818701856001600160801b03169052565b60e08801519350610160612566818801866001600160801b03169052565b92880151935061018092612584878501866001600160a01b03169052565b918801516001600160a01b039081166101a088015290880151166101c08601528601516101e085019190915290506125c06102008401826121e8565b915050612012602083018480516001600160801b031682526020808201511515908301526040908101511515910152565b6001600160801b038c811682528b811660208301528a811660408301528981166060830152888116608083015287811660a0830152861660c08201526001600160a01b0385811660e083015284811661010083015283166101208201526101606101408201819052600090612668838201856121e8565b9e9d5050505050505050505050505050565b6020808252602b908201527f496e697469616c697a61626c653a20636f6e7472616374206973206e6f74206960408201526a6e697469616c697a696e6760a81b606082015260800190565b634e487b7160e01b600052601160045260246000fd5b6001600160801b038281168282160390808211156126fb576126fb6126c5565b5092915050565b634e487b7160e01b600052601260045260246000fd5b60006001600160801b038084168061273257612732612702565b92169190910492915050565b60006001600160801b038084168061275857612758612702565b92169190910692915050565b6001600160801b038181168382160190808211156126fb576126fb6126c5565b6001600160801b038181168382160280821691908281146127a7576127a76126c5565b505092915050565b60006001600160801b038083168181036127cb576127cb6126c5565b6001019392505050565b80820180821115610559576105596126c5565b634e487b7160e01b600052600160045260246000fd5b6000808335601e1984360301811261281557600080fd5b83018035915067ffffffffffffffff82111561283057600080fd5b60200191503681900382131561284557600080fd5b9250929050565b634e487b7160e01b600052604160045260246000fd5b600181811c9082168061287657607f821691505b60208210810361289657634e487b7160e01b600052602260045260246000fd5b50919050565b601f82111561071e57600081815260208120601f850160051c810160208610156128c35750805b601f850160051c820191505b818110156128e2578281556001016128cf565b505050505050565b815167ffffffffffffffff8111156129045761290461284c565b612918816129128454612862565b8461289c565b602080601f83116001811461294d57600084156129355750858301515b600019600386901b1c1916600185901b1785556128e2565b600085815260208120601f198616915b8281101561297c5788860151825594840194600190910190840161295d565b508582101561299a5787850151600019600388901b60f8161c191681555b5050505050600190811b01905550565b6000600182016129bc576129bc6126c5565b5060010190565b848152606060208201528260608201528284608083013760006080848301015260006080601f19601f860116830101905082604083015295945050505050565b7f416363657373436f6e74726f6c3a206163636f756e7420000000000000000000815260008351612a3b8160178501602088016121c4565b7001034b99036b4b9b9b4b733903937b6329607d1b6017918401918201528351612a6c8160288401602088016121c4565b01602801949350505050565b600060208284031215612a8a57600080fd5b8151801515811461201257600080fd5b8082028115828204841417610559576105596126c5565b634e487b7160e01b600052603260045260246000fd5b600081612ad657612ad66126c5565b506000190190565b60008251612af08184602087016121c4565b919091019291505056fe71840dc4906352362b0cdaf79870196c8e42acafade72d5d5a6d59291253ceb1a2646970667358221220b9d567a18f5b56d5f276294a73ae91a4c3d4b44acd3a21bfe63676a7d7672f2164736f6c63430008110033",
  "devdoc": {
    "kind": "dev",
    "methods": {
      "activateAgreement(uint256)": {
        "details": "The agreement needs to be created, inactive and the funds for the first cycle set",
        "params": {
          "agreementID": "The ID of the agreement to activate"
        }
      },
      "claimProtocolFees(uint256,uint128,address)": {
        "params": {
          "agreementID": "The identifier of the agreement",
          "amount": "The amount of tokens claimed",
          "to": "The address receiving the fees*"
        }
      },
      "createAgreement((uint128,uint128,uint128,uint128,uint128,address,address,string))": {
        "details": "The agreement default state is inactive, it needs to be activated by the contractor",
        "params": {
          "params": "The parameters of the agreement"
        }
      },
      "getAgreementParameters(uint256)": {
        "details": "an agreement can be not active because it has not been activated or because it is closed",
        "params": {
          "agreementID": "The ID of the agreement"
        },
        "returns": {
          "acceptanceDeadline": "The timestamp the contractor can no longer accept the agreement",
          "beginningDate": "The beginning date of the agreement",
          "contractee": "The address of the contractee",
          "contractor": "The address of the contractor",
          "descriptionURI": "The URI of the agreement description",
          "establishmentFeeRate_": "The rate of the establishment fee",
          "maturityDate": "The date when the agreement expires",
          "paymentCycleAmount": "The amount of tokens to be released per payment cycle",
          "paymentCycleDuration": "The duration of a payment cycle",
          "penalizationAmount_": "The amount of tokens that will be kept in case of a penalization",
          "underlayingToken": "The address of the token used for the agreement"
        }
      },
      "getAgreementState(uint256)": {
        "params": {
          "active": "Whether the agreement is active",
          "agreementID": "The ID of the agreement",
          "closed": "Whether the agreement is closed",
          "escrowedFunds": "The amount of funds escrowed in the agreement"
        }
      },
      "getRoleAdmin(bytes32)": {
        "details": "Returns the admin role that controls `role`. See {grantRole} and {revokeRole}. To change a role's admin, use {_setRoleAdmin}."
      },
      "getUserAgreements(address)": {
        "params": {
          "user": "The address of the user"
        },
        "returns": {
          "_0": "agreementIDs The IDs of the agreements"
        }
      },
      "grantRole(bytes32,address)": {
        "details": "Grants `role` to `account`. If `account` had not been already granted `role`, emits a {RoleGranted} event. Requirements: - the caller must have ``role``'s admin role. May emit a {RoleGranted} event."
      },
      "hasRole(bytes32,address)": {
        "details": "Returns `true` if `account` has been granted `role`."
      },
      "migrateFunds(uint256)": {
        "details": "Only the keeper or contractee can call this functionA for loop is used to calculate the migration periods instead of storing them on chain to reduce gas costsIf there is a remainder, the last migration period will be shorter than the others and fall on the maturity date",
        "params": {
          "agreementID": "The ID of the agreement to release the funds for"
        }
      },
      "paused()": {
        "details": "Returns true if the contract is paused, and false otherwise."
      },
      "renounceRole(bytes32,address)": {
        "details": "Revokes `role` from the calling account. Roles are often managed via {grantRole} and {revokeRole}: this function's purpose is to provide a mechanism for accounts to lose their privileges if they are compromised (such as when a trusted device is misplaced). If the calling account had been revoked `role`, emits a {RoleRevoked} event. Requirements: - the caller must be `account`. May emit a {RoleRevoked} event."
      },
      "revokeRole(bytes32,address)": {
        "details": "Revokes `role` from `account`. If `account` had been granted `role`, emits a {RoleRevoked} event. Requirements: - the caller must have ``role``'s admin role. May emit a {RoleRevoked} event."
      },
      "setChallengeDuration(uint128)": {
        "params": {
          "challengeDuration_": "The new challenge duration"
        }
      },
      "setEstablishmentFeeRate(uint128)": {
        "params": {
          "establishmentFeeRate_": "The new establishment fee rate"
        }
      },
      "setPenalizationAmount(uint128)": {
        "params": {
          "penalizationAmount_": "The new penalization amount"
        }
      },
      "supportsInterface(bytes4)": {
        "details": "See {IERC165-supportsInterface}."
      }
    },
    "version": 1
  },
  "userdoc": {
    "events": {
      "AgreementActivated(uint256)": {
        "notice": "Emitted after a agreement was activated"
      },
      "AgreementCreated(uint256,address,address)": {
        "notice": "Emitted after a event was creted"
      },
      "FundsDeposited(uint256,uint128)": {
        "notice": "Emitted after funds are deposited for the upcoming cycle"
      },
      "FundsMigrated(uint256,uint128)": {
        "notice": "Emitted after funds were migrated"
      }
    },
    "kind": "user",
    "methods": {
      "activateAgreement(uint256)": {
        "notice": "Activates an agreement"
      },
      "claimProtocolFees(uint256,uint128,address)": {
        "notice": "Withdraws protocol fees to a target address"
      },
      "createAgreement((uint128,uint128,uint128,uint128,uint128,address,address,string))": {
        "notice": "Creates a new agreement"
      },
      "freezeAgreements()": {
        "notice": "Stops all actions on all agreements*"
      },
      "getAgreementParameters(uint256)": {
        "notice": "Returns the parameters of an agreement"
      },
      "getAgreementState(uint256)": {
        "notice": "Returns the state of an agreement"
      },
      "getUserAgreements(address)": {
        "notice": "Returns the user agreements"
      },
      "migrateFunds(uint256)": {
        "notice": "Releases the funds for the current payment cycle"
      },
      "setChallengeDuration(uint128)": {
        "notice": "Sets the challenge duration for all agreements"
      },
      "setEstablishmentFeeRate(uint128)": {
        "notice": "Set the establishment protocol fee rate"
      },
      "setPenalizationAmount(uint128)": {
        "notice": "Set the penalization amount for the protocol"
      },
      "unfreezeAgreements()": {
        "notice": "Cancel a freeze, makes actions available again on all agreements*"
      },
      "validateDescription(address,uint8,bytes32,bytes32,string,uint256)": {
        "notice": "checks whether the signer signed the description"
      }
    },
    "version": 1
  },
  "storageLayout": {
    "storage": [
      {
        "astId": 415,
        "contract": "src/Manager.sol:Manager",
        "label": "_initialized",
        "offset": 0,
        "slot": "0",
        "type": "t_uint8"
      },
      {
        "astId": 418,
        "contract": "src/Manager.sol:Manager",
        "label": "_initializing",
        "offset": 1,
        "slot": "0",
        "type": "t_bool"
      },
      {
        "astId": 1029,
        "contract": "src/Manager.sol:Manager",
        "label": "__gap",
        "offset": 0,
        "slot": "1",
        "type": "t_array(t_uint256)50_storage"
      },
      {
        "astId": 1248,
        "contract": "src/Manager.sol:Manager",
        "label": "__gap",
        "offset": 0,
        "slot": "51",
        "type": "t_array(t_uint256)50_storage"
      },
      {
        "astId": 39,
        "contract": "src/Manager.sol:Manager",
        "label": "_roles",
        "offset": 0,
        "slot": "101",
        "type": "t_mapping(t_bytes32,t_struct(RoleData)34_storage)"
      },
      {
        "astId": 334,
        "contract": "src/Manager.sol:Manager",
        "label": "__gap",
        "offset": 0,
        "slot": "102",
        "type": "t_array(t_uint256)49_storage"
      },
      {
        "astId": 598,
        "contract": "src/Manager.sol:Manager",
        "label": "_paused",
        "offset": 0,
        "slot": "151",
        "type": "t_bool"
      },
      {
        "astId": 703,
        "contract": "src/Manager.sol:Manager",
        "label": "__gap",
        "offset": 0,
        "slot": "152",
        "type": "t_array(t_uint256)49_storage"
      },
      {
        "astId": 3706,
        "contract": "src/Manager.sol:Manager",
        "label": "usedNonces",
        "offset": 0,
        "slot": "201",
        "type": "t_mapping(t_uint256,t_bool)"
      },
      {
        "astId": 3708,
        "contract": "src/Manager.sol:Manager",
        "label": "DOMAIN_SEPARATOR",
        "offset": 0,
        "slot": "202",
        "type": "t_bytes32"
      },
      {
        "astId": 2830,
        "contract": "src/Manager.sol:Manager",
        "label": "penalizationAmount",
        "offset": 0,
        "slot": "203",
        "type": "t_uint128"
      },
      {
        "astId": 2832,
        "contract": "src/Manager.sol:Manager",
        "label": "challengeDuration",
        "offset": 16,
        "slot": "203",
        "type": "t_uint128"
      },
      {
        "astId": 2834,
        "contract": "src/Manager.sol:Manager",
        "label": "establishmentFeeRate",
        "offset": 0,
        "slot": "204",
        "type": "t_uint128"
      },
      {
        "astId": 2837,
        "contract": "src/Manager.sol:Manager",
        "label": "accruedEstablishmentFee",
        "offset": 0,
        "slot": "205",
        "type": "t_uint256"
      },
      {
        "astId": 2840,
        "contract": "src/Manager.sol:Manager",
        "label": "agreementNonce",
        "offset": 0,
        "slot": "206",
        "type": "t_uint256"
      },
      {
        "astId": 2845,
        "contract": "src/Manager.sol:Manager",
        "label": "userAgreements",
        "offset": 0,
        "slot": "207",
        "type": "t_mapping(t_address,t_array(t_uint256)dyn_storage)"
      },
      {
        "astId": 2850,
        "contract": "src/Manager.sol:Manager",
        "label": "agreements",
        "offset": 0,
        "slot": "208",
        "type": "t_mapping(t_uint256,t_struct(Agreement)4024_storage)"
      }
    ],
    "types": {
      "t_address": {
        "encoding": "inplace",
        "label": "address",
        "numberOfBytes": "20"
      },
      "t_array(t_uint256)49_storage": {
        "base": "t_uint256",
        "encoding": "inplace",
        "label": "uint256[49]",
        "numberOfBytes": "1568"
      },
      "t_array(t_uint256)50_storage": {
        "base": "t_uint256",
        "encoding": "inplace",
        "label": "uint256[50]",
        "numberOfBytes": "1600"
      },
      "t_array(t_uint256)dyn_storage": {
        "base": "t_uint256",
        "encoding": "dynamic_array",
        "label": "uint256[]",
        "numberOfBytes": "32"
      },
      "t_bool": {
        "encoding": "inplace",
        "label": "bool",
        "numberOfBytes": "1"
      },
      "t_bytes32": {
        "encoding": "inplace",
        "label": "bytes32",
        "numberOfBytes": "32"
      },
      "t_mapping(t_address,t_array(t_uint256)dyn_storage)": {
        "encoding": "mapping",
        "key": "t_address",
        "label": "mapping(address => uint256[])",
        "numberOfBytes": "32",
        "value": "t_array(t_uint256)dyn_storage"
      },
      "t_mapping(t_address,t_bool)": {
        "encoding": "mapping",
        "key": "t_address",
        "label": "mapping(address => bool)",
        "numberOfBytes": "32",
        "value": "t_bool"
      },
      "t_mapping(t_bytes32,t_struct(RoleData)34_storage)": {
        "encoding": "mapping",
        "key": "t_bytes32",
        "label": "mapping(bytes32 => struct AccessControlUpgradeable.RoleData)",
        "numberOfBytes": "32",
        "value": "t_struct(RoleData)34_storage"
      },
      "t_mapping(t_uint256,t_bool)": {
        "encoding": "mapping",
        "key": "t_uint256",
        "label": "mapping(uint256 => bool)",
        "numberOfBytes": "32",
        "value": "t_bool"
      },
      "t_mapping(t_uint256,t_struct(Agreement)4024_storage)": {
        "encoding": "mapping",
        "key": "t_uint256",
        "label": "mapping(uint256 => struct Types.Agreement)",
        "numberOfBytes": "32",
        "value": "t_struct(Agreement)4024_storage"
      },
      "t_string_storage": {
        "encoding": "bytes",
        "label": "string",
        "numberOfBytes": "32"
      },
      "t_struct(Agreement)4024_storage": {
        "encoding": "inplace",
        "label": "struct Types.Agreement",
        "members": [
          {
            "astId": 4020,
            "contract": "src/Manager.sol:Manager",
            "label": "parameters",
            "offset": 0,
            "slot": "0",
            "type": "t_struct(AgreementParameters)4010_storage"
          },
          {
            "astId": 4023,
            "contract": "src/Manager.sol:Manager",
            "label": "state",
            "offset": 0,
            "slot": "9",
            "type": "t_struct(AgreementState)4017_storage"
          }
        ],
        "numberOfBytes": "320"
      },
      "t_struct(AgreementParameters)4010_storage": {
        "encoding": "inplace",
        "label": "struct Types.AgreementParameters",
        "members": [
          {
            "astId": 3987,
            "contract": "src/Manager.sol:Manager",
            "label": "AGREEMENT_ID",
            "offset": 0,
            "slot": "0",
            "type": "t_uint256"
          },
          {
            "astId": 3989,
            "contract": "src/Manager.sol:Manager",
            "label": "BEGINNING_DATE",
            "offset": 0,
            "slot": "1",
            "type": "t_uint128"
          },
          {
            "astId": 3991,
            "contract": "src/Manager.sol:Manager",
            "label": "ACCEPTANCE_DEADLINE",
            "offset": 16,
            "slot": "1",
            "type": "t_uint128"
          },
          {
            "astId": 3993,
            "contract": "src/Manager.sol:Manager",
            "label": "MATURITY_DATE",
            "offset": 0,
            "slot": "2",
            "type": "t_uint128"
          },
          {
            "astId": 3995,
            "contract": "src/Manager.sol:Manager",
            "label": "PAYMENT_CYCLE_DURATION",
            "offset": 16,
            "slot": "2",
            "type": "t_uint128"
          },
          {
            "astId": 3997,
            "contract": "src/Manager.sol:Manager",
            "label": "PAYMENT_CYCLE_AMOUNT",
            "offset": 0,
            "slot": "3",
            "type": "t_uint128"
          },
          {
            "astId": 3999,
            "contract": "src/Manager.sol:Manager",
            "label": "ESTABLISHMENT_FEE_RATE",
            "offset": 16,
            "slot": "3",
            "type": "t_uint128"
          },
          {
            "astId": 4001,
            "contract": "src/Manager.sol:Manager",
            "label": "PENALIZATION_AMOUNT",
            "offset": 0,
            "slot": "4",
            "type": "t_uint128"
          },
          {
            "astId": 4003,
            "contract": "src/Manager.sol:Manager",
            "label": "UNDERLAYING_TOKEN",
            "offset": 0,
            "slot": "5",
            "type": "t_address"
          },
          {
            "astId": 4005,
            "contract": "src/Manager.sol:Manager",
            "label": "CONTRACTOR",
            "offset": 0,
            "slot": "6",
            "type": "t_address"
          },
          {
            "astId": 4007,
            "contract": "src/Manager.sol:Manager",
            "label": "CONTRACTEE",
            "offset": 0,
            "slot": "7",
            "type": "t_address"
          },
          {
            "astId": 4009,
            "contract": "src/Manager.sol:Manager",
            "label": "DESCRIPTION_URI",
            "offset": 0,
            "slot": "8",
            "type": "t_string_storage"
          }
        ],
        "numberOfBytes": "288"
      },
      "t_struct(AgreementState)4017_storage": {
        "encoding": "inplace",
        "label": "struct Types.AgreementState",
        "members": [
          {
            "astId": 4012,
            "contract": "src/Manager.sol:Manager",
            "label": "escrowedFunds",
            "offset": 0,
            "slot": "0",
            "type": "t_uint128"
          },
          {
            "astId": 4014,
            "contract": "src/Manager.sol:Manager",
            "label": "active",
            "offset": 16,
            "slot": "0",
            "type": "t_bool"
          },
          {
            "astId": 4016,
            "contract": "src/Manager.sol:Manager",
            "label": "closed",
            "offset": 17,
            "slot": "0",
            "type": "t_bool"
          }
        ],
        "numberOfBytes": "32"
      },
      "t_struct(RoleData)34_storage": {
        "encoding": "inplace",
        "label": "struct AccessControlUpgradeable.RoleData",
        "members": [
          {
            "astId": 31,
            "contract": "src/Manager.sol:Manager",
            "label": "members",
            "offset": 0,
            "slot": "0",
            "type": "t_mapping(t_address,t_bool)"
          },
          {
            "astId": 33,
            "contract": "src/Manager.sol:Manager",
            "label": "adminRole",
            "offset": 0,
            "slot": "1",
            "type": "t_bytes32"
          }
        ],
        "numberOfBytes": "64"
      },
      "t_uint128": {
        "encoding": "inplace",
        "label": "uint128",
        "numberOfBytes": "16"
      },
      "t_uint256": {
        "encoding": "inplace",
        "label": "uint256",
        "numberOfBytes": "32"
      },
      "t_uint8": {
        "encoding": "inplace",
        "label": "uint8",
        "numberOfBytes": "1"
      }
    }
  }
}